{
  "contractName": "RandomNumberConsumer",
  "abi": [
    {
      "inputs": [
        {
          "internalType": "address",
          "name": "_linkTokenAddress",
          "type": "address"
        }
      ],
      "stateMutability": "nonpayable",
      "type": "constructor"
    },
    {
      "inputs": [],
      "name": "randomResult",
      "outputs": [
        {
          "internalType": "uint256",
          "name": "",
          "type": "uint256"
        }
      ],
      "stateMutability": "view",
      "type": "function"
    },
    {
      "inputs": [
        {
          "internalType": "bytes32",
          "name": "requestId",
          "type": "bytes32"
        },
        {
          "internalType": "uint256",
          "name": "randomness",
          "type": "uint256"
        }
      ],
      "name": "rawFulfillRandomness",
      "outputs": [],
      "stateMutability": "nonpayable",
      "type": "function"
    },
    {
      "inputs": [
        {
          "internalType": "uint256",
          "name": "userProvidedSeed",
          "type": "uint256"
        }
      ],
      "name": "getRandomNumber",
      "outputs": [
        {
          "internalType": "bytes32",
          "name": "requestId",
          "type": "bytes32"
        }
      ],
      "stateMutability": "nonpayable",
      "type": "function"
    },
    {
      "inputs": [],
      "name": "getChainlinkToken",
      "outputs": [
        {
          "internalType": "address",
          "name": "",
          "type": "address"
        }
      ],
      "stateMutability": "view",
      "type": "function"
    }
  ],
  "bytecode": "0x60c060405234801561001057600080fd5b506040516106c43803806106c48339818101604052602081101561003357600080fd5b810190808051906020019092919050505073dd3782915140c8f3b190b5d67eac6dc5760c46e9818173ffffffffffffffffffffffffffffffffffffffff1660a08173ffffffffffffffffffffffffffffffffffffffff1660601b815250508073ffffffffffffffffffffffffffffffffffffffff1660808173ffffffffffffffffffffffffffffffffffffffff1660601b8152505050507f6c3699283bda56ad74f6b855546325b68d482e983852a7a82979cc4807b641f460001b60018190555067016345785d8a00006002819055505060805160601c60a05160601c61058d6101376000398061014d528061027d5250806101215280610241525061058d6000f3fe608060405234801561001057600080fd5b506004361061004c5760003560e01c8063165d35e11461005157806342619f661461008557806394985ddd146100a3578063b37217a4146100db575b600080fd5b61005961011d565b604051808273ffffffffffffffffffffffffffffffffffffffff16815260200191505060405180910390f35b61008d610145565b6040518082815260200191505060405180910390f35b6100d9600480360360408110156100b957600080fd5b81019080803590602001909291908035906020019092919050505061014b565b005b610107600480360360208110156100f157600080fd5b810190808035906020019092919050505061021a565b6040518082815260200191505060405180910390f35b60007f0000000000000000000000000000000000000000000000000000000000000000905090565b60035481565b7f000000000000000000000000000000000000000000000000000000000000000073ffffffffffffffffffffffffffffffffffffffff163373ffffffffffffffffffffffffffffffffffffffff161461020c576040517f08c379a000000000000000000000000000000000000000000000000000000000815260040180806020018281038252601f8152602001807f4f6e6c7920565246436f6f7264696e61746f722063616e2066756c66696c6c0081525060200191505060405180910390fd5b6102168282610232565b5050565b600061022b6001546002548461023d565b9050919050565b806003819055505050565b60007f000000000000000000000000000000000000000000000000000000000000000073ffffffffffffffffffffffffffffffffffffffff16634000aea07f000000000000000000000000000000000000000000000000000000000000000085878660405160200180838152602001828152602001925050506040516020818303038152906040526040518463ffffffff1660e01b8152600401808473ffffffffffffffffffffffffffffffffffffffff16815260200183815260200180602001828103825283818151815260200191508051906020019080838360005b8381101561033657808201518184015260208101905061031b565b50505050905090810190601f1680156103635780820380516001836020036101000a031916815260200191505b50945050505050602060405180830381600087803b15801561038457600080fd5b505af1158015610398573d6000803e3d6000fd5b505050506040513d60208110156103ae57600080fd5b81019080805190602001909291905050505060006103e08584306000808a815260200190815260200160002054610432565b905061040860016000808881526020019081526020016000205461049690919063ffffffff16565b60008087815260200190815260200160002081905550610428858261051e565b9150509392505050565b600084848484604051602001808581526020018481526020018373ffffffffffffffffffffffffffffffffffffffff1681526020018281526020019450505050506040516020818303038152906040528051906020012060001c9050949350505050565b600080828401905083811015610514576040517f08c379a000000000000000000000000000000000000000000000000000000000815260040180806020018281038252601b8152602001807f536166654d6174683a206164646974696f6e206f766572666c6f77000000000081525060200191505060405180910390fd5b8091505092915050565b6000828260405160200180838152602001828152602001925050506040516020818303038152906040528051906020012090509291505056fea2646970667358221220f40f26dc50412f0cfa312fd1dcfcc8a6ce808e4ca262e39c640d019616ea13ed64736f6c634300060c0033",
  "immutableReferences": {
    "222": [
      {
        "length": 32,
        "start": 289
      },
      {
        "length": 32,
        "start": 577
      }
    ],
    "224": [
      {
        "length": 32,
        "start": 333
      },
      {
        "length": 32,
        "start": 637
      }
    ]
  },
  "source": "// SPDX-License-Identifier: MIT\npragma solidity ^0.6.12;\n\nimport \"@chainlink/contracts/src/v0.6/VRFConsumerBase.sol\";\n\ncontract RandomNumberConsumer is VRFConsumerBase {\n    \n    bytes32 internal keyHash;\n    uint256 internal fee;\n    uint256 public randomResult;\n    \n    /**\n     * Constructor inherits VRFConsumerBase\n     * \n     * Network: Kovan\n     * Chainlink VRF Coordinator address: 0xdD3782915140c8f3b190B5D67eAc6dc5760C46E9\n     * LINK token address:                0xa36085F69e2889c224210F603D836748e7dC0088\n     * Key Hash: 0x6c3699283bda56ad74f6b855546325b68d482e983852a7a82979cc4807b641f4\n     */\n    constructor(address _linkTokenAddress)\n        public\n        VRFConsumerBase(\n            0xdD3782915140c8f3b190B5D67eAc6dc5760C46E9, // VRF Coordinator\n            _linkTokenAddress  // LINK Token\n        )\n    {\n        keyHash = 0x6c3699283bda56ad74f6b855546325b68d482e983852a7a82979cc4807b641f4;\n        fee = 0.1 * 10 ** 18; // 0.1 LINK\n    }\n    \n    /** \n     * Requests randomness from a user-provided seed\n     */\n    function getRandomNumber(uint256 userProvidedSeed) public returns (bytes32 requestId) {\n        return requestRandomness(keyHash, fee, userProvidedSeed);\n    }\n\n    /** \n     * Requests the address of the Chainlink Token on this network \n     */\n    function getChainlinkToken() public view returns (address) {\n        return address(LINK);\n    }\n\n    /**\n     * Callback function used by VRF Coordinator\n     */\n    function fulfillRandomness(bytes32 /* requestId */, uint256 randomness) internal override {\n        randomResult = randomness;\n    }\n}\n",
  "sourcePath": "/home/lion/Desktop/Chainlink/NFT/contracts/RandomNumberConsumer.sol",
  "compiler": {
    "name": "solc",
    "version": "0.6.12+commit.27d51765.Emscripten.clang"
  },
  "schemaVersion": "3.3.4",
  "updatedAt": "2021-03-21T13:30:24.872Z",
  "devdoc": {
    "kind": "dev",
    "methods": {},
    "version": 1
  },
  "userdoc": {
    "kind": "user",
    "methods": {
      "constructor": "Constructor inherits VRFConsumerBase  Network: Kovan Chainlink VRF Coordinator address: 0xdD3782915140c8f3b190B5D67eAc6dc5760C46E9 LINK token address:                0xa36085F69e2889c224210F603D836748e7dC0088 Key Hash: 0x6c3699283bda56ad74f6b855546325b68d482e983852a7a82979cc4807b641f4",
      "getChainlinkToken()": {
        "notice": "Requests the address of the Chainlink Token on this network "
      },
      "getRandomNumber(uint256)": {
        "notice": "Requests randomness from a user-provided seed"
      }
    },
    "version": 1
  }
}