{
  "contractName": "DungenToken",
  "abi": [
    {
      "inputs": [
        {
          "internalType": "string",
          "name": "name",
          "type": "string"
        },
        {
          "internalType": "string",
          "name": "symbol",
          "type": "string"
        }
      ],
      "stateMutability": "nonpayable",
      "type": "constructor"
    },
    {
      "anonymous": false,
      "inputs": [
        {
          "indexed": true,
          "internalType": "address",
          "name": "owner",
          "type": "address"
        },
        {
          "indexed": true,
          "internalType": "address",
          "name": "spender",
          "type": "address"
        },
        {
          "indexed": false,
          "internalType": "uint256",
          "name": "value",
          "type": "uint256"
        }
      ],
      "name": "Approval",
      "type": "event"
    },
    {
      "anonymous": false,
      "inputs": [
        {
          "indexed": true,
          "internalType": "address",
          "name": "from",
          "type": "address"
        },
        {
          "indexed": true,
          "internalType": "address",
          "name": "to",
          "type": "address"
        },
        {
          "indexed": false,
          "internalType": "uint256",
          "name": "value",
          "type": "uint256"
        }
      ],
      "name": "Transfer",
      "type": "event"
    },
    {
      "inputs": [
        {
          "internalType": "address",
          "name": "owner",
          "type": "address"
        },
        {
          "internalType": "address",
          "name": "spender",
          "type": "address"
        }
      ],
      "name": "allowance",
      "outputs": [
        {
          "internalType": "uint256",
          "name": "",
          "type": "uint256"
        }
      ],
      "stateMutability": "view",
      "type": "function",
      "constant": true
    },
    {
      "inputs": [
        {
          "internalType": "address",
          "name": "spender",
          "type": "address"
        },
        {
          "internalType": "uint256",
          "name": "amount",
          "type": "uint256"
        }
      ],
      "name": "approve",
      "outputs": [
        {
          "internalType": "bool",
          "name": "",
          "type": "bool"
        }
      ],
      "stateMutability": "nonpayable",
      "type": "function"
    },
    {
      "inputs": [
        {
          "internalType": "address",
          "name": "account",
          "type": "address"
        }
      ],
      "name": "balanceOf",
      "outputs": [
        {
          "internalType": "uint256",
          "name": "",
          "type": "uint256"
        }
      ],
      "stateMutability": "view",
      "type": "function",
      "constant": true
    },
    {
      "inputs": [],
      "name": "decimals",
      "outputs": [
        {
          "internalType": "uint8",
          "name": "",
          "type": "uint8"
        }
      ],
      "stateMutability": "view",
      "type": "function",
      "constant": true
    },
    {
      "inputs": [
        {
          "internalType": "address",
          "name": "spender",
          "type": "address"
        },
        {
          "internalType": "uint256",
          "name": "subtractedValue",
          "type": "uint256"
        }
      ],
      "name": "decreaseAllowance",
      "outputs": [
        {
          "internalType": "bool",
          "name": "",
          "type": "bool"
        }
      ],
      "stateMutability": "nonpayable",
      "type": "function"
    },
    {
      "inputs": [
        {
          "internalType": "address",
          "name": "spender",
          "type": "address"
        },
        {
          "internalType": "uint256",
          "name": "addedValue",
          "type": "uint256"
        }
      ],
      "name": "increaseAllowance",
      "outputs": [
        {
          "internalType": "bool",
          "name": "",
          "type": "bool"
        }
      ],
      "stateMutability": "nonpayable",
      "type": "function"
    },
    {
      "inputs": [],
      "name": "name",
      "outputs": [
        {
          "internalType": "string",
          "name": "",
          "type": "string"
        }
      ],
      "stateMutability": "view",
      "type": "function",
      "constant": true
    },
    {
      "inputs": [],
      "name": "symbol",
      "outputs": [
        {
          "internalType": "string",
          "name": "",
          "type": "string"
        }
      ],
      "stateMutability": "view",
      "type": "function",
      "constant": true
    },
    {
      "inputs": [],
      "name": "totalSupply",
      "outputs": [
        {
          "internalType": "uint256",
          "name": "",
          "type": "uint256"
        }
      ],
      "stateMutability": "view",
      "type": "function",
      "constant": true
    },
    {
      "inputs": [
        {
          "internalType": "address",
          "name": "recipient",
          "type": "address"
        },
        {
          "internalType": "uint256",
          "name": "amount",
          "type": "uint256"
        }
      ],
      "name": "transfer",
      "outputs": [
        {
          "internalType": "bool",
          "name": "",
          "type": "bool"
        }
      ],
      "stateMutability": "nonpayable",
      "type": "function"
    },
    {
      "inputs": [
        {
          "internalType": "address",
          "name": "sender",
          "type": "address"
        },
        {
          "internalType": "address",
          "name": "recipient",
          "type": "address"
        },
        {
          "internalType": "uint256",
          "name": "amount",
          "type": "uint256"
        }
      ],
      "name": "transferFrom",
      "outputs": [
        {
          "internalType": "bool",
          "name": "",
          "type": "bool"
        }
      ],
      "stateMutability": "nonpayable",
      "type": "function"
    },
    {
      "inputs": [],
      "name": "owner",
      "outputs": [
        {
          "internalType": "address",
          "name": "",
          "type": "address"
        }
      ],
      "stateMutability": "view",
      "type": "function",
      "constant": true
    },
    {
      "inputs": [],
      "name": "controller",
      "outputs": [
        {
          "internalType": "address",
          "name": "",
          "type": "address"
        }
      ],
      "stateMutability": "view",
      "type": "function",
      "constant": true
    },
    {
      "inputs": [
        {
          "internalType": "address",
          "name": "account",
          "type": "address"
        }
      ],
      "name": "setOwner",
      "outputs": [],
      "stateMutability": "nonpayable",
      "type": "function"
    },
    {
      "inputs": [
        {
          "internalType": "address",
          "name": "controller_",
          "type": "address"
        }
      ],
      "name": "setController",
      "outputs": [],
      "stateMutability": "nonpayable",
      "type": "function"
    },
    {
      "inputs": [
        {
          "internalType": "address",
          "name": "account",
          "type": "address"
        },
        {
          "internalType": "uint256",
          "name": "amount",
          "type": "uint256"
        }
      ],
      "name": "mint",
      "outputs": [],
      "stateMutability": "nonpayable",
      "type": "function"
    },
    {
      "inputs": [
        {
          "internalType": "address",
          "name": "account",
          "type": "address"
        },
        {
          "internalType": "uint256",
          "name": "amount",
          "type": "uint256"
        }
      ],
      "name": "burn",
      "outputs": [],
      "stateMutability": "nonpayable",
      "type": "function"
    },
    {
      "inputs": [
        {
          "internalType": "address",
          "name": "_to",
          "type": "address"
        }
      ],
      "name": "vote",
      "outputs": [],
      "stateMutability": "payable",
      "type": "function",
      "payable": true
    },
    {
      "inputs": [
        {
          "internalType": "address",
          "name": "account",
          "type": "address"
        },
        {
          "internalType": "uint256",
          "name": "amount",
          "type": "uint256"
        }
      ],
      "name": "reward",
      "outputs": [],
      "stateMutability": "nonpayable",
      "type": "function"
    }
  ],
  "bytecode": "0x60806040523480156200001157600080fd5b50604051620025e6380380620025e683398181016040528101906200003791906200037e565b81818160039080519060200190620000519291906200025c565b5080600490805190602001906200006a9291906200025c565b50505033600560006101000a81548173ffffffffffffffffffffffffffffffffffffffff021916908373ffffffffffffffffffffffffffffffffffffffff160217905550620000ea600560009054906101000a900473ffffffffffffffffffffffffffffffffffffffff16670de0b6b3a7640000620000f260201b60201c565b50506200065b565b600073ffffffffffffffffffffffffffffffffffffffff168273ffffffffffffffffffffffffffffffffffffffff16141562000165576040517f08c379a00000000000000000000000000000000000000000000000000000000081526004016200015c9062000444565b60405180910390fd5b62000179600083836200025760201b60201c565b80600260008282546200018d9190620004fb565b92505081905550806000808473ffffffffffffffffffffffffffffffffffffffff1673ffffffffffffffffffffffffffffffffffffffff1681526020019081526020016000206000828254620001e49190620004fb565b925050819055508173ffffffffffffffffffffffffffffffffffffffff16600073ffffffffffffffffffffffffffffffffffffffff167fddf252ad1be2c89b69c2b068fc378daa952ba7f163c4a11628f55a4df523b3ef836040516200024b919062000466565b60405180910390a35050565b505050565b8280546200026a9062000598565b90600052602060002090601f0160209004810192826200028e5760008555620002da565b82601f10620002a957805160ff1916838001178555620002da565b82800160010185558215620002da579182015b82811115620002d9578251825591602001919060010190620002bc565b5b509050620002e99190620002ed565b5090565b5b8082111562000308576000816000905550600101620002ee565b5090565b6000620003236200031d84620004b7565b62000483565b9050828152602081018484840111156200033c57600080fd5b6200034984828562000562565b509392505050565b600082601f8301126200036357600080fd5b8151620003758482602086016200030c565b91505092915050565b600080604083850312156200039257600080fd5b600083015167ffffffffffffffff811115620003ad57600080fd5b620003bb8582860162000351565b925050602083015167ffffffffffffffff811115620003d957600080fd5b620003e78582860162000351565b9150509250929050565b600062000400601f83620004ea565b91507f45524332303a206d696e7420746f20746865207a65726f2061646472657373006000830152602082019050919050565b6200043e8162000558565b82525050565b600060208201905081810360008301526200045f81620003f1565b9050919050565b60006020820190506200047d600083018462000433565b92915050565b6000604051905081810181811067ffffffffffffffff82111715620004ad57620004ac6200062c565b5b8060405250919050565b600067ffffffffffffffff821115620004d557620004d46200062c565b5b601f19601f8301169050602081019050919050565b600082825260208201905092915050565b6000620005088262000558565b9150620005158362000558565b9250827fffffffffffffffffffffffffffffffffffffffffffffffffffffffffffffffff038211156200054d576200054c620005ce565b5b828201905092915050565b6000819050919050565b60005b838110156200058257808201518184015260208101905062000565565b8381111562000592576000848401525b50505050565b60006002820490506001821680620005b157607f821691505b60208210811415620005c857620005c7620005fd565b5b50919050565b7f4e487b7100000000000000000000000000000000000000000000000000000000600052601160045260246000fd5b7f4e487b7100000000000000000000000000000000000000000000000000000000600052602260045260246000fd5b7f4e487b7100000000000000000000000000000000000000000000000000000000600052604160045260246000fd5b611f7b806200066b6000396000f3fe6080604052600436106101145760003560e01c80636dd7d8ea116100a05780639dc29fac116100645780639dc29fac146103a4578063a457c2d7146103cd578063a9059cbb1461040a578063dd62ed3e14610447578063f77c47911461048457610114565b80636dd7d8ea146102cc57806370a08231146102e85780638da5cb5b1461032557806392eefe9b1461035057806395d89b411461037957610114565b806321670f22116100e757806321670f22146101d557806323b872dd146101fe578063313ce5671461023b578063395093511461026657806340c10f19146102a357610114565b806306fdde0314610119578063095ea7b31461014457806313af40351461018157806318160ddd146101aa575b600080fd5b34801561012557600080fd5b5061012e6104af565b60405161013b9190611b70565b60405180910390f35b34801561015057600080fd5b5061016b60048036038101906101669190611633565b610541565b6040516101789190611b55565b60405180910390f35b34801561018d57600080fd5b506101a860048036038101906101a3919061157f565b61055f565b005b3480156101b657600080fd5b506101bf610618565b6040516101cc9190611d12565b60405180910390f35b3480156101e157600080fd5b506101fc60048036038101906101f79190611633565b610622565b005b34801561020a57600080fd5b50610225600480360381019061022091906115e4565b610630565b6040516102329190611b55565b60405180910390f35b34801561024757600080fd5b50610250610731565b60405161025d9190611d2d565b60405180910390f35b34801561027257600080fd5b5061028d60048036038101906102889190611633565b61073a565b60405161029a9190611b55565b60405180910390f35b3480156102af57600080fd5b506102ca60048036038101906102c59190611633565b6107e6565b005b6102e660048036038101906102e1919061157f565b610916565b005b3480156102f457600080fd5b5061030f600480360381019061030a919061157f565b610926565b60405161031c9190611d12565b60405180910390f35b34801561033157600080fd5b5061033a61096e565b6040516103479190611b3a565b60405180910390f35b34801561035c57600080fd5b506103776004803603810190610372919061157f565b610998565b005b34801561038557600080fd5b5061038e610a51565b60405161039b9190611b70565b60405180910390f35b3480156103b057600080fd5b506103cb60048036038101906103c69190611633565b610ae3565b005b3480156103d957600080fd5b506103f460048036038101906103ef9190611633565b610c13565b6040516104019190611b55565b60405180910390f35b34801561041657600080fd5b50610431600480360381019061042c9190611633565b610d07565b60405161043e9190611b55565b60405180910390f35b34801561045357600080fd5b5061046e600480360381019061046991906115a8565b610d25565b60405161047b9190611d12565b60405180910390f35b34801561049057600080fd5b50610499610dac565b6040516104a69190611b3a565b60405180910390f35b6060600380546104be90611e76565b80601f01602080910402602001604051908101604052809291908181526020018280546104ea90611e76565b80156105375780601f1061050c57610100808354040283529160200191610537565b820191906000526020600020905b81548152906001019060200180831161051a57829003601f168201915b5050505050905090565b600061055561054e610dd6565b8484610dde565b6001905092915050565b61056761096e565b73ffffffffffffffffffffffffffffffffffffffff163373ffffffffffffffffffffffffffffffffffffffff16146105d4576040517f08c379a00000000000000000000000000000000000000000000000000000000081526004016105cb90611c12565b60405180910390fd5b80600560006101000a81548173ffffffffffffffffffffffffffffffffffffffff021916908373ffffffffffffffffffffffffffffffffffffffff16021790555050565b6000600254905090565b61062c8282610fa9565b5050565b600061063d8484846110fd565b6000600160008673ffffffffffffffffffffffffffffffffffffffff1673ffffffffffffffffffffffffffffffffffffffff1681526020019081526020016000206000610688610dd6565b73ffffffffffffffffffffffffffffffffffffffff1673ffffffffffffffffffffffffffffffffffffffff16815260200190815260200160002054905082811015610708576040517f08c379a00000000000000000000000000000000000000000000000000000000081526004016106ff90611c32565b60405180910390fd5b61072585610714610dd6565b85846107209190611dba565b610dde565b60019150509392505050565b60006012905090565b60006107dc610747610dd6565b848460016000610755610dd6565b73ffffffffffffffffffffffffffffffffffffffff1673ffffffffffffffffffffffffffffffffffffffff16815260200190815260200160002060008873ffffffffffffffffffffffffffffffffffffffff1673ffffffffffffffffffffffffffffffffffffffff168152602001908152602001600020546107d79190611d64565b610dde565b6001905092915050565b600073ffffffffffffffffffffffffffffffffffffffff16600660009054906101000a900473ffffffffffffffffffffffffffffffffffffffff1673ffffffffffffffffffffffffffffffffffffffff161415610878576040517f08c379a000000000000000000000000000000000000000000000000000000000815260040161086f90611cb2565b60405180910390fd5b600660009054906101000a900473ffffffffffffffffffffffffffffffffffffffff1673ffffffffffffffffffffffffffffffffffffffff163373ffffffffffffffffffffffffffffffffffffffff1614610908576040517f08c379a00000000000000000000000000000000000000000000000000000000081526004016108ff90611c12565b60405180910390fd5b6109128282610fa9565b5050565b61092233826001610630565b5050565b60008060008373ffffffffffffffffffffffffffffffffffffffff1673ffffffffffffffffffffffffffffffffffffffff168152602001908152602001600020549050919050565b6000600560009054906101000a900473ffffffffffffffffffffffffffffffffffffffff16905090565b6109a061096e565b73ffffffffffffffffffffffffffffffffffffffff163373ffffffffffffffffffffffffffffffffffffffff1614610a0d576040517f08c379a0000000000000000000000000000000000000000000000000000000008152600401610a0490611c12565b60405180910390fd5b80600660006101000a81548173ffffffffffffffffffffffffffffffffffffffff021916908373ffffffffffffffffffffffffffffffffffffffff16021790555050565b606060048054610a6090611e76565b80601f0160208091040260200160405190810160405280929190818152602001828054610a8c90611e76565b8015610ad95780601f10610aae57610100808354040283529160200191610ad9565b820191906000526020600020905b815481529060010190602001808311610abc57829003601f168201915b5050505050905090565b600073ffffffffffffffffffffffffffffffffffffffff16600660009054906101000a900473ffffffffffffffffffffffffffffffffffffffff1673ffffffffffffffffffffffffffffffffffffffff161415610b75576040517f08c379a0000000000000000000000000000000000000000000000000000000008152600401610b6c90611cb2565b60405180910390fd5b600660009054906101000a900473ffffffffffffffffffffffffffffffffffffffff1673ffffffffffffffffffffffffffffffffffffffff163373ffffffffffffffffffffffffffffffffffffffff1614610c05576040517f08c379a0000000000000000000000000000000000000000000000000000000008152600401610bfc90611c12565b60405180910390fd5b610c0f828261137c565b5050565b60008060016000610c22610dd6565b73ffffffffffffffffffffffffffffffffffffffff1673ffffffffffffffffffffffffffffffffffffffff16815260200190815260200160002060008573ffffffffffffffffffffffffffffffffffffffff1673ffffffffffffffffffffffffffffffffffffffff16815260200190815260200160002054905082811015610cdf576040517f08c379a0000000000000000000000000000000000000000000000000000000008152600401610cd690611cd2565b60405180910390fd5b610cfc610cea610dd6565b858584610cf79190611dba565b610dde565b600191505092915050565b6000610d1b610d14610dd6565b84846110fd565b6001905092915050565b6000600160008473ffffffffffffffffffffffffffffffffffffffff1673ffffffffffffffffffffffffffffffffffffffff16815260200190815260200160002060008373ffffffffffffffffffffffffffffffffffffffff1673ffffffffffffffffffffffffffffffffffffffff16815260200190815260200160002054905092915050565b6000600660009054906101000a900473ffffffffffffffffffffffffffffffffffffffff16905090565b600033905090565b600073ffffffffffffffffffffffffffffffffffffffff168373ffffffffffffffffffffffffffffffffffffffff161415610e4e576040517f08c379a0000000000000000000000000000000000000000000000000000000008152600401610e4590611c92565b60405180910390fd5b600073ffffffffffffffffffffffffffffffffffffffff168273ffffffffffffffffffffffffffffffffffffffff161415610ebe576040517f08c379a0000000000000000000000000000000000000000000000000000000008152600401610eb590611bd2565b60405180910390fd5b80600160008573ffffffffffffffffffffffffffffffffffffffff1673ffffffffffffffffffffffffffffffffffffffff16815260200190815260200160002060008473ffffffffffffffffffffffffffffffffffffffff1673ffffffffffffffffffffffffffffffffffffffff168152602001908152602001600020819055508173ffffffffffffffffffffffffffffffffffffffff168373ffffffffffffffffffffffffffffffffffffffff167f8c5be1e5ebec7d5bd14f71427d1e84f3dd0314c0f7b2291e5b200ac8c7c3b92583604051610f9c9190611d12565b60405180910390a3505050565b600073ffffffffffffffffffffffffffffffffffffffff168273ffffffffffffffffffffffffffffffffffffffff161415611019576040517f08c379a000000000000000000000000000000000000000000000000000000000815260040161101090611cf2565b60405180910390fd5b61102560008383611550565b80600260008282546110379190611d64565b92505081905550806000808473ffffffffffffffffffffffffffffffffffffffff1673ffffffffffffffffffffffffffffffffffffffff168152602001908152602001600020600082825461108c9190611d64565b925050819055508173ffffffffffffffffffffffffffffffffffffffff16600073ffffffffffffffffffffffffffffffffffffffff167fddf252ad1be2c89b69c2b068fc378daa952ba7f163c4a11628f55a4df523b3ef836040516110f19190611d12565b60405180910390a35050565b600073ffffffffffffffffffffffffffffffffffffffff168373ffffffffffffffffffffffffffffffffffffffff16141561116d576040517f08c379a000000000000000000000000000000000000000000000000000000000815260040161116490611c72565b60405180910390fd5b600073ffffffffffffffffffffffffffffffffffffffff168273ffffffffffffffffffffffffffffffffffffffff1614156111dd576040517f08c379a00000000000000000000000000000000000000000000000000000000081526004016111d490611b92565b60405180910390fd5b6111e8838383611550565b60008060008573ffffffffffffffffffffffffffffffffffffffff1673ffffffffffffffffffffffffffffffffffffffff1681526020019081526020016000205490508181101561126e576040517f08c379a000000000000000000000000000000000000000000000000000000000815260040161126590611bf2565b60405180910390fd5b818161127a9190611dba565b6000808673ffffffffffffffffffffffffffffffffffffffff1673ffffffffffffffffffffffffffffffffffffffff16815260200190815260200160002081905550816000808573ffffffffffffffffffffffffffffffffffffffff1673ffffffffffffffffffffffffffffffffffffffff168152602001908152602001600020600082825461130a9190611d64565b925050819055508273ffffffffffffffffffffffffffffffffffffffff168473ffffffffffffffffffffffffffffffffffffffff167fddf252ad1be2c89b69c2b068fc378daa952ba7f163c4a11628f55a4df523b3ef8460405161136e9190611d12565b60405180910390a350505050565b600073ffffffffffffffffffffffffffffffffffffffff168273ffffffffffffffffffffffffffffffffffffffff1614156113ec576040517f08c379a00000000000000000000000000000000000000000000000000000000081526004016113e390611c52565b60405180910390fd5b6113f882600083611550565b60008060008473ffffffffffffffffffffffffffffffffffffffff1673ffffffffffffffffffffffffffffffffffffffff1681526020019081526020016000205490508181101561147e576040517f08c379a000000000000000000000000000000000000000000000000000000000815260040161147590611bb2565b60405180910390fd5b818161148a9190611dba565b6000808573ffffffffffffffffffffffffffffffffffffffff1673ffffffffffffffffffffffffffffffffffffffff1681526020019081526020016000208190555081600260008282546114de9190611dba565b92505081905550600073ffffffffffffffffffffffffffffffffffffffff168373ffffffffffffffffffffffffffffffffffffffff167fddf252ad1be2c89b69c2b068fc378daa952ba7f163c4a11628f55a4df523b3ef846040516115439190611d12565b60405180910390a3505050565b505050565b60008135905061156481611f17565b92915050565b60008135905061157981611f2e565b92915050565b60006020828403121561159157600080fd5b600061159f84828501611555565b91505092915050565b600080604083850312156115bb57600080fd5b60006115c985828601611555565b92505060206115da85828601611555565b9150509250929050565b6000806000606084860312156115f957600080fd5b600061160786828701611555565b935050602061161886828701611555565b92505060406116298682870161156a565b9150509250925092565b6000806040838503121561164657600080fd5b600061165485828601611555565b92505060206116658582860161156a565b9150509250929050565b61167881611dee565b82525050565b61168781611e00565b82525050565b600061169882611d48565b6116a28185611d53565b93506116b2818560208601611e43565b6116bb81611f06565b840191505092915050565b60006116d3602383611d53565b91507f45524332303a207472616e7366657220746f20746865207a65726f206164647260008301527f65737300000000000000000000000000000000000000000000000000000000006020830152604082019050919050565b6000611739602283611d53565b91507f45524332303a206275726e20616d6f756e7420657863656564732062616c616e60008301527f63650000000000000000000000000000000000000000000000000000000000006020830152604082019050919050565b600061179f602283611d53565b91507f45524332303a20617070726f766520746f20746865207a65726f20616464726560008301527f73730000000000000000000000000000000000000000000000000000000000006020830152604082019050919050565b6000611805602683611d53565b91507f45524332303a207472616e7366657220616d6f756e742065786365656473206260008301527f616c616e636500000000000000000000000000000000000000000000000000006020830152604082019050919050565b600061186b601583611d53565b91507f44756e67656e436f696e3a20464f5242494444454e00000000000000000000006000830152602082019050919050565b60006118ab602883611d53565b91507f45524332303a207472616e7366657220616d6f756e742065786365656473206160008301527f6c6c6f77616e63650000000000000000000000000000000000000000000000006020830152604082019050919050565b6000611911602183611d53565b91507f45524332303a206275726e2066726f6d20746865207a65726f2061646472657360008301527f73000000000000000000000000000000000000000000000000000000000000006020830152604082019050919050565b6000611977602583611d53565b91507f45524332303a207472616e736665722066726f6d20746865207a65726f20616460008301527f64726573730000000000000000000000000000000000000000000000000000006020830152604082019050919050565b60006119dd602483611d53565b91507f45524332303a20617070726f76652066726f6d20746865207a65726f2061646460008301527f72657373000000000000000000000000000000000000000000000000000000006020830152604082019050919050565b6000611a43601583611d53565b91507f44756e67656e436f696e3a206f206164647265737300000000000000000000006000830152602082019050919050565b6000611a83602583611d53565b91507f45524332303a2064656372656173656420616c6c6f77616e63652062656c6f7760008301527f207a65726f0000000000000000000000000000000000000000000000000000006020830152604082019050919050565b6000611ae9601f83611d53565b91507f45524332303a206d696e7420746f20746865207a65726f2061646472657373006000830152602082019050919050565b611b2581611e2c565b82525050565b611b3481611e36565b82525050565b6000602082019050611b4f600083018461166f565b92915050565b6000602082019050611b6a600083018461167e565b92915050565b60006020820190508181036000830152611b8a818461168d565b905092915050565b60006020820190508181036000830152611bab816116c6565b9050919050565b60006020820190508181036000830152611bcb8161172c565b9050919050565b60006020820190508181036000830152611beb81611792565b9050919050565b60006020820190508181036000830152611c0b816117f8565b9050919050565b60006020820190508181036000830152611c2b8161185e565b9050919050565b60006020820190508181036000830152611c4b8161189e565b9050919050565b60006020820190508181036000830152611c6b81611904565b9050919050565b60006020820190508181036000830152611c8b8161196a565b9050919050565b60006020820190508181036000830152611cab816119d0565b9050919050565b60006020820190508181036000830152611ccb81611a36565b9050919050565b60006020820190508181036000830152611ceb81611a76565b9050919050565b60006020820190508181036000830152611d0b81611adc565b9050919050565b6000602082019050611d276000830184611b1c565b92915050565b6000602082019050611d426000830184611b2b565b92915050565b600081519050919050565b600082825260208201905092915050565b6000611d6f82611e2c565b9150611d7a83611e2c565b9250827fffffffffffffffffffffffffffffffffffffffffffffffffffffffffffffffff03821115611daf57611dae611ea8565b5b828201905092915050565b6000611dc582611e2c565b9150611dd083611e2c565b925082821015611de357611de2611ea8565b5b828203905092915050565b6000611df982611e0c565b9050919050565b60008115159050919050565b600073ffffffffffffffffffffffffffffffffffffffff82169050919050565b6000819050919050565b600060ff82169050919050565b60005b83811015611e61578082015181840152602081019050611e46565b83811115611e70576000848401525b50505050565b60006002820490506001821680611e8e57607f821691505b60208210811415611ea257611ea1611ed7565b5b50919050565b7f4e487b7100000000000000000000000000000000000000000000000000000000600052601160045260246000fd5b7f4e487b7100000000000000000000000000000000000000000000000000000000600052602260045260246000fd5b6000601f19601f8301169050919050565b611f2081611dee565b8114611f2b57600080fd5b50565b611f3781611e2c565b8114611f4257600080fd5b5056fea26469706673582212203bcc2c8b638625e1fe8ae3e44303f653e3479037abbee868e1ed54a0fd00bbd664736f6c63430008000033",
  "immutableReferences": {},
  "source": "// SPDX-License-Identifier: MIT\npragma solidity ^0.8.0;\n\nimport \"@openzeppelin/contracts/token/ERC20/ERC20.sol\";\n\nimport \"../ICustomERC20.sol\";\n\ncontract DungenToken is ICustomERC20, ERC20 {\n    /**\n     * @dev State varaibels.\n     */\n\n    address private _owner;\n    address private _controller;\n\n    /**\n     * @notice Modifiers.\n     */\n\n    modifier controllerIsSet() {\n        require(_controller != address(0), \"DungenCoin: o address\");\n        _;\n    }\n\n    modifier onlyController() {\n        require(msg.sender == _controller, \"DungenCoin: FORBIDDEN\");\n        _;\n    }\n\n    modifier onlyOwner() {\n        require(msg.sender == owner(), \"DungenCoin: FORBIDDEN\");\n        _;\n    }\n\n    /**\n     * @notice Constructor.\n     */\n\n    constructor(string memory name, string memory symbol)\n        public\n        ERC20(name, symbol)\n    {\n        _owner = msg.sender;\n\n        // Genesis supply.\n        _mint(_owner, 10**18);\n    }\n\n    /**\n     * @notice View.\n     */\n\n    function owner() public view returns (address) {\n        return _owner;\n    }\n\n    function controller() public view returns (address) {\n        return _controller;\n    }\n\n    /**\n     * @notice Setters.\n     */\n\n    function setOwner(address account) public onlyOwner {\n        _owner = account;\n    }\n\n    function setController(address controller_) public onlyOwner {\n        _controller = controller_;\n    }\n\n    /**\n     * @notice Mutations.\n     */\n\n    function mint(address account, uint256 amount)\n        public\n        override\n        controllerIsSet\n        onlyController\n    {\n        _mint(account, amount);\n    }\n\n    function burn(address account, uint256 amount)\n        public\n        override\n        controllerIsSet\n        onlyController\n    {\n        _burn(account, amount);\n    }\n\n    function vote(address _to)\n    public \n    payable{\n        transferFrom(msg.sender, _to, 1);\n    }\n\n    function reward(address account, uint256 amount)\n        public\n    {\n        _mint(account, amount);\n    }\n}\n",
  "sourcePath": "/home/develioper/Desktop/Blockchain/fil/RPG-Solidity-Game/blockchain/src/contracts/token/DungenToken.sol",
  "compiler": {
    "name": "solc",
    "version": "0.8.0+commit.c7dfd78e.Emscripten.clang"
  },
  "schemaVersion": "3.3.4",
  "updatedAt": "2021-05-29T21:58:16.982Z",
  "networkType": "ethereum",
  "devdoc": {
    "kind": "dev",
    "methods": {
      "allowance(address,address)": {
        "details": "See {IERC20-allowance}."
      },
      "approve(address,uint256)": {
        "details": "See {IERC20-approve}. Requirements: - `spender` cannot be the zero address."
      },
      "balanceOf(address)": {
        "details": "See {IERC20-balanceOf}."
      },
      "decimals()": {
        "details": "Returns the number of decimals used to get its user representation. For example, if `decimals` equals `2`, a balance of `505` tokens should be displayed to a user as `5,05` (`505 / 10 ** 2`). Tokens usually opt for a value of 18, imitating the relationship between Ether and Wei. This is the value {ERC20} uses, unless this function is overridden; NOTE: This information is only used for _display_ purposes: it in no way affects any of the arithmetic of the contract, including {IERC20-balanceOf} and {IERC20-transfer}."
      },
      "decreaseAllowance(address,uint256)": {
        "details": "Atomically decreases the allowance granted to `spender` by the caller. This is an alternative to {approve} that can be used as a mitigation for problems described in {IERC20-approve}. Emits an {Approval} event indicating the updated allowance. Requirements: - `spender` cannot be the zero address. - `spender` must have allowance for the caller of at least `subtractedValue`."
      },
      "increaseAllowance(address,uint256)": {
        "details": "Atomically increases the allowance granted to `spender` by the caller. This is an alternative to {approve} that can be used as a mitigation for problems described in {IERC20-approve}. Emits an {Approval} event indicating the updated allowance. Requirements: - `spender` cannot be the zero address."
      },
      "name()": {
        "details": "Returns the name of the token."
      },
      "symbol()": {
        "details": "Returns the symbol of the token, usually a shorter version of the name."
      },
      "totalSupply()": {
        "details": "See {IERC20-totalSupply}."
      },
      "transfer(address,uint256)": {
        "details": "See {IERC20-transfer}. Requirements: - `recipient` cannot be the zero address. - the caller must have a balance of at least `amount`."
      },
      "transferFrom(address,address,uint256)": {
        "details": "See {IERC20-transferFrom}. Emits an {Approval} event indicating the updated allowance. This is not required by the EIP. See the note at the beginning of {ERC20}. Requirements: - `sender` and `recipient` cannot be the zero address. - `sender` must have a balance of at least `amount`. - the caller must have allowance for ``sender``'s tokens of at least `amount`."
      }
    },
    "stateVariables": {
      "_owner": {
        "details": "State varaibels."
      }
    },
    "version": 1
  },
  "userdoc": {
    "kind": "user",
    "methods": {
      "constructor": {
        "notice": "Constructor."
      },
      "mint(address,uint256)": {
        "notice": "Mutations."
      },
      "owner()": {
        "notice": "View."
      },
      "setOwner(address)": {
        "notice": "Setters."
      }
    },
    "version": 1
  }
}