{
  "contractName": "GameController",
  "abi": [
    {
      "inputs": [
        {
          "internalType": "contract ICustomERC20",
          "name": "coin_",
          "type": "address"
        },
        {
          "internalType": "contract IsChainlinkAggregatorV3",
          "name": "priceFeed_",
          "type": "address"
        }
      ],
      "stateMutability": "nonpayable",
      "type": "constructor"
    },
    {
      "inputs": [
        {
          "internalType": "uint256",
          "name": "price",
          "type": "uint256"
        },
        {
          "internalType": "uint8",
          "name": "precision",
          "type": "uint8"
        }
      ],
      "name": "getPriceInPrecision",
      "outputs": [
        {
          "internalType": "uint256",
          "name": "",
          "type": "uint256"
        }
      ],
      "stateMutability": "view",
      "type": "function"
    },
    {
      "inputs": [],
      "name": "getPrice",
      "outputs": [
        {
          "internalType": "uint256",
          "name": "",
          "type": "uint256"
        }
      ],
      "stateMutability": "view",
      "type": "function"
    },
    {
      "inputs": [],
      "name": "beginPlay",
      "outputs": [
        {
          "internalType": "bool",
          "name": "",
          "type": "bool"
        }
      ],
      "stateMutability": "nonpayable",
      "type": "function"
    },
    {
      "inputs": [],
      "name": "endPlay",
      "outputs": [
        {
          "internalType": "bool",
          "name": "",
          "type": "bool"
        }
      ],
      "stateMutability": "nonpayable",
      "type": "function"
    }
  ],
  "bytecode": "0x608060405234801561001057600080fd5b506040516107a43803806107a48339818101604052604081101561003357600080fd5b810190808051906020019092919080519060200190929190505050816000806101000a81548173ffffffffffffffffffffffffffffffffffffffff021916908373ffffffffffffffffffffffffffffffffffffffff16021790555080600160006101000a81548173ffffffffffffffffffffffffffffffffffffffff021916908373ffffffffffffffffffffffffffffffffffffffff16021790555050506106c4806100e06000396000f3fe608060405234801561001057600080fd5b506004361061004c5760003560e01c8063231dbb601461005157806363af5eb3146100a057806372c81132146100c057806398d5fdca146100e0575b600080fd5b61008a6004803603604081101561006757600080fd5b8101908080359060200190929190803560ff1690602001909291905050506100fe565b6040518082815260200191505060405180910390f35b6100a86101bf565b60405180821515815260200191505060405180910390f35b6100c86103b4565b60405180821515815260200191505060405180910390f35b6100e86105a9565b6040518082815260200191505060405180910390f35b6000600160009054906101000a900473ffffffffffffffffffffffffffffffffffffffff1673ffffffffffffffffffffffffffffffffffffffff1663313ce5676040518163ffffffff1660e01b815260040160206040518083038186803b15801561016857600080fd5b505afa15801561017c573d6000803e3d6000fd5b505050506040513d602081101561019257600080fd5b810190808051906020019092919050505060ff16600a0a8260ff168402816101b657fe5b04905092915050565b6000806101ca6105a9565b90508060008054906101000a900473ffffffffffffffffffffffffffffffffffffffff1673ffffffffffffffffffffffffffffffffffffffff166370a08231336040518263ffffffff1660e01b8152600401808273ffffffffffffffffffffffffffffffffffffffff16815260200191505060206040518083038186803b15801561025457600080fd5b505afa158015610268573d6000803e3d6000fd5b505050506040513d602081101561027e57600080fd5b81019080805190602001909291905050501015610303576040517f08c379a000000000000000000000000000000000000000000000000000000000815260040180806020018281038252601e8152602001807f436f6e74726f6c6c65723a2062616c616e6365203c207265717569726564000081525060200191505060405180910390fd5b60008054906101000a900473ffffffffffffffffffffffffffffffffffffffff1673ffffffffffffffffffffffffffffffffffffffff16639dc29fac33836040518363ffffffff1660e01b8152600401808373ffffffffffffffffffffffffffffffffffffffff16815260200182815260200192505050600060405180830381600087803b15801561039457600080fd5b505af11580156103a8573d6000803e3d6000fd5b50505050600191505090565b6000806103bf6105a9565b90508060008054906101000a900473ffffffffffffffffffffffffffffffffffffffff1673ffffffffffffffffffffffffffffffffffffffff166370a08231336040518263ffffffff1660e01b8152600401808273ffffffffffffffffffffffffffffffffffffffff16815260200191505060206040518083038186803b15801561044957600080fd5b505afa15801561045d573d6000803e3d6000fd5b505050506040513d602081101561047357600080fd5b810190808051906020019092919050505010156104f8576040517f08c379a000000000000000000000000000000000000000000000000000000000815260040180806020018281038252601e8152602001807f436f6e74726f6c6c65723a2062616c616e6365203c207265717569726564000081525060200191505060405180910390fd5b60008054906101000a900473ffffffffffffffffffffffffffffffffffffffff1673ffffffffffffffffffffffffffffffffffffffff166340c10f1933836040518363ffffffff1660e01b8152600401808373ffffffffffffffffffffffffffffffffffffffff16815260200182815260200192505050600060405180830381600087803b15801561058957600080fd5b505af115801561059d573d6000803e3d6000fd5b50505050600191505090565b600080600160009054906101000a900473ffffffffffffffffffffffffffffffffffffffff1673ffffffffffffffffffffffffffffffffffffffff1663feaf968c6040518163ffffffff1660e01b815260040160a06040518083038186803b15801561061457600080fd5b505afa158015610628573d6000803e3d6000fd5b505050506040513d60a081101561063e57600080fd5b8101908080519060200190929190805190602001909291908051906020019092919080519060200190929190805190602001909291905050505050509150506106888160126100fe565b9150509056fea2646970667358221220826f011827bca85875c2e9456d8cf786d446534552cfb772ec0af9e773f984e264736f6c634300060c0033",
  "immutableReferences": {},
  "source": "// SPDX-License-Identifier: MIT\n\npragma solidity ^0.6.12;\n\nimport \"./ICustomERC20.sol\";\nimport \"./IChainlinkAggregatorV3.sol\";\n\ncontract GameController {\n    ICustomERC20 coin;\n    IsChainlinkAggregatorV3 priceFeed;\n\n    constructor(ICustomERC20 coin_, IsChainlinkAggregatorV3 priceFeed_) public {\n        coin = coin_;\n        priceFeed = priceFeed_;\n    }\n\n    function getPriceInPrecision(uint256 price, uint8 precision)\n        public\n        view\n        returns (uint256)\n    {\n        return (price * (precision)) / (10**uint256(priceFeed.decimals()));\n    }\n\n    function getPrice() public view returns (uint256) {\n        (, int256 answer, , , ) = priceFeed.latestRoundData();\n\n        return getPriceInPrecision(uint256(answer), 18);\n    }\n\n    function beginPlay() public returns (bool) {\n        uint256 price = getPrice();\n\n        require(\n            coin.balanceOf(msg.sender) >= price,\n            \"Controller: balance < required\"\n        );\n\n        coin.burn(msg.sender, price);\n\n        return true;\n    }\n\n    function endPlay() public returns (bool) {\n        uint256 price = getPrice();\n\n        require(\n            coin.balanceOf(msg.sender) >= price,\n            \"Controller: balance < required\"\n        );\n\n        coin.mint(msg.sender, price);\n\n        return true;\n    }\n}\n",
  "sourcePath": "/Users/ya98/playground/RPG-Solidity-Game/blockchain/src/contracts/Controller.sol",
  "compiler": {
    "name": "solc",
    "version": "0.6.12+commit.27d51765.Emscripten.clang"
  },
  "schemaVersion": "3.3.4",
  "updatedAt": "2021-04-11T12:55:47.325Z",
  "devdoc": {
    "kind": "dev",
    "methods": {},
    "version": 1
  },
  "userdoc": {
    "kind": "user",
    "methods": {},
    "version": 1
  }
}