{
  "contractName": "GameController",
  "abi": [
    {
      "inputs": [
        {
          "internalType": "contract ICustomERC20",
          "name": "coin_",
          "type": "address"
        },
        {
          "internalType": "contract IsChainlinkAggregatorV3",
          "name": "priceFeed_",
          "type": "address"
        }
      ],
      "stateMutability": "nonpayable",
      "type": "constructor"
    },
    {
      "inputs": [
        {
          "internalType": "uint256",
          "name": "price",
          "type": "uint256"
        },
        {
          "internalType": "uint8",
          "name": "precision",
          "type": "uint8"
        }
      ],
      "name": "getPriceInPrecision",
      "outputs": [
        {
          "internalType": "uint256",
          "name": "",
          "type": "uint256"
        }
      ],
      "stateMutability": "view",
      "type": "function"
    },
    {
      "inputs": [],
      "name": "getPrice",
      "outputs": [
        {
          "internalType": "uint256",
          "name": "",
          "type": "uint256"
        }
      ],
      "stateMutability": "view",
      "type": "function"
    },
    {
      "inputs": [],
      "name": "beginPlay",
      "outputs": [
        {
          "internalType": "bool",
          "name": "",
          "type": "bool"
        }
      ],
      "stateMutability": "nonpayable",
      "type": "function"
    },
    {
      "inputs": [],
      "name": "endPlay",
      "outputs": [
        {
          "internalType": "bool",
          "name": "",
          "type": "bool"
        }
      ],
      "stateMutability": "nonpayable",
      "type": "function"
    }
  ],
  "bytecode": "0x60806040523480156200001157600080fd5b5060405162000d5938038062000d598339818101604052810190620000379190620000ee565b816000806101000a81548173ffffffffffffffffffffffffffffffffffffffff021916908373ffffffffffffffffffffffffffffffffffffffff16021790555080600160006101000a81548173ffffffffffffffffffffffffffffffffffffffff021916908373ffffffffffffffffffffffffffffffffffffffff1602179055505050620001bf565b600081519050620000d1816200018b565b92915050565b600081519050620000e881620001a5565b92915050565b600080604083850312156200010257600080fd5b60006200011285828601620000c0565b92505060206200012585828601620000d7565b9150509250929050565b60006200013c826200016b565b9050919050565b600062000150826200012f565b9050919050565b600062000164826200012f565b9050919050565b600073ffffffffffffffffffffffffffffffffffffffff82169050919050565b620001968162000143565b8114620001a257600080fd5b50565b620001b08162000157565b8114620001bc57600080fd5b50565b610b8a80620001cf6000396000f3fe608060405234801561001057600080fd5b506004361061004c5760003560e01c8063231dbb601461005157806363af5eb31461008157806372c811321461009f57806398d5fdca146100bd575b600080fd5b61006b60048036038101906100669190610628565b6100db565b60405161007891906107f0565b60405180910390f35b6100896101ad565b60405161009691906107b5565b60405180910390f35b6100a761033a565b6040516100b491906107b5565b60405180910390f35b6100c56104c7565b6040516100d291906107f0565b60405180910390f35b6000600160009054906101000a900473ffffffffffffffffffffffffffffffffffffffff1673ffffffffffffffffffffffffffffffffffffffff1663313ce5676040518163ffffffff1660e01b815260040160206040518083038186803b15801561014557600080fd5b505afa158015610159573d6000803e3d6000fd5b505050506040513d601f19601f8201168201806040525081019061017d91906106db565b60ff16600a61018c91906108a0565b8260ff168461019b91906109be565b6101a5919061081c565b905092915050565b6000806101b86104c7565b90508060008054906101000a900473ffffffffffffffffffffffffffffffffffffffff1673ffffffffffffffffffffffffffffffffffffffff166370a08231336040518263ffffffff1660e01b81526004016102149190610771565b60206040518083038186803b15801561022c57600080fd5b505afa158015610240573d6000803e3d6000fd5b505050506040513d601f19601f8201168201806040525081019061026491906105ff565b10156102a5576040517f08c379a000000000000000000000000000000000000000000000000000000000815260040161029c906107d0565b60405180910390fd5b60008054906101000a900473ffffffffffffffffffffffffffffffffffffffff1673ffffffffffffffffffffffffffffffffffffffff16639dc29fac33836040518363ffffffff1660e01b815260040161030092919061078c565b600060405180830381600087803b15801561031a57600080fd5b505af115801561032e573d6000803e3d6000fd5b50505050600191505090565b6000806103456104c7565b90508060008054906101000a900473ffffffffffffffffffffffffffffffffffffffff1673ffffffffffffffffffffffffffffffffffffffff166370a08231336040518263ffffffff1660e01b81526004016103a19190610771565b60206040518083038186803b1580156103b957600080fd5b505afa1580156103cd573d6000803e3d6000fd5b505050506040513d601f19601f820116820180604052508101906103f191906105ff565b1015610432576040517f08c379a0000000000000000000000000000000000000000000000000000000008152600401610429906107d0565b60405180910390fd5b60008054906101000a900473ffffffffffffffffffffffffffffffffffffffff1673ffffffffffffffffffffffffffffffffffffffff166340c10f1933836040518363ffffffff1660e01b815260040161048d92919061078c565b600060405180830381600087803b1580156104a757600080fd5b505af11580156104bb573d6000803e3d6000fd5b50505050600191505090565b600080600160009054906101000a900473ffffffffffffffffffffffffffffffffffffffff1673ffffffffffffffffffffffffffffffffffffffff1663feaf968c6040518163ffffffff1660e01b815260040160a06040518083038186803b15801561053257600080fd5b505afa158015610546573d6000803e3d6000fd5b505050506040513d601f19601f8201168201806040525081019061056a9190610664565b50505091505061057b8160126100db565b91505090565b60008151905061059081610af8565b92915050565b6000813590506105a581610b0f565b92915050565b6000815190506105ba81610b0f565b92915050565b6000813590506105cf81610b26565b92915050565b6000815190506105e481610b3d565b92915050565b6000815190506105f981610b26565b92915050565b60006020828403121561061157600080fd5b600061061f848285016105ab565b91505092915050565b6000806040838503121561063b57600080fd5b600061064985828601610596565b925050602061065a858286016105c0565b9150509250929050565b600080600080600060a0868803121561067c57600080fd5b600061068a888289016105d5565b955050602061069b88828901610581565b94505060406106ac888289016105ab565b93505060606106bd888289016105ab565b92505060806106ce888289016105d5565b9150509295509295909350565b6000602082840312156106ed57600080fd5b60006106fb848285016105ea565b91505092915050565b61070d81610a18565b82525050565b61071c81610a2a565b82525050565b600061072f601e8361080b565b91507f436f6e74726f6c6c65723a2062616c616e6365203c20726571756972656400006000830152602082019050919050565b61076b81610a60565b82525050565b60006020820190506107866000830184610704565b92915050565b60006040820190506107a16000830185610704565b6107ae6020830184610762565b9392505050565b60006020820190506107ca6000830184610713565b92915050565b600060208201905081810360008301526107e981610722565b9050919050565b60006020820190506108056000830184610762565b92915050565b600082825260208201905092915050565b600061082782610a60565b915061083283610a60565b92508261084257610841610abc565b5b828204905092915050565b6000808291508390505b60018511156108975780860481111561087357610872610a8d565b5b60018516156108825780820291505b808102905061089085610aeb565b9450610857565b94509492505050565b60006108ab82610a60565b91506108b683610a60565b92506108e37fffffffffffffffffffffffffffffffffffffffffffffffffffffffffffffffff84846108eb565b905092915050565b6000826108fb57600190506109b7565b8161090957600090506109b7565b816001811461091f576002811461092957610958565b60019150506109b7565b60ff84111561093b5761093a610a8d565b5b8360020a91508482111561095257610951610a8d565b5b506109b7565b5060208310610133831016604e8410600b841016171561098d5782820a90508381111561098857610987610a8d565b5b6109b7565b61099a848484600161084d565b925090508184048111156109b1576109b0610a8d565b5b81810290505b9392505050565b60006109c982610a60565b91506109d483610a60565b9250817fffffffffffffffffffffffffffffffffffffffffffffffffffffffffffffffff0483118215151615610a0d57610a0c610a8d565b5b828202905092915050565b6000610a2382610a40565b9050919050565b60008115159050919050565b6000819050919050565b600073ffffffffffffffffffffffffffffffffffffffff82169050919050565b6000819050919050565b600060ff82169050919050565b600069ffffffffffffffffffff82169050919050565b7f4e487b7100000000000000000000000000000000000000000000000000000000600052601160045260246000fd5b7f4e487b7100000000000000000000000000000000000000000000000000000000600052601260045260246000fd5b60008160011c9050919050565b610b0181610a36565b8114610b0c57600080fd5b50565b610b1881610a60565b8114610b2357600080fd5b50565b610b2f81610a6a565b8114610b3a57600080fd5b50565b610b4681610a77565b8114610b5157600080fd5b5056fea264697066735822122024ec6b68a8ac25522b2fda161e75a231870bb3ff0bef6c935fe824b5214509e964736f6c63430008000033",
  "immutableReferences": {},
  "source": "// SPDX-License-Identifier: MIT\n\npragma solidity ^0.8.0;\n\nimport \"./ICustomERC20.sol\";\nimport \"./IChainlinkAggregatorV3.sol\";\n\ncontract GameController {\n    ICustomERC20 coin;\n    IsChainlinkAggregatorV3 priceFeed;\n\n    constructor(ICustomERC20 coin_, IsChainlinkAggregatorV3 priceFeed_) public {\n        coin = coin_;\n        priceFeed = priceFeed_;\n    }\n\n    function getPriceInPrecision(uint256 price, uint8 precision)\n        public\n        view\n        returns (uint256)\n    {\n        return (price * (precision)) / (10**uint256(priceFeed.decimals()));\n    }\n\n    function getPrice() public view returns (uint256) {\n        (, int256 answer, , , ) = priceFeed.latestRoundData();\n\n        return getPriceInPrecision(uint256(answer), 18);\n    }\n\n    function beginPlay() public returns (bool) {\n        uint256 price = getPrice();\n\n        require(\n            coin.balanceOf(msg.sender) >= price,\n            \"Controller: balance < required\"\n        );\n\n        coin.burn(msg.sender, price);\n\n        return true;\n    }\n\n    function endPlay() public returns (bool) {\n        uint256 price = getPrice();\n\n        require(\n            coin.balanceOf(msg.sender) >= price,\n            \"Controller: balance < required\"\n        );\n\n        coin.mint(msg.sender, price);\n\n        return true;\n    }\n}\n",
  "sourcePath": "/Users/newsgate/Work/RPG-Solidity-Game/blockchain/src/contracts/Controller.sol",
  "compiler": {
    "name": "solc",
    "version": "0.8.0+commit.c7dfd78e.Emscripten.clang"
  },
  "schemaVersion": "3.3.3",
  "updatedAt": "2021-05-25T14:30:28.512Z",
  "devdoc": {
    "kind": "dev",
    "methods": {},
    "version": 1
  },
  "userdoc": {
    "kind": "user",
    "methods": {},
    "version": 1
  }
}