{
  "contractName": "GladiatorCharacter",
  "abi": [
    {
      "inputs": [
        {
          "internalType": "address",
          "name": "_VRFCoordinator",
          "type": "address"
        },
        {
          "internalType": "address",
          "name": "_LinkToken",
          "type": "address"
        },
        {
          "internalType": "bytes32",
          "name": "_keyHash",
          "type": "bytes32"
        }
      ],
      "stateMutability": "nonpayable",
      "type": "constructor"
    },
    {
      "anonymous": false,
      "inputs": [
        {
          "indexed": true,
          "internalType": "address",
          "name": "owner",
          "type": "address"
        },
        {
          "indexed": true,
          "internalType": "address",
          "name": "approved",
          "type": "address"
        },
        {
          "indexed": true,
          "internalType": "uint256",
          "name": "tokenId",
          "type": "uint256"
        }
      ],
      "name": "Approval",
      "type": "event"
    },
    {
      "anonymous": false,
      "inputs": [
        {
          "indexed": true,
          "internalType": "address",
          "name": "owner",
          "type": "address"
        },
        {
          "indexed": true,
          "internalType": "address",
          "name": "operator",
          "type": "address"
        },
        {
          "indexed": false,
          "internalType": "bool",
          "name": "approved",
          "type": "bool"
        }
      ],
      "name": "ApprovalForAll",
      "type": "event"
    },
    {
      "anonymous": false,
      "inputs": [
        {
          "indexed": true,
          "internalType": "address",
          "name": "from",
          "type": "address"
        },
        {
          "indexed": true,
          "internalType": "address",
          "name": "to",
          "type": "address"
        },
        {
          "indexed": true,
          "internalType": "uint256",
          "name": "tokenId",
          "type": "uint256"
        }
      ],
      "name": "Transfer",
      "type": "event"
    },
    {
      "inputs": [],
      "name": "Linktoken",
      "outputs": [
        {
          "internalType": "address",
          "name": "",
          "type": "address"
        }
      ],
      "stateMutability": "view",
      "type": "function",
      "constant": true
    },
    {
      "inputs": [],
      "name": "VRFCoordinator",
      "outputs": [
        {
          "internalType": "address",
          "name": "",
          "type": "address"
        }
      ],
      "stateMutability": "view",
      "type": "function",
      "constant": true
    },
    {
      "inputs": [
        {
          "internalType": "address",
          "name": "to",
          "type": "address"
        },
        {
          "internalType": "uint256",
          "name": "tokenId",
          "type": "uint256"
        }
      ],
      "name": "approve",
      "outputs": [],
      "stateMutability": "nonpayable",
      "type": "function"
    },
    {
      "inputs": [
        {
          "internalType": "address",
          "name": "owner",
          "type": "address"
        }
      ],
      "name": "balanceOf",
      "outputs": [
        {
          "internalType": "uint256",
          "name": "",
          "type": "uint256"
        }
      ],
      "stateMutability": "view",
      "type": "function",
      "constant": true
    },
    {
      "inputs": [],
      "name": "baseURI",
      "outputs": [
        {
          "internalType": "string",
          "name": "",
          "type": "string"
        }
      ],
      "stateMutability": "view",
      "type": "function",
      "constant": true
    },
    {
      "inputs": [
        {
          "internalType": "uint256",
          "name": "",
          "type": "uint256"
        }
      ],
      "name": "characters",
      "outputs": [
        {
          "internalType": "uint256",
          "name": "strength",
          "type": "uint256"
        },
        {
          "internalType": "uint256",
          "name": "speed",
          "type": "uint256"
        },
        {
          "internalType": "uint256",
          "name": "stamina",
          "type": "uint256"
        },
        {
          "internalType": "string",
          "name": "name",
          "type": "string"
        }
      ],
      "stateMutability": "view",
      "type": "function",
      "constant": true
    },
    {
      "inputs": [
        {
          "internalType": "uint256",
          "name": "tokenId",
          "type": "uint256"
        }
      ],
      "name": "getApproved",
      "outputs": [
        {
          "internalType": "address",
          "name": "",
          "type": "address"
        }
      ],
      "stateMutability": "view",
      "type": "function",
      "constant": true
    },
    {
      "inputs": [
        {
          "internalType": "address",
          "name": "owner",
          "type": "address"
        },
        {
          "internalType": "address",
          "name": "operator",
          "type": "address"
        }
      ],
      "name": "isApprovedForAll",
      "outputs": [
        {
          "internalType": "bool",
          "name": "",
          "type": "bool"
        }
      ],
      "stateMutability": "view",
      "type": "function",
      "constant": true
    },
    {
      "inputs": [],
      "name": "keyHash",
      "outputs": [
        {
          "internalType": "bytes32",
          "name": "",
          "type": "bytes32"
        }
      ],
      "stateMutability": "view",
      "type": "function",
      "constant": true
    },
    {
      "inputs": [],
      "name": "name",
      "outputs": [
        {
          "internalType": "string",
          "name": "",
          "type": "string"
        }
      ],
      "stateMutability": "view",
      "type": "function",
      "constant": true
    },
    {
      "inputs": [
        {
          "internalType": "uint256",
          "name": "tokenId",
          "type": "uint256"
        }
      ],
      "name": "ownerOf",
      "outputs": [
        {
          "internalType": "address",
          "name": "",
          "type": "address"
        }
      ],
      "stateMutability": "view",
      "type": "function",
      "constant": true
    },
    {
      "inputs": [],
      "name": "randomResult",
      "outputs": [
        {
          "internalType": "uint256",
          "name": "",
          "type": "uint256"
        }
      ],
      "stateMutability": "view",
      "type": "function",
      "constant": true
    },
    {
      "inputs": [
        {
          "internalType": "bytes32",
          "name": "requestId",
          "type": "bytes32"
        },
        {
          "internalType": "uint256",
          "name": "randomness",
          "type": "uint256"
        }
      ],
      "name": "rawFulfillRandomness",
      "outputs": [],
      "stateMutability": "nonpayable",
      "type": "function"
    },
    {
      "inputs": [
        {
          "internalType": "address",
          "name": "from",
          "type": "address"
        },
        {
          "internalType": "address",
          "name": "to",
          "type": "address"
        },
        {
          "internalType": "uint256",
          "name": "tokenId",
          "type": "uint256"
        }
      ],
      "name": "safeTransferFrom",
      "outputs": [],
      "stateMutability": "nonpayable",
      "type": "function"
    },
    {
      "inputs": [
        {
          "internalType": "address",
          "name": "from",
          "type": "address"
        },
        {
          "internalType": "address",
          "name": "to",
          "type": "address"
        },
        {
          "internalType": "uint256",
          "name": "tokenId",
          "type": "uint256"
        },
        {
          "internalType": "bytes",
          "name": "_data",
          "type": "bytes"
        }
      ],
      "name": "safeTransferFrom",
      "outputs": [],
      "stateMutability": "nonpayable",
      "type": "function"
    },
    {
      "inputs": [
        {
          "internalType": "address",
          "name": "operator",
          "type": "address"
        },
        {
          "internalType": "bool",
          "name": "approved",
          "type": "bool"
        }
      ],
      "name": "setApprovalForAll",
      "outputs": [],
      "stateMutability": "nonpayable",
      "type": "function"
    },
    {
      "inputs": [
        {
          "internalType": "bytes4",
          "name": "interfaceId",
          "type": "bytes4"
        }
      ],
      "name": "supportsInterface",
      "outputs": [
        {
          "internalType": "bool",
          "name": "",
          "type": "bool"
        }
      ],
      "stateMutability": "view",
      "type": "function",
      "constant": true
    },
    {
      "inputs": [],
      "name": "symbol",
      "outputs": [
        {
          "internalType": "string",
          "name": "",
          "type": "string"
        }
      ],
      "stateMutability": "view",
      "type": "function",
      "constant": true
    },
    {
      "inputs": [
        {
          "internalType": "uint256",
          "name": "index",
          "type": "uint256"
        }
      ],
      "name": "tokenByIndex",
      "outputs": [
        {
          "internalType": "uint256",
          "name": "",
          "type": "uint256"
        }
      ],
      "stateMutability": "view",
      "type": "function",
      "constant": true
    },
    {
      "inputs": [
        {
          "internalType": "address",
          "name": "owner",
          "type": "address"
        },
        {
          "internalType": "uint256",
          "name": "index",
          "type": "uint256"
        }
      ],
      "name": "tokenOfOwnerByIndex",
      "outputs": [
        {
          "internalType": "uint256",
          "name": "",
          "type": "uint256"
        }
      ],
      "stateMutability": "view",
      "type": "function",
      "constant": true
    },
    {
      "inputs": [
        {
          "internalType": "uint256",
          "name": "tokenId",
          "type": "uint256"
        }
      ],
      "name": "tokenURI",
      "outputs": [
        {
          "internalType": "string",
          "name": "",
          "type": "string"
        }
      ],
      "stateMutability": "view",
      "type": "function",
      "constant": true
    },
    {
      "inputs": [],
      "name": "totalSupply",
      "outputs": [
        {
          "internalType": "uint256",
          "name": "",
          "type": "uint256"
        }
      ],
      "stateMutability": "view",
      "type": "function",
      "constant": true
    },
    {
      "inputs": [
        {
          "internalType": "address",
          "name": "from",
          "type": "address"
        },
        {
          "internalType": "address",
          "name": "to",
          "type": "address"
        },
        {
          "internalType": "uint256",
          "name": "tokenId",
          "type": "uint256"
        }
      ],
      "name": "transferFrom",
      "outputs": [],
      "stateMutability": "nonpayable",
      "type": "function"
    },
    {
      "inputs": [
        {
          "internalType": "uint256",
          "name": "userProvidedSeed",
          "type": "uint256"
        },
        {
          "internalType": "string",
          "name": "name",
          "type": "string"
        }
      ],
      "name": "requestNewRandomCharacter",
      "outputs": [
        {
          "internalType": "bytes32",
          "name": "",
          "type": "bytes32"
        }
      ],
      "stateMutability": "nonpayable",
      "type": "function"
    },
    {
      "inputs": [
        {
          "internalType": "uint256",
          "name": "tokenId",
          "type": "uint256"
        },
        {
          "internalType": "string",
          "name": "_tokenURI",
          "type": "string"
        }
      ],
      "name": "setTokenURI",
      "outputs": [],
      "stateMutability": "nonpayable",
      "type": "function"
    }
  ],
  "bytecode": "0x60c06040523480156200001157600080fd5b5060405162003ad338038062003ad3833981810160405260608110156200003757600080fd5b8101908080519060200190929190805190602001909291908051906020019092919050505082826040518060400160405280601281526020017f476c61646961746f7243686172616374657200000000000000000000000000008152506040518060400160405280600481526020017f4744435400000000000000000000000000000000000000000000000000000000815250620000e26301ffc9a760e01b6200026f60201b60201c565b8160069080519060200190620000fa92919062000378565b5080600790805190602001906200011392919062000378565b506200012c6380ac58cd60e01b6200026f60201b60201c565b62000144635b5e139f60e01b6200026f60201b60201c565b6200015c63780e9d6360e01b6200026f60201b60201c565b50508173ffffffffffffffffffffffffffffffffffffffff1660a08173ffffffffffffffffffffffffffffffffffffffff1660601b815250508073ffffffffffffffffffffffffffffffffffffffff1660808173ffffffffffffffffffffffffffffffffffffffff1660601b81525050505082600c60006101000a81548173ffffffffffffffffffffffffffffffffffffffff021916908373ffffffffffffffffffffffffffffffffffffffff16021790555080600b8190555081600f60006101000a81548173ffffffffffffffffffffffffffffffffffffffff021916908373ffffffffffffffffffffffffffffffffffffffff16021790555067016345785d8a0000600d819055505050506200041e565b63ffffffff60e01b817bffffffffffffffffffffffffffffffffffffffffffffffffffffffff191614156200030c576040517f08c379a000000000000000000000000000000000000000000000000000000000815260040180806020018281038252601c8152602001807f4552433136353a20696e76616c696420696e746572666163652069640000000081525060200191505060405180910390fd5b6001600080837bffffffffffffffffffffffffffffffffffffffffffffffffffffffff19167bffffffffffffffffffffffffffffffffffffffffffffffffffffffff1916815260200190815260200160002060006101000a81548160ff02191690831515021790555050565b828054600181600116156101000203166002900490600052602060002090601f016020900481019282601f10620003bb57805160ff1916838001178555620003ec565b82800160010185558215620003ec579182015b82811115620003eb578251825591602001919060010190620003ce565b5b509050620003fb9190620003ff565b5090565b5b808211156200041a57600081600090555060010162000400565b5090565b60805160601c60a05160601c6136866200044d600039806113fa5280611b3c525080611b0052506136866000f3fe608060405234801561001057600080fd5b50600436106101735760003560e01c806342842e0e116100de57806370a0823111610097578063a22cb46511610071578063a22cb4651461098e578063b88d4fde146109de578063c87b56dd14610ae3578063e985e9c514610b8a57610173565b806370a082311461087b57806394985ddd146108d357806395d89b411461090b57610173565b806342842e0e146106165780634810bc59146106845780634f6ccce71461074057806361728f39146107825780636352211e146107a05780636c0360eb146107f857610173565b8063162094c411610130578063162094c41461041157806318160ddd146104d657806323b872dd146104f45780632f745c591461056257806333b60863146105c457806342619f66146105f857610173565b806301ffc9a71461017857806306396dbe146101db57806306fdde03146102b457806307ed17e314610337578063081812fc1461036b578063095ea7b3146103c3575b600080fd5b6101c36004803603602081101561018e57600080fd5b8101908080357bffffffffffffffffffffffffffffffffffffffffffffffffffffffff19169060200190929190505050610c04565b60405180821515815260200191505060405180910390f35b61029e600480360360408110156101f157600080fd5b81019080803590602001909291908035906020019064010000000081111561021857600080fd5b82018360208201111561022a57600080fd5b8035906020019184600183028401116401000000008311171561024c57600080fd5b91908080601f016020809104026020016040519081016040528093929190818152602001838380828437600081840152601f19601f820116905080830192505050505050509192919290505050610c6b565b6040518082815260200191505060405180910390f35b6102bc610d03565b6040518080602001828103825283818151815260200191508051906020019080838360005b838110156102fc5780820151818401526020810190506102e1565b50505050905090810190601f1680156103295780820380516001836020036101000a031916815260200191505b509250505060405180910390f35b61033f610da5565b604051808273ffffffffffffffffffffffffffffffffffffffff16815260200191505060405180910390f35b6103976004803603602081101561038157600080fd5b8101908080359060200190929190505050610dcb565b604051808273ffffffffffffffffffffffffffffffffffffffff16815260200191505060405180910390f35b61040f600480360360408110156103d957600080fd5b81019080803573ffffffffffffffffffffffffffffffffffffffff16906020019092919080359060200190929190505050610e66565b005b6104d46004803603604081101561042757600080fd5b81019080803590602001909291908035906020019064010000000081111561044e57600080fd5b82018360208201111561046057600080fd5b8035906020019184600183028401116401000000008311171561048257600080fd5b91908080601f016020809104026020016040519081016040528093929190818152602001838380828437600081840152601f19601f820116905080830192505050505050509192919290505050610faa565b005b6104de61101e565b6040518082815260200191505060405180910390f35b6105606004803603606081101561050a57600080fd5b81019080803573ffffffffffffffffffffffffffffffffffffffff169060200190929190803573ffffffffffffffffffffffffffffffffffffffff1690602001909291908035906020019092919050505061102f565b005b6105ae6004803603604081101561057857600080fd5b81019080803573ffffffffffffffffffffffffffffffffffffffff169060200190929190803590602001909291905050506110a5565b6040518082815260200191505060405180910390f35b6105cc611100565b604051808273ffffffffffffffffffffffffffffffffffffffff16815260200191505060405180910390f35b610600611126565b6040518082815260200191505060405180910390f35b6106826004803603606081101561062c57600080fd5b81019080803573ffffffffffffffffffffffffffffffffffffffff169060200190929190803573ffffffffffffffffffffffffffffffffffffffff1690602001909291908035906020019092919050505061112c565b005b6106b06004803603602081101561069a57600080fd5b810190808035906020019092919050505061114c565b6040518085815260200184815260200183815260200180602001828103825283818151815260200191508051906020019080838360005b838110156107025780820151818401526020810190506106e7565b50505050905090810190601f16801561072f5780820380516001836020036101000a031916815260200191505b509550505050505060405180910390f35b61076c6004803603602081101561075657600080fd5b8101908080359060200190929190505050611221565b6040518082815260200191505060405180910390f35b61078a611244565b6040518082815260200191505060405180910390f35b6107cc600480360360208110156107b657600080fd5b810190808035906020019092919050505061124a565b604051808273ffffffffffffffffffffffffffffffffffffffff16815260200191505060405180910390f35b610800611281565b6040518080602001828103825283818151815260200191508051906020019080838360005b83811015610840578082015181840152602081019050610825565b50505050905090810190601f16801561086d5780820380516001836020036101000a031916815260200191505b509250505060405180910390f35b6108bd6004803603602081101561089157600080fd5b81019080803573ffffffffffffffffffffffffffffffffffffffff169060200190929190505050611323565b6040518082815260200191505060405180910390f35b610909600480360360408110156108e957600080fd5b8101908080359060200190929190803590602001909291905050506113f8565b005b6109136114c7565b6040518080602001828103825283818151815260200191508051906020019080838360005b83811015610953578082015181840152602081019050610938565b50505050905090810190601f1680156109805780820380516001836020036101000a031916815260200191505b509250505060405180910390f35b6109dc600480360360408110156109a457600080fd5b81019080803573ffffffffffffffffffffffffffffffffffffffff169060200190929190803515159060200190929190505050611569565b005b610ae1600480360360808110156109f457600080fd5b81019080803573ffffffffffffffffffffffffffffffffffffffff169060200190929190803573ffffffffffffffffffffffffffffffffffffffff1690602001909291908035906020019092919080359060200190640100000000811115610a5b57600080fd5b820183602082011115610a6d57600080fd5b80359060200191846001830284011164010000000083111715610a8f57600080fd5b91908080601f016020809104026020016040519081016040528093929190818152602001838380828437600081840152601f19601f82011690508083019250505050505050919291929050505061171f565b005b610b0f60048036036020811015610af957600080fd5b8101908080359060200190929190505050611797565b6040518080602001828103825283818151815260200191508051906020019080838360005b83811015610b4f578082015181840152602081019050610b34565b50505050905090810190601f168015610b7c5780820380516001836020036101000a031916815260200191505b509250505060405180910390f35b610bec60048036036040811015610ba057600080fd5b81019080803573ffffffffffffffffffffffffffffffffffffffff169060200190929190803573ffffffffffffffffffffffffffffffffffffffff169060200190929190505050611a68565b60405180821515815260200191505060405180910390f35b6000806000837bffffffffffffffffffffffffffffffffffffffffffffffffffffffff19167bffffffffffffffffffffffffffffffffffffffffffffffffffffffff1916815260200190815260200160002060009054906101000a900460ff169050919050565b600080610c7d600b54600d5486611afc565b905082601160008381526020019081526020016000209080519060200190610ca692919061333a565b50336012600083815260200190815260200160002060006101000a81548173ffffffffffffffffffffffffffffffffffffffff021916908373ffffffffffffffffffffffffffffffffffffffff1602179055508091505092915050565b606060068054600181600116156101000203166002900480601f016020809104026020016040519081016040528092919081815260200182805460018160011615610100020316600290048015610d9b5780601f10610d7057610100808354040283529160200191610d9b565b820191906000526020600020905b815481529060010190602001808311610d7e57829003601f168201915b5050505050905090565b600f60009054906101000a900473ffffffffffffffffffffffffffffffffffffffff1681565b6000610dd682611cf4565b610e2b576040517f08c379a000000000000000000000000000000000000000000000000000000000815260040180806020018281038252602c81526020018061354f602c913960400191505060405180910390fd5b6004600083815260200190815260200160002060009054906101000a900473ffffffffffffffffffffffffffffffffffffffff169050919050565b6000610e718261124a565b90508073ffffffffffffffffffffffffffffffffffffffff168373ffffffffffffffffffffffffffffffffffffffff161415610ef8576040517f08c379a00000000000000000000000000000000000000000000000000000000081526004018080602001828103825260218152602001806135ff6021913960400191505060405180910390fd5b8073ffffffffffffffffffffffffffffffffffffffff16610f17611d11565b73ffffffffffffffffffffffffffffffffffffffff161480610f465750610f4581610f40611d11565b611a68565b5b610f9b576040517f08c379a00000000000000000000000000000000000000000000000000000000081526004018080602001828103825260388152602001806134a26038913960400191505060405180910390fd5b610fa58383611d19565b505050565b610fbb610fb5611d11565b83611dd2565b611010576040517f08c379a00000000000000000000000000000000000000000000000000000000081526004018080602001828103825260318152602001806136206031913960400191505060405180910390fd5b61101a8282611ec6565b5050565b600061102a6002611f50565b905090565b61104061103a611d11565b82611dd2565b611095576040517f08c379a00000000000000000000000000000000000000000000000000000000081526004018080602001828103825260318152602001806136206031913960400191505060405180910390fd5b6110a0838383611f65565b505050565b60006110f882600160008673ffffffffffffffffffffffffffffffffffffffff1673ffffffffffffffffffffffffffffffffffffffff1681526020019081526020016000206121a890919063ffffffff16565b905092915050565b600c60009054906101000a900473ffffffffffffffffffffffffffffffffffffffff1681565b600e5481565b6111478383836040518060200160405280600081525061171f565b505050565b6010818154811061115957fe5b9060005260206000209060040201600091509050806000015490806001015490806002015490806003018054600181600116156101000203166002900480601f0160208091040260200160405190810160405280929190818152602001828054600181600116156101000203166002900480156112175780601f106111ec57610100808354040283529160200191611217565b820191906000526020600020905b8154815290600101906020018083116111fa57829003601f168201915b5050505050905084565b6000806112388360026121c290919063ffffffff16565b50905080915050919050565b600b5481565b600061127a826040518060600160405280602981526020016135046029913960026121ee9092919063ffffffff16565b9050919050565b606060098054600181600116156101000203166002900480601f0160208091040260200160405190810160405280929190818152602001828054600181600116156101000203166002900480156113195780601f106112ee57610100808354040283529160200191611319565b820191906000526020600020905b8154815290600101906020018083116112fc57829003601f168201915b5050505050905090565b60008073ffffffffffffffffffffffffffffffffffffffff168273ffffffffffffffffffffffffffffffffffffffff1614156113aa576040517f08c379a000000000000000000000000000000000000000000000000000000000815260040180806020018281038252602a8152602001806134da602a913960400191505060405180910390fd5b6113f1600160008473ffffffffffffffffffffffffffffffffffffffff1673ffffffffffffffffffffffffffffffffffffffff16815260200190815260200160002061220d565b9050919050565b7f000000000000000000000000000000000000000000000000000000000000000073ffffffffffffffffffffffffffffffffffffffff163373ffffffffffffffffffffffffffffffffffffffff16146114b9576040517f08c379a000000000000000000000000000000000000000000000000000000000815260040180806020018281038252601f8152602001807f4f6e6c7920565246436f6f7264696e61746f722063616e2066756c66696c6c0081525060200191505060405180910390fd5b6114c38282612222565b5050565b606060078054600181600116156101000203166002900480601f01602080910402602001604051908101604052809291908181526020018280546001816001161561010002031660029004801561155f5780601f106115345761010080835404028352916020019161155f565b820191906000526020600020905b81548152906001019060200180831161154257829003601f168201915b5050505050905090565b611571611d11565b73ffffffffffffffffffffffffffffffffffffffff168273ffffffffffffffffffffffffffffffffffffffff161415611612576040517f08c379a00000000000000000000000000000000000000000000000000000000081526004018080602001828103825260198152602001807f4552433732313a20617070726f766520746f2063616c6c65720000000000000081525060200191505060405180910390fd5b806005600061161f611d11565b73ffffffffffffffffffffffffffffffffffffffff1673ffffffffffffffffffffffffffffffffffffffff16815260200190815260200160002060008473ffffffffffffffffffffffffffffffffffffffff1673ffffffffffffffffffffffffffffffffffffffff16815260200190815260200160002060006101000a81548160ff0219169083151502179055508173ffffffffffffffffffffffffffffffffffffffff166116cc611d11565b73ffffffffffffffffffffffffffffffffffffffff167f17307eab39ab6107e8899845ad3d59bd9653f200f220920489ca2b5937696c318360405180821515815260200191505060405180910390a35050565b61173061172a611d11565b83611dd2565b611785576040517f08c379a00000000000000000000000000000000000000000000000000000000081526004018080602001828103825260318152602001806136206031913960400191505060405180910390fd5b611791848484846123ea565b50505050565b60606117a282611cf4565b6117f7576040517f08c379a000000000000000000000000000000000000000000000000000000000815260040180806020018281038252602f8152602001806135d0602f913960400191505060405180910390fd5b6060600860008481526020019081526020016000208054600181600116156101000203166002900480601f0160208091040260200160405190810160405280929190818152602001828054600181600116156101000203166002900480156118a05780601f10611875576101008083540402835291602001916118a0565b820191906000526020600020905b81548152906001019060200180831161188357829003601f168201915b5050505050905060606118b1611281565b90506000815114156118c7578192505050611a63565b6000825111156119985780826040516020018083805190602001908083835b6020831061190957805182526020820191506020810190506020830392506118e6565b6001836020036101000a03801982511681845116808217855250505050505090500182805190602001908083835b6020831061195a5780518252602082019150602081019050602083039250611937565b6001836020036101000a0380198251168184511680821785525050505050509050019250505060405160208183030381529060405292505050611a63565b806119a28561245c565b6040516020018083805190602001908083835b602083106119d857805182526020820191506020810190506020830392506119b5565b6001836020036101000a03801982511681845116808217855250505050505090500182805190602001908083835b60208310611a295780518252602082019150602081019050602083039250611a06565b6001836020036101000a03801982511681845116808217855250505050505090500192505050604051602081830303815290604052925050505b919050565b6000600560008473ffffffffffffffffffffffffffffffffffffffff1673ffffffffffffffffffffffffffffffffffffffff16815260200190815260200160002060008373ffffffffffffffffffffffffffffffffffffffff1673ffffffffffffffffffffffffffffffffffffffff16815260200190815260200160002060009054906101000a900460ff16905092915050565b60007f000000000000000000000000000000000000000000000000000000000000000073ffffffffffffffffffffffffffffffffffffffff16634000aea07f000000000000000000000000000000000000000000000000000000000000000085878660405160200180838152602001828152602001925050506040516020818303038152906040526040518463ffffffff1660e01b8152600401808473ffffffffffffffffffffffffffffffffffffffff16815260200183815260200180602001828103825283818151815260200191508051906020019080838360005b83811015611bf5578082015181840152602081019050611bda565b50505050905090810190601f168015611c225780820380516001836020036101000a031916815260200191505b50945050505050602060405180830381600087803b158015611c4357600080fd5b505af1158015611c57573d6000803e3d6000fd5b505050506040513d6020811015611c6d57600080fd5b8101908080519060200190929190505050506000611ca0858430600a60008a8152602001908152602001600020546125a3565b9050611cc96001600a60008881526020019081526020016000205461260790919063ffffffff16565b600a600087815260200190815260200160002081905550611cea858261268f565b9150509392505050565b6000611d0a8260026126c890919063ffffffff16565b9050919050565b600033905090565b816004600083815260200190815260200160002060006101000a81548173ffffffffffffffffffffffffffffffffffffffff021916908373ffffffffffffffffffffffffffffffffffffffff160217905550808273ffffffffffffffffffffffffffffffffffffffff16611d8c8361124a565b73ffffffffffffffffffffffffffffffffffffffff167f8c5be1e5ebec7d5bd14f71427d1e84f3dd0314c0f7b2291e5b200ac8c7c3b92560405160405180910390a45050565b6000611ddd82611cf4565b611e32576040517f08c379a000000000000000000000000000000000000000000000000000000000815260040180806020018281038252602c815260200180613476602c913960400191505060405180910390fd5b6000611e3d8361124a565b90508073ffffffffffffffffffffffffffffffffffffffff168473ffffffffffffffffffffffffffffffffffffffff161480611eac57508373ffffffffffffffffffffffffffffffffffffffff16611e9484610dcb565b73ffffffffffffffffffffffffffffffffffffffff16145b80611ebd5750611ebc8185611a68565b5b91505092915050565b611ecf82611cf4565b611f24576040517f08c379a000000000000000000000000000000000000000000000000000000000815260040180806020018281038252602c81526020018061357b602c913960400191505060405180910390fd5b80600860008481526020019081526020016000209080519060200190611f4b92919061333a565b505050565b6000611f5e826000016126e2565b9050919050565b8273ffffffffffffffffffffffffffffffffffffffff16611f858261124a565b73ffffffffffffffffffffffffffffffffffffffff1614611ff1576040517f08c379a00000000000000000000000000000000000000000000000000000000081526004018080602001828103825260298152602001806135a76029913960400191505060405180910390fd5b600073ffffffffffffffffffffffffffffffffffffffff168273ffffffffffffffffffffffffffffffffffffffff161415612077576040517f08c379a000000000000000000000000000000000000000000000000000000000815260040180806020018281038252602481526020018061342c6024913960400191505060405180910390fd5b6120828383836126f3565b61208d600082611d19565b6120de81600160008673ffffffffffffffffffffffffffffffffffffffff1673ffffffffffffffffffffffffffffffffffffffff1681526020019081526020016000206126f890919063ffffffff16565b5061213081600160008573ffffffffffffffffffffffffffffffffffffffff1673ffffffffffffffffffffffffffffffffffffffff16815260200190815260200160002061271290919063ffffffff16565b506121478183600261272c9092919063ffffffff16565b50808273ffffffffffffffffffffffffffffffffffffffff168473ffffffffffffffffffffffffffffffffffffffff167fddf252ad1be2c89b69c2b068fc378daa952ba7f163c4a11628f55a4df523b3ef60405160405180910390a4505050565b60006121b78360000183612761565b60001c905092915050565b6000806000806121d586600001866127e4565b915091508160001c8160001c9350935050509250929050565b6000612201846000018460001b8461287d565b60001c90509392505050565b600061221b82600001612973565b9050919050565b6000601080549050905060006064838161223857fe5b069050600060646103e8858161224a57fe5b068161225257fe5b0490506000612710620f4240868161226657fe5b068161226e57fe5b04905060106040518060800160405280858152602001848152602001838152602001601160008a81526020019081526020016000208054600181600116156101000203166002900480601f0160208091040260200160405190810160405280929190818152602001828054600181600116156101000203166002900480156123375780601f1061230c57610100808354040283529160200191612337565b820191906000526020600020905b81548152906001019060200180831161231a57829003601f168201915b5050505050815250908060018154018082558091505060019003906000526020600020906004020160009091909190915060008201518160000155602082015181600101556040820151816002015560608201518160030190805190602001906123a292919061333a565b5050506123e26012600088815260200190815260200160002060009054906101000a900473ffffffffffffffffffffffffffffffffffffffff1685612984565b505050505050565b6123f5848484611f65565b612401848484846129a2565b612456576040517f08c379a00000000000000000000000000000000000000000000000000000000081526004018080602001828103825260328152602001806133fa6032913960400191505060405180910390fd5b50505050565b606060008214156124a4576040518060400160405280600181526020017f3000000000000000000000000000000000000000000000000000000000000000815250905061259e565b600082905060005b600082146124ce578080600101915050600a82816124c657fe5b0491506124ac565b60608167ffffffffffffffff811180156124e757600080fd5b506040519080825280601f01601f19166020018201604052801561251a5781602001600182028036833780820191505090505b50905060006001830390508593505b6000841461259657600a848161253b57fe5b0660300160f81b8282806001900393508151811061255557fe5b60200101907effffffffffffffffffffffffffffffffffffffffffffffffffffffffffffff1916908160001a905350600a848161258e57fe5b049350612529565b819450505050505b919050565b600084848484604051602001808581526020018481526020018373ffffffffffffffffffffffffffffffffffffffff1681526020018281526020019450505050506040516020818303038152906040528051906020012060001c9050949350505050565b600080828401905083811015612685576040517f08c379a000000000000000000000000000000000000000000000000000000000815260040180806020018281038252601b8152602001807f536166654d6174683a206164646974696f6e206f766572666c6f77000000000081525060200191505060405180910390fd5b8091505092915050565b60008282604051602001808381526020018281526020019250505060405160208183030381529060405280519060200120905092915050565b60006126da836000018360001b612bbb565b905092915050565b600081600001805490509050919050565b505050565b600061270a836000018360001b612bde565b905092915050565b6000612724836000018360001b612cc6565b905092915050565b6000612758846000018460001b8473ffffffffffffffffffffffffffffffffffffffff1660001b612d36565b90509392505050565b6000818360000180549050116127c2576040517f08c379a00000000000000000000000000000000000000000000000000000000081526004018080602001828103825260228152602001806133d86022913960400191505060405180910390fd5b8260000182815481106127d157fe5b9060005260206000200154905092915050565b60008082846000018054905011612846576040517f08c379a000000000000000000000000000000000000000000000000000000000815260040180806020018281038252602281526020018061352d6022913960400191505060405180910390fd5b600084600001848154811061285757fe5b906000526020600020906002020190508060000154816001015492509250509250929050565b60008084600101600085815260200190815260200160002054905060008114158390612944576040517f08c379a00000000000000000000000000000000000000000000000000000000081526004018080602001828103825283818151815260200191508051906020019080838360005b838110156129095780820151818401526020810190506128ee565b50505050905090810190601f1680156129365780820380516001836020036101000a031916815260200191505b509250505060405180910390fd5b5084600001600182038154811061295757fe5b9060005260206000209060020201600101549150509392505050565b600081600001805490509050919050565b61299e828260405180602001604052806000815250612e12565b5050565b60006129c38473ffffffffffffffffffffffffffffffffffffffff16612e83565b6129d05760019050612bb3565b6060612b3a63150b7a0260e01b6129e5611d11565b888787604051602401808573ffffffffffffffffffffffffffffffffffffffff1681526020018473ffffffffffffffffffffffffffffffffffffffff16815260200183815260200180602001828103825283818151815260200191508051906020019080838360005b83811015612a69578082015181840152602081019050612a4e565b50505050905090810190601f168015612a965780820380516001836020036101000a031916815260200191505b5095505050505050604051602081830303815290604052907bffffffffffffffffffffffffffffffffffffffffffffffffffffffff19166020820180517bffffffffffffffffffffffffffffffffffffffffffffffffffffffff83818316178352505050506040518060600160405280603281526020016133fa603291398773ffffffffffffffffffffffffffffffffffffffff16612e969092919063ffffffff16565b90506000818060200190516020811015612b5357600080fd5b8101908080519060200190929190505050905063150b7a0260e01b7bffffffffffffffffffffffffffffffffffffffffffffffffffffffff1916817bffffffffffffffffffffffffffffffffffffffffffffffffffffffff191614925050505b949350505050565b600080836001016000848152602001908152602001600020541415905092915050565b60008083600101600084815260200190815260200160002054905060008114612cba5760006001820390506000600186600001805490500390506000866000018281548110612c2957fe5b9060005260206000200154905080876000018481548110612c4657fe5b9060005260206000200181905550600183018760010160008381526020019081526020016000208190555086600001805480612c7e57fe5b60019003818190600052602060002001600090559055866001016000878152602001908152602001600020600090556001945050505050612cc0565b60009150505b92915050565b6000612cd28383612eae565b612d2b578260000182908060018154018082558091505060019003906000526020600020016000909190919091505582600001805490508360010160008481526020019081526020016000208190555060019050612d30565b600090505b92915050565b6000808460010160008581526020019081526020016000205490506000811415612ddd57846000016040518060400160405280868152602001858152509080600181540180825580915050600190039060005260206000209060020201600090919091909150600082015181600001556020820151816001015550508460000180549050856001016000868152602001908152602001600020819055506001915050612e0b565b82856000016001830381548110612df057fe5b90600052602060002090600202016001018190555060009150505b9392505050565b612e1c8383612ed1565b612e2960008484846129a2565b612e7e576040517f08c379a00000000000000000000000000000000000000000000000000000000081526004018080602001828103825260328152602001806133fa6032913960400191505060405180910390fd5b505050565b600080823b905060008111915050919050565b6060612ea584846000856130c5565b90509392505050565b600080836001016000848152602001908152602001600020541415905092915050565b600073ffffffffffffffffffffffffffffffffffffffff168273ffffffffffffffffffffffffffffffffffffffff161415612f74576040517f08c379a00000000000000000000000000000000000000000000000000000000081526004018080602001828103825260208152602001807f4552433732313a206d696e7420746f20746865207a65726f206164647265737381525060200191505060405180910390fd5b612f7d81611cf4565b15612ff0576040517f08c379a000000000000000000000000000000000000000000000000000000000815260040180806020018281038252601c8152602001807f4552433732313a20746f6b656e20616c7265616479206d696e7465640000000081525060200191505060405180910390fd5b612ffc600083836126f3565b61304d81600160008573ffffffffffffffffffffffffffffffffffffffff1673ffffffffffffffffffffffffffffffffffffffff16815260200190815260200160002061271290919063ffffffff16565b506130648183600261272c9092919063ffffffff16565b50808273ffffffffffffffffffffffffffffffffffffffff16600073ffffffffffffffffffffffffffffffffffffffff167fddf252ad1be2c89b69c2b068fc378daa952ba7f163c4a11628f55a4df523b3ef60405160405180910390a45050565b606082471015613120576040517f08c379a00000000000000000000000000000000000000000000000000000000081526004018080602001828103825260268152602001806134506026913960400191505060405180910390fd5b61312985612e83565b61319b576040517f08c379a000000000000000000000000000000000000000000000000000000000815260040180806020018281038252601d8152602001807f416464726573733a2063616c6c20746f206e6f6e2d636f6e747261637400000081525060200191505060405180910390fd5b600060608673ffffffffffffffffffffffffffffffffffffffff1685876040518082805190602001908083835b602083106131eb57805182526020820191506020810190506020830392506131c8565b6001836020036101000a03801982511681845116808217855250505050505090500191505060006040518083038185875af1925050503d806000811461324d576040519150601f19603f3d011682016040523d82523d6000602084013e613252565b606091505b509150915061326282828661326e565b92505050949350505050565b6060831561327e57829050613333565b6000835111156132915782518084602001fd5b816040517f08c379a00000000000000000000000000000000000000000000000000000000081526004018080602001828103825283818151815260200191508051906020019080838360005b838110156132f85780820151818401526020810190506132dd565b50505050905090810190601f1680156133255780820380516001836020036101000a031916815260200191505b509250505060405180910390fd5b9392505050565b828054600181600116156101000203166002900490600052602060002090601f016020900481019282601f1061337b57805160ff19168380011785556133a9565b828001600101855582156133a9579182015b828111156133a857825182559160200191906001019061338d565b5b5090506133b691906133ba565b5090565b5b808211156133d35760008160009055506001016133bb565b509056fe456e756d657261626c655365743a20696e646578206f7574206f6620626f756e64734552433732313a207472616e7366657220746f206e6f6e20455243373231526563656976657220696d706c656d656e7465724552433732313a207472616e7366657220746f20746865207a65726f2061646472657373416464726573733a20696e73756666696369656e742062616c616e636520666f722063616c6c4552433732313a206f70657261746f7220717565727920666f72206e6f6e6578697374656e7420746f6b656e4552433732313a20617070726f76652063616c6c6572206973206e6f74206f776e6572206e6f7220617070726f76656420666f7220616c6c4552433732313a2062616c616e636520717565727920666f7220746865207a65726f20616464726573734552433732313a206f776e657220717565727920666f72206e6f6e6578697374656e7420746f6b656e456e756d657261626c654d61703a20696e646578206f7574206f6620626f756e64734552433732313a20617070726f76656420717565727920666f72206e6f6e6578697374656e7420746f6b656e4552433732314d657461646174613a2055524920736574206f66206e6f6e6578697374656e7420746f6b656e4552433732313a207472616e73666572206f6620746f6b656e2074686174206973206e6f74206f776e4552433732314d657461646174613a2055524920717565727920666f72206e6f6e6578697374656e7420746f6b656e4552433732313a20617070726f76616c20746f2063757272656e74206f776e65724552433732313a207472616e736665722063616c6c6572206973206e6f74206f776e6572206e6f7220617070726f766564a26469706673582212200b2710f3db9429d1bcd933037e8bcba2e32d9ff082d3ab6cff05a05851f93b5864736f6c634300060c0033",
  "immutableReferences": {
    "330": [
      {
        "length": 32,
        "start": 6912
      }
    ],
    "332": [
      {
        "length": 32,
        "start": 5114
      },
      {
        "length": 32,
        "start": 6972
      }
    ]
  },
  "source": "// contracts/GladiatorCharacter.sol\n// SPDX-License-Identifier: MIT\n\npragma solidity ^0.6.12;\n\n// const RINKEBY_VRF_COORDINATOR = '0xb3dCcb4Cf7a26f6cf6B120Cf5A73875B7BBc655B'\n// const RINKEBY_LINKTOKEN = '0x01BE23585060835E02B77ef475b0Cc51aA1e0709'\n// const RINKEBY_KEYHASH = '0x2ed0feb3e7fd2022120aa84fab1945545a9f2ffc9076fd6156fa96eaff4c1311'\n\nimport \"@openzeppelin/contracts/token/ERC721/ERC721.sol\";\nimport \"@chainlink/contracts/src/v0.6/VRFConsumerBase.sol\";\n\ncontract GladiatorCharacter is ERC721, VRFConsumerBase {\n    bytes32 public keyHash;\n    address public VRFCoordinator;\n    // bytes32 internal keyHash;\n    uint256 internal fee;\n    uint256 public randomResult;\n    address public Linktoken;\n\n    struct Character {\n        uint256 strength;\n        uint256 speed;\n        uint256 stamina;\n        string name;\n    }\n\n    Character[] public characters;\n    // mappings will go here \n    mapping(bytes32 => string) requestToCharacterName;\n    mapping(bytes32 => address) requestToSender;\n    mapping(bytes32 => uint256) requestToTokenId;\n\n\n\n    constructor(address _VRFCoordinator, address _LinkToken, bytes32 _keyHash) public\n    VRFConsumerBase(_VRFCoordinator, _LinkToken) \n    ERC721(\"GladiatorCharacter\", \"GDCT\") {\n        VRFCoordinator = _VRFCoordinator;\n        keyHash = _keyHash;\n        Linktoken = _LinkToken;\n        fee = 0.1 * 10**18; // 0.1 LINK     \n    }\n\n    function requestNewRandomCharacter (uint256 userProvidedSeed, string memory name) public returns (bytes32) {\n        bytes32 requestId = requestRandomness(keyHash, fee, userProvidedSeed);\n        requestToCharacterName[requestId] = name;\n        requestToSender[requestId] = msg.sender;\n        return requestId;\n    }\n\n    function fulfillRandomness(bytes32 requestId, uint256 randomNumber)\n    internal override {\n        //define the NFT\n        uint256 newId = characters.length;\n        uint256 strength = (randomNumber % 100);\n        uint256 speed = ((randomNumber % 1000) / 100);\n        uint256 stamina = ((randomNumber % 1000000) / 10000);\n\n        characters.push(\n            Character(\n                strength,\n                speed,\n                stamina,\n                requestToCharacterName[requestId]\n            )\n        );\n        _safeMint(requestToSender[requestId], newId);\n\n    }\n\n    function setTokenURI(uint256 tokenId, string memory _tokenURI) public {\n        require(\n            _isApprovedOrOwner(_msgSender(), tokenId),\n            \"ERC721: transfer caller is not owner nor approved\"\n        );\n        _setTokenURI(tokenId, _tokenURI);\n\n    }\n\n}\n\n\n// pragma solidity ^0.6.12;\n\n// // const RINKEBY_VRF_COORDINATOR = '0xb3dCcb4Cf7a26f6cf6B120Cf5A73875B7BBc655B'\n// // const RINKEBY_LINKTOKEN = '0x01BE23585060835E02B77ef475b0Cc51aA1e0709'\n// // const RINKEBY_KEYHASH = '0x2ed0feb3e7fd2022120aa84fab1945545a9f2ffc9076fd6156fa96eaff4c1311'\n\n// import \"@openzeppelin/contracts/token/ERC721/ERC721.sol\";\n// import \"@chainlink/contracts/src/v0.6/VRFConsumerBase.sol\";\n\n// contract GladiatorCharacter is ERC721, VRFConsumerBase {\n//     bytes32 public keyHash;\n//     address VRFCoordinator;\n//     // bytes32 internal keyHash;\n//     uint256 internal fee;\n//     uint256 public randomResult;\n//     address public Linktoken;\n//     uint256 public counter;\n\n\n//     struct Character {\n//         uint256 strength;\n//         uint256 speed;\n//         uint256 stamina;\n//         string name;\n//     }\n//     // Character[] public characters;\n//     // mappings will go here \n//     mapping(uint256 => Character) characters;\n//     mapping(bytes32 => string) requestToCharacterName;\n//     mapping(bytes32 => address) requestToSender;\n//     mapping(bytes32 => uint256) requestToTokenId;\n\n\n\n//     constructor(address _VRFCoordinator, address _LinkToken, bytes32 _keyHash) public\n//     VRFConsumerBase(_VRFCoordinator, _LinkToken) \n//     ERC721(\"GladiatorCharacter\", \"GDCT\") {\n//         VRFCoordinator = _VRFCoordinator;\n//         keyHash = _keyHash;\n//         Linktoken = _LinkToken;\n//         fee = 0.1 * 10**18; // 0.1 LINK     \n//     }\n\n//     function requestNewRandomCharacter (uint256 userProvidedSeed, string memory name) public returns (bytes32) {\n//         bytes32 requestId = requestRandomness(keyHash, fee, userProvidedSeed);\n//         requestToCharacterName[requestId] = name;\n//         requestToSender[requestId] = msg.sender;\n//         return requestId;\n//     }\n\n//     // function fulfillRandomness(bytes32 requestId, uint256 randomNumber)\n//     // internal override {\n//     //     //define the NFT\n//     //     uint256 newId = characters.length;\n//     //     uint256 strength = (randomNumber % 100);\n//     //     uint256 speed = ((randomNumber % 1000) / 100);\n//     //     uint256 stamina = ((randomNumber % 1000000) / 10000);\n\n//     //     characters.push(\n//     //         Character(\n//     //             strength,\n//     //             speed,\n//     //             stamina,\n//     //             requestToCharacterName[requestId]\n//     //         )\n//     //     );\n//     //     _safeMint(requestToSender[requestId], newId);\n\n//     // }\n\n//     function fulfillRandomness(bytes32 requestId, uint256 randomNumber)\n//     internal override {\n//         counter++;\n//         //define the NFT\n//         // uint256 newId = characters.length;\n//         uint256 strength = (randomNumber % 100);\n//         uint256 speed = ((randomNumber % 1000) / 100);\n//         uint256 stamina = ((randomNumber % 1000000) / 10000);\n\n//         characters[counter] = Character(\n//                 strength,\n//                 speed,\n//                 stamina,\n//                 requestToCharacterName[requestId]\n//             );\n//         _safeMint(requestToSender[requestId], counter);\n\n//     }\n\n//     function setTokenURI(uint256 tokenId, string memory _tokenURI) public {\n//         require(\n//             _isApprovedOrOwner(_msgSender(), tokenId),\n//             \"ERC721: transfer caller is not owner nor approved\"\n//         );\n//         _setTokenURI(tokenId, _tokenURI);\n\n//     }\n\n// }",
  "sourcePath": "/home/develioper/Desktop/Chainlink-master/RPG-Solidity-Game/blockchain/src/contracts/GladiatorCharacter.sol",
  "compiler": {
    "name": "solc",
    "version": "0.6.12+commit.27d51765.Emscripten.clang"
  },
  "schemaVersion": "3.3.4",
  "updatedAt": "2021-04-07T04:48:31.907Z",
  "networkType": "ethereum",
  "devdoc": {
    "kind": "dev",
    "methods": {
      "approve(address,uint256)": {
        "details": "See {IERC721-approve}."
      },
      "balanceOf(address)": {
        "details": "See {IERC721-balanceOf}."
      },
      "baseURI()": {
        "details": "Returns the base URI set via {_setBaseURI}. This will be automatically added as a prefix in {tokenURI} to each token's URI, or to the token ID if no specific URI is set for that token ID."
      },
      "getApproved(uint256)": {
        "details": "See {IERC721-getApproved}."
      },
      "isApprovedForAll(address,address)": {
        "details": "See {IERC721-isApprovedForAll}."
      },
      "name()": {
        "details": "See {IERC721Metadata-name}."
      },
      "ownerOf(uint256)": {
        "details": "See {IERC721-ownerOf}."
      },
      "safeTransferFrom(address,address,uint256)": {
        "details": "See {IERC721-safeTransferFrom}."
      },
      "safeTransferFrom(address,address,uint256,bytes)": {
        "details": "See {IERC721-safeTransferFrom}."
      },
      "setApprovalForAll(address,bool)": {
        "details": "See {IERC721-setApprovalForAll}."
      },
      "supportsInterface(bytes4)": {
        "details": "See {IERC165-supportsInterface}. Time complexity O(1), guaranteed to always use less than 30 000 gas."
      },
      "symbol()": {
        "details": "See {IERC721Metadata-symbol}."
      },
      "tokenByIndex(uint256)": {
        "details": "See {IERC721Enumerable-tokenByIndex}."
      },
      "tokenOfOwnerByIndex(address,uint256)": {
        "details": "See {IERC721Enumerable-tokenOfOwnerByIndex}."
      },
      "tokenURI(uint256)": {
        "details": "See {IERC721Metadata-tokenURI}."
      },
      "totalSupply()": {
        "details": "See {IERC721Enumerable-totalSupply}."
      },
      "transferFrom(address,address,uint256)": {
        "details": "See {IERC721-transferFrom}."
      }
    },
    "version": 1
  },
  "userdoc": {
    "kind": "user",
    "methods": {},
    "version": 1
  }
}