{
  "contractName": "Migrations",
  "abi": [
    {
      "inputs": [],
      "stateMutability": "nonpayable",
      "type": "constructor"
    },
    {
      "inputs": [],
      "name": "last_completed_migration",
      "outputs": [
        {
          "internalType": "uint256",
          "name": "",
          "type": "uint256"
        }
      ],
      "stateMutability": "view",
      "type": "function"
    },
    {
      "inputs": [],
      "name": "owner",
      "outputs": [
        {
          "internalType": "address",
          "name": "",
          "type": "address"
        }
      ],
      "stateMutability": "view",
      "type": "function"
    },
    {
      "inputs": [
        {
          "internalType": "uint256",
          "name": "completed",
          "type": "uint256"
        }
      ],
      "name": "setCompleted",
      "outputs": [],
      "stateMutability": "nonpayable",
      "type": "function"
    },
    {
      "inputs": [
        {
          "internalType": "address",
          "name": "new_address",
          "type": "address"
        }
      ],
      "name": "upgrade",
      "outputs": [],
      "stateMutability": "nonpayable",
      "type": "function"
    }
  ],
  "bytecode": "0x608060405234801561001057600080fd5b50336000806101000a81548173ffffffffffffffffffffffffffffffffffffffff021916908373ffffffffffffffffffffffffffffffffffffffff160217905550610389806100606000396000f3fe608060405234801561001057600080fd5b506004361061004c5760003560e01c80630900f01014610051578063445df0ac1461006d5780638da5cb5b1461008b578063fdacd576146100a9575b600080fd5b61006b60048036038101906100669190610243565b6100c5565b005b610075610190565b60405161008291906102ce565b60405180910390f35b610093610196565b6040516100a091906102b3565b60405180910390f35b6100c360048036038101906100be919061026c565b6101ba565b005b60008054906101000a900473ffffffffffffffffffffffffffffffffffffffff1673ffffffffffffffffffffffffffffffffffffffff163373ffffffffffffffffffffffffffffffffffffffff16141561018d5760008190508073ffffffffffffffffffffffffffffffffffffffff1663fdacd5766001546040518263ffffffff1660e01b815260040161015991906102ce565b600060405180830381600087803b15801561017357600080fd5b505af1158015610187573d6000803e3d6000fd5b50505050505b50565b60015481565b60008054906101000a900473ffffffffffffffffffffffffffffffffffffffff1681565b60008054906101000a900473ffffffffffffffffffffffffffffffffffffffff1673ffffffffffffffffffffffffffffffffffffffff163373ffffffffffffffffffffffffffffffffffffffff16141561021657806001819055505b50565b60008135905061022881610325565b92915050565b60008135905061023d8161033c565b92915050565b60006020828403121561025557600080fd5b600061026384828501610219565b91505092915050565b60006020828403121561027e57600080fd5b600061028c8482850161022e565b91505092915050565b61029e816102e9565b82525050565b6102ad8161031b565b82525050565b60006020820190506102c86000830184610295565b92915050565b60006020820190506102e360008301846102a4565b92915050565b60006102f4826102fb565b9050919050565b600073ffffffffffffffffffffffffffffffffffffffff82169050919050565b6000819050919050565b61032e816102e9565b811461033957600080fd5b50565b6103458161031b565b811461035057600080fd5b5056fea26469706673582212203994b4e9b6a236c09cb188ccab8d7431ecd5a6137803a84f0f8f734a899140bb64736f6c63430008000033",
  "immutableReferences": {},
  "source": "// SPDX-License-Identifier: MIT\npragma solidity ^0.8.0;\n\n// pragma solidity >=0.4.21 <0.6.0;\n\ncontract Migrations {\n    address public owner;\n    uint256 public last_completed_migration;\n\n    constructor() public {\n        owner = msg.sender;\n    }\n\n    modifier restricted() {\n        if (msg.sender == owner) _;\n    }\n\n    function setCompleted(uint256 completed) public restricted {\n        last_completed_migration = completed;\n    }\n\n    function upgrade(address new_address) public restricted {\n        Migrations upgraded = Migrations(new_address);\n        upgraded.setCompleted(last_completed_migration);\n    }\n}\n",
  "sourcePath": "/Users/newsgate/Work/RPG-Solidity-Game/blockchain/src/contracts/Migrations.sol",
  "compiler": {
    "name": "solc",
    "version": "0.8.0+commit.c7dfd78e.Emscripten.clang"
  },
  "schemaVersion": "3.3.3",
  "updatedAt": "2021-05-25T14:30:28.524Z",
  "devdoc": {
    "kind": "dev",
    "methods": {},
    "version": 1
  },
  "userdoc": {
    "kind": "user",
    "methods": {},
    "version": 1
  }
}