{
  "contractName": "TrophyChar",
  "abi": [
    {
      "inputs": [
        {
          "internalType": "address",
          "name": "_VRFCoordinator",
          "type": "address"
        },
        {
          "internalType": "address",
          "name": "_LinkToken",
          "type": "address"
        },
        {
          "internalType": "bytes32",
          "name": "_keyHash",
          "type": "bytes32"
        }
      ],
      "stateMutability": "nonpayable",
      "type": "constructor"
    },
    {
      "anonymous": false,
      "inputs": [
        {
          "indexed": true,
          "internalType": "address",
          "name": "owner",
          "type": "address"
        },
        {
          "indexed": true,
          "internalType": "address",
          "name": "approved",
          "type": "address"
        },
        {
          "indexed": true,
          "internalType": "uint256",
          "name": "tokenId",
          "type": "uint256"
        }
      ],
      "name": "Approval",
      "type": "event"
    },
    {
      "anonymous": false,
      "inputs": [
        {
          "indexed": true,
          "internalType": "address",
          "name": "owner",
          "type": "address"
        },
        {
          "indexed": true,
          "internalType": "address",
          "name": "operator",
          "type": "address"
        },
        {
          "indexed": false,
          "internalType": "bool",
          "name": "approved",
          "type": "bool"
        }
      ],
      "name": "ApprovalForAll",
      "type": "event"
    },
    {
      "anonymous": false,
      "inputs": [
        {
          "indexed": true,
          "internalType": "address",
          "name": "from",
          "type": "address"
        },
        {
          "indexed": true,
          "internalType": "address",
          "name": "to",
          "type": "address"
        },
        {
          "indexed": true,
          "internalType": "uint256",
          "name": "tokenId",
          "type": "uint256"
        }
      ],
      "name": "Transfer",
      "type": "event"
    },
    {
      "inputs": [],
      "name": "Linktoken",
      "outputs": [
        {
          "internalType": "address",
          "name": "",
          "type": "address"
        }
      ],
      "stateMutability": "view",
      "type": "function",
      "constant": true
    },
    {
      "inputs": [],
      "name": "VRFCoordinator",
      "outputs": [
        {
          "internalType": "address",
          "name": "",
          "type": "address"
        }
      ],
      "stateMutability": "view",
      "type": "function",
      "constant": true
    },
    {
      "inputs": [
        {
          "internalType": "address",
          "name": "to",
          "type": "address"
        },
        {
          "internalType": "uint256",
          "name": "tokenId",
          "type": "uint256"
        }
      ],
      "name": "approve",
      "outputs": [],
      "stateMutability": "nonpayable",
      "type": "function"
    },
    {
      "inputs": [
        {
          "internalType": "address",
          "name": "owner",
          "type": "address"
        }
      ],
      "name": "balanceOf",
      "outputs": [
        {
          "internalType": "uint256",
          "name": "",
          "type": "uint256"
        }
      ],
      "stateMutability": "view",
      "type": "function",
      "constant": true
    },
    {
      "inputs": [],
      "name": "baseURI",
      "outputs": [
        {
          "internalType": "string",
          "name": "",
          "type": "string"
        }
      ],
      "stateMutability": "view",
      "type": "function",
      "constant": true
    },
    {
      "inputs": [
        {
          "internalType": "uint256",
          "name": "tokenId",
          "type": "uint256"
        }
      ],
      "name": "getApproved",
      "outputs": [
        {
          "internalType": "address",
          "name": "",
          "type": "address"
        }
      ],
      "stateMutability": "view",
      "type": "function",
      "constant": true
    },
    {
      "inputs": [
        {
          "internalType": "address",
          "name": "owner",
          "type": "address"
        },
        {
          "internalType": "address",
          "name": "operator",
          "type": "address"
        }
      ],
      "name": "isApprovedForAll",
      "outputs": [
        {
          "internalType": "bool",
          "name": "",
          "type": "bool"
        }
      ],
      "stateMutability": "view",
      "type": "function",
      "constant": true
    },
    {
      "inputs": [],
      "name": "keyHash",
      "outputs": [
        {
          "internalType": "bytes32",
          "name": "",
          "type": "bytes32"
        }
      ],
      "stateMutability": "view",
      "type": "function",
      "constant": true
    },
    {
      "inputs": [],
      "name": "name",
      "outputs": [
        {
          "internalType": "string",
          "name": "",
          "type": "string"
        }
      ],
      "stateMutability": "view",
      "type": "function",
      "constant": true
    },
    {
      "inputs": [
        {
          "internalType": "uint256",
          "name": "tokenId",
          "type": "uint256"
        }
      ],
      "name": "ownerOf",
      "outputs": [
        {
          "internalType": "address",
          "name": "",
          "type": "address"
        }
      ],
      "stateMutability": "view",
      "type": "function",
      "constant": true
    },
    {
      "inputs": [],
      "name": "randomResult",
      "outputs": [
        {
          "internalType": "uint256",
          "name": "",
          "type": "uint256"
        }
      ],
      "stateMutability": "view",
      "type": "function",
      "constant": true
    },
    {
      "inputs": [
        {
          "internalType": "bytes32",
          "name": "requestId",
          "type": "bytes32"
        },
        {
          "internalType": "uint256",
          "name": "randomness",
          "type": "uint256"
        }
      ],
      "name": "rawFulfillRandomness",
      "outputs": [],
      "stateMutability": "nonpayable",
      "type": "function"
    },
    {
      "inputs": [
        {
          "internalType": "address",
          "name": "from",
          "type": "address"
        },
        {
          "internalType": "address",
          "name": "to",
          "type": "address"
        },
        {
          "internalType": "uint256",
          "name": "tokenId",
          "type": "uint256"
        }
      ],
      "name": "safeTransferFrom",
      "outputs": [],
      "stateMutability": "nonpayable",
      "type": "function"
    },
    {
      "inputs": [
        {
          "internalType": "address",
          "name": "from",
          "type": "address"
        },
        {
          "internalType": "address",
          "name": "to",
          "type": "address"
        },
        {
          "internalType": "uint256",
          "name": "tokenId",
          "type": "uint256"
        },
        {
          "internalType": "bytes",
          "name": "_data",
          "type": "bytes"
        }
      ],
      "name": "safeTransferFrom",
      "outputs": [],
      "stateMutability": "nonpayable",
      "type": "function"
    },
    {
      "inputs": [
        {
          "internalType": "address",
          "name": "operator",
          "type": "address"
        },
        {
          "internalType": "bool",
          "name": "approved",
          "type": "bool"
        }
      ],
      "name": "setApprovalForAll",
      "outputs": [],
      "stateMutability": "nonpayable",
      "type": "function"
    },
    {
      "inputs": [
        {
          "internalType": "bytes4",
          "name": "interfaceId",
          "type": "bytes4"
        }
      ],
      "name": "supportsInterface",
      "outputs": [
        {
          "internalType": "bool",
          "name": "",
          "type": "bool"
        }
      ],
      "stateMutability": "view",
      "type": "function",
      "constant": true
    },
    {
      "inputs": [],
      "name": "symbol",
      "outputs": [
        {
          "internalType": "string",
          "name": "",
          "type": "string"
        }
      ],
      "stateMutability": "view",
      "type": "function",
      "constant": true
    },
    {
      "inputs": [
        {
          "internalType": "uint256",
          "name": "index",
          "type": "uint256"
        }
      ],
      "name": "tokenByIndex",
      "outputs": [
        {
          "internalType": "uint256",
          "name": "",
          "type": "uint256"
        }
      ],
      "stateMutability": "view",
      "type": "function",
      "constant": true
    },
    {
      "inputs": [
        {
          "internalType": "address",
          "name": "owner",
          "type": "address"
        },
        {
          "internalType": "uint256",
          "name": "index",
          "type": "uint256"
        }
      ],
      "name": "tokenOfOwnerByIndex",
      "outputs": [
        {
          "internalType": "uint256",
          "name": "",
          "type": "uint256"
        }
      ],
      "stateMutability": "view",
      "type": "function",
      "constant": true
    },
    {
      "inputs": [
        {
          "internalType": "uint256",
          "name": "tokenId",
          "type": "uint256"
        }
      ],
      "name": "tokenURI",
      "outputs": [
        {
          "internalType": "string",
          "name": "",
          "type": "string"
        }
      ],
      "stateMutability": "view",
      "type": "function",
      "constant": true
    },
    {
      "inputs": [],
      "name": "totalSupply",
      "outputs": [
        {
          "internalType": "uint256",
          "name": "",
          "type": "uint256"
        }
      ],
      "stateMutability": "view",
      "type": "function",
      "constant": true
    },
    {
      "inputs": [
        {
          "internalType": "address",
          "name": "from",
          "type": "address"
        },
        {
          "internalType": "address",
          "name": "to",
          "type": "address"
        },
        {
          "internalType": "uint256",
          "name": "tokenId",
          "type": "uint256"
        }
      ],
      "name": "transferFrom",
      "outputs": [],
      "stateMutability": "nonpayable",
      "type": "function"
    },
    {
      "inputs": [
        {
          "internalType": "uint256",
          "name": "",
          "type": "uint256"
        }
      ],
      "name": "trophies",
      "outputs": [
        {
          "internalType": "uint256",
          "name": "rarity",
          "type": "uint256"
        },
        {
          "internalType": "uint256",
          "name": "worth",
          "type": "uint256"
        },
        {
          "internalType": "string",
          "name": "name",
          "type": "string"
        }
      ],
      "stateMutability": "view",
      "type": "function",
      "constant": true
    },
    {
      "inputs": [
        {
          "internalType": "uint256",
          "name": "userProvidedSeed",
          "type": "uint256"
        },
        {
          "internalType": "string",
          "name": "name",
          "type": "string"
        }
      ],
      "name": "requestNewRandomTrophy",
      "outputs": [
        {
          "internalType": "bytes32",
          "name": "",
          "type": "bytes32"
        }
      ],
      "stateMutability": "nonpayable",
      "type": "function"
    },
    {
      "inputs": [
        {
          "internalType": "uint256",
          "name": "tokenId",
          "type": "uint256"
        },
        {
          "internalType": "string",
          "name": "_tokenURI",
          "type": "string"
        }
      ],
      "name": "setTokenURI",
      "outputs": [],
      "stateMutability": "nonpayable",
      "type": "function"
    },
    {
      "inputs": [
        {
          "internalType": "uint256",
          "name": "tokenId",
          "type": "uint256"
        }
      ],
      "name": "getTokenURI",
      "outputs": [
        {
          "internalType": "string",
          "name": "",
          "type": "string"
        }
      ],
      "stateMutability": "view",
      "type": "function",
      "constant": true
    },
    {
      "inputs": [
        {
          "internalType": "uint256",
          "name": "tokenId",
          "type": "uint256"
        }
      ],
      "name": "getLevel",
      "outputs": [
        {
          "internalType": "uint256",
          "name": "",
          "type": "uint256"
        }
      ],
      "stateMutability": "view",
      "type": "function",
      "constant": true
    },
    {
      "inputs": [],
      "name": "getNumberOfTrophies",
      "outputs": [
        {
          "internalType": "uint256",
          "name": "",
          "type": "uint256"
        }
      ],
      "stateMutability": "view",
      "type": "function",
      "constant": true
    },
    {
      "inputs": [
        {
          "internalType": "uint256",
          "name": "tokenId",
          "type": "uint256"
        }
      ],
      "name": "getTrophyOverView",
      "outputs": [
        {
          "internalType": "string",
          "name": "",
          "type": "string"
        },
        {
          "internalType": "uint256",
          "name": "",
          "type": "uint256"
        },
        {
          "internalType": "uint256",
          "name": "",
          "type": "uint256"
        },
        {
          "internalType": "uint256",
          "name": "",
          "type": "uint256"
        }
      ],
      "stateMutability": "view",
      "type": "function",
      "constant": true
    },
    {
      "inputs": [
        {
          "internalType": "uint256",
          "name": "tokenId",
          "type": "uint256"
        }
      ],
      "name": "getTrophyStats",
      "outputs": [
        {
          "internalType": "uint256",
          "name": "",
          "type": "uint256"
        },
        {
          "internalType": "uint256",
          "name": "",
          "type": "uint256"
        }
      ],
      "stateMutability": "view",
      "type": "function",
      "constant": true
    }
  ],
  "bytecode": "0x60c06040523480156200001157600080fd5b506040516200406e3803806200406e833981810160405260608110156200003757600080fd5b8101908080519060200190929190805190602001909291908051906020019092919050505082826040518060400160405280600a81526020017f54726f70687943686172000000000000000000000000000000000000000000008152506040518060400160405280600381526020017f5452500000000000000000000000000000000000000000000000000000000000815250620000e26301ffc9a760e01b6200026f60201b60201c565b8160069080519060200190620000fa92919062000378565b5080600790805190602001906200011392919062000378565b506200012c6380ac58cd60e01b6200026f60201b60201c565b62000144635b5e139f60e01b6200026f60201b60201c565b6200015c63780e9d6360e01b6200026f60201b60201c565b50508173ffffffffffffffffffffffffffffffffffffffff1660a08173ffffffffffffffffffffffffffffffffffffffff1660601b815250508073ffffffffffffffffffffffffffffffffffffffff1660808173ffffffffffffffffffffffffffffffffffffffff1660601b81525050505082600c60006101000a81548173ffffffffffffffffffffffffffffffffffffffff021916908373ffffffffffffffffffffffffffffffffffffffff16021790555080600b8190555081600f60006101000a81548173ffffffffffffffffffffffffffffffffffffffff021916908373ffffffffffffffffffffffffffffffffffffffff16021790555067016345785d8a0000600d819055505050506200041e565b63ffffffff60e01b817bffffffffffffffffffffffffffffffffffffffffffffffffffffffff191614156200030c576040517f08c379a000000000000000000000000000000000000000000000000000000000815260040180806020018281038252601c8152602001807f4552433136353a20696e76616c696420696e746572666163652069640000000081525060200191505060405180910390fd5b6001600080837bffffffffffffffffffffffffffffffffffffffffffffffffffffffff19167bffffffffffffffffffffffffffffffffffffffffffffffffffffffff1916815260200190815260200160002060006101000a81548160ff02191690831515021790555050565b828054600181600116156101000203166002900490600052602060002090601f016020900481019282601f10620003bb57805160ff1916838001178555620003ec565b82800160010185558215620003ec579182015b82811115620003eb578251825591602001919060010190620003ce565b5b509050620003fb9190620003ff565b5090565b5b808211156200041a57600081600090555060010162000400565b5090565b60805160601c60a05160601c613c1c6200045260003980611592528061279d52508061198d52806127615250613c1c6000f3fe608060405234801561001057600080fd5b50600436106101da5760003560e01c806361728f391161010457806395d89b41116100a2578063b88d4fde11610071578063b88d4fde14610b8e578063c87b56dd14610c93578063d4995eb114610d3a578063e985e9c514610df6576101da565b806395d89b411461092d578063a06bb50f146109b0578063a22cb46514610a65578063b66c893f14610ab5576101da565b806370a08231116100de57806370a082311461081257806386481d401461086a57806391e348f1146108ac57806394985ddd146108f5576101da565b806361728f39146107195780636352211e146107375780636c0360eb1461078f576101da565b806323b872dd1161017c5780633f13595a1161014b5780633f13595a1461062d57806342619f661461064b57806342842e0e146106695780634f6ccce7146106d7576101da565b806323b872dd146104825780632f745c59146104f057806333b60863146105525780633bb3a24d14610586576101da565b8063081812fc116101b8578063081812fc146102f9578063095ea7b314610351578063162094c41461039f57806318160ddd14610464576101da565b806301ffc9a7146101df57806306fdde031461024257806307ed17e3146102c5575b600080fd5b61022a600480360360208110156101f557600080fd5b8101908080357bffffffffffffffffffffffffffffffffffffffffffffffffffffffff19169060200190929190505050610e70565b60405180821515815260200191505060405180910390f35b61024a610ed7565b6040518080602001828103825283818151815260200191508051906020019080838360005b8381101561028a57808201518184015260208101905061026f565b50505050905090810190601f1680156102b75780820380516001836020036101000a031916815260200191505b509250505060405180910390f35b6102cd610f79565b604051808273ffffffffffffffffffffffffffffffffffffffff16815260200191505060405180910390f35b6103256004803603602081101561030f57600080fd5b8101908080359060200190929190505050610f9f565b604051808273ffffffffffffffffffffffffffffffffffffffff16815260200191505060405180910390f35b61039d6004803603604081101561036757600080fd5b81019080803573ffffffffffffffffffffffffffffffffffffffff1690602001909291908035906020019092919050505061103a565b005b610462600480360360408110156103b557600080fd5b8101908080359060200190929190803590602001906401000000008111156103dc57600080fd5b8201836020820111156103ee57600080fd5b8035906020019184600183028401116401000000008311171561041057600080fd5b91908080601f016020809104026020016040519081016040528093929190818152602001838380828437600081840152601f19601f82011690508083019250505050505050919291929050505061117e565b005b61046c6111f2565b6040518082815260200191505060405180910390f35b6104ee6004803603606081101561049857600080fd5b81019080803573ffffffffffffffffffffffffffffffffffffffff169060200190929190803573ffffffffffffffffffffffffffffffffffffffff16906020019092919080359060200190929190505050611203565b005b61053c6004803603604081101561050657600080fd5b81019080803573ffffffffffffffffffffffffffffffffffffffff16906020019092919080359060200190929190505050611279565b6040518082815260200191505060405180910390f35b61055a6112d4565b604051808273ffffffffffffffffffffffffffffffffffffffff16815260200191505060405180910390f35b6105b26004803603602081101561059c57600080fd5b81019080803590602001909291905050506112fa565b6040518080602001828103825283818151815260200191508051906020019080838360005b838110156105f25780820151818401526020810190506105d7565b50505050905090810190601f16801561061f5780820380516001836020036101000a031916815260200191505b509250505060405180910390f35b61063561130c565b6040518082815260200191505060405180910390f35b610653611319565b6040518082815260200191505060405180910390f35b6106d56004803603606081101561067f57600080fd5b81019080803573ffffffffffffffffffffffffffffffffffffffff169060200190929190803573ffffffffffffffffffffffffffffffffffffffff1690602001909291908035906020019092919050505061131f565b005b610703600480360360208110156106ed57600080fd5b810190808035906020019092919050505061133f565b6040518082815260200191505060405180910390f35b610721611362565b6040518082815260200191505060405180910390f35b6107636004803603602081101561074d57600080fd5b8101908080359060200190929190505050611368565b604051808273ffffffffffffffffffffffffffffffffffffffff16815260200191505060405180910390f35b61079761139f565b6040518080602001828103825283818151815260200191508051906020019080838360005b838110156107d75780820151818401526020810190506107bc565b50505050905090810190601f1680156108045780820380516001836020036101000a031916815260200191505b509250505060405180910390f35b6108546004803603602081101561082857600080fd5b81019080803573ffffffffffffffffffffffffffffffffffffffff169060200190929190505050611441565b6040518082815260200191505060405180910390f35b6108966004803603602081101561088057600080fd5b8101908080359060200190929190505050611516565b6040518082815260200191505060405180910390f35b6108d8600480360360208110156108c257600080fd5b8101908080359060200190929190505050611546565b604051808381526020018281526020019250505060405180910390f35b61092b6004803603604081101561090b57600080fd5b810190808035906020019092919080359060200190929190505050611590565b005b61093561165f565b6040518080602001828103825283818151815260200191508051906020019080838360005b8381101561097557808201518184015260208101905061095a565b50505050905090810190601f1680156109a25780820380516001836020036101000a031916815260200191505b509250505060405180910390f35b6109dc600480360360208110156109c657600080fd5b8101908080359060200190929190505050611701565b6040518084815260200183815260200180602001828103825283818151815260200191508051906020019080838360005b83811015610a28578082015181840152602081019050610a0d565b50505050905090810190601f168015610a555780820380516001836020036101000a031916815260200191505b5094505050505060405180910390f35b610ab360048036036040811015610a7b57600080fd5b81019080803573ffffffffffffffffffffffffffffffffffffffff1690602001909291908035151590602001909291905050506117d0565b005b610b7860048036036040811015610acb57600080fd5b810190808035906020019092919080359060200190640100000000811115610af257600080fd5b820183602082011115610b0457600080fd5b80359060200191846001830284011164010000000083111715610b2657600080fd5b91908080601f016020809104026020016040519081016040528093929190818152602001838380828437600081840152601f19601f820116905080830192505050505050509192919290505050611986565b6040518082815260200191505060405180910390f35b610c9160048036036080811015610ba457600080fd5b81019080803573ffffffffffffffffffffffffffffffffffffffff169060200190929190803573ffffffffffffffffffffffffffffffffffffffff1690602001909291908035906020019092919080359060200190640100000000811115610c0b57600080fd5b820183602082011115610c1d57600080fd5b80359060200191846001830284011164010000000083111715610c3f57600080fd5b91908080601f016020809104026020016040519081016040528093929190818152602001838380828437600081840152601f19601f820116905080830192505050505050509192919290505050611b3b565b005b610cbf60048036036020811015610ca957600080fd5b8101908080359060200190929190505050611bb3565b6040518080602001828103825283818151815260200191508051906020019080838360005b83811015610cff578082015181840152602081019050610ce4565b50505050905090810190601f168015610d2c5780820380516001836020036101000a031916815260200191505b509250505060405180910390f35b610d6660048036036020811015610d5057600080fd5b8101908080359060200190929190505050611e84565b6040518080602001858152602001848152602001838152602001828103825286818151815260200191508051906020019080838360005b83811015610db8578082015181840152602081019050610d9d565b50505050905090810190601f168015610de55780820380516001836020036101000a031916815260200191505b509550505050505060405180910390f35b610e5860048036036040811015610e0c57600080fd5b81019080803573ffffffffffffffffffffffffffffffffffffffff169060200190929190803573ffffffffffffffffffffffffffffffffffffffff169060200190929190505050611fbb565b60405180821515815260200191505060405180910390f35b6000806000837bffffffffffffffffffffffffffffffffffffffffffffffffffffffff19167bffffffffffffffffffffffffffffffffffffffffffffffffffffffff1916815260200190815260200160002060009054906101000a900460ff169050919050565b606060068054600181600116156101000203166002900480601f016020809104026020016040519081016040528092919081815260200182805460018160011615610100020316600290048015610f6f5780601f10610f4457610100808354040283529160200191610f6f565b820191906000526020600020905b815481529060010190602001808311610f5257829003601f168201915b5050505050905090565b600f60009054906101000a900473ffffffffffffffffffffffffffffffffffffffff1681565b6000610faa8261204f565b610fff576040517f08c379a000000000000000000000000000000000000000000000000000000000815260040180806020018281038252602c815260200180613ae5602c913960400191505060405180910390fd5b6004600083815260200190815260200160002060009054906101000a900473ffffffffffffffffffffffffffffffffffffffff169050919050565b600061104582611368565b90508073ffffffffffffffffffffffffffffffffffffffff168373ffffffffffffffffffffffffffffffffffffffff1614156110cc576040517f08c379a0000000000000000000000000000000000000000000000000000000008152600401808060200182810382526021815260200180613b956021913960400191505060405180910390fd5b8073ffffffffffffffffffffffffffffffffffffffff166110eb61206c565b73ffffffffffffffffffffffffffffffffffffffff16148061111a57506111198161111461206c565b611fbb565b5b61116f576040517f08c379a0000000000000000000000000000000000000000000000000000000008152600401808060200182810382526038815260200180613a386038913960400191505060405180910390fd5b6111798383612074565b505050565b61118f61118961206c565b8361212d565b6111e4576040517f08c379a0000000000000000000000000000000000000000000000000000000008152600401808060200182810382526031815260200180613bb66031913960400191505060405180910390fd5b6111ee8282612221565b5050565b60006111fe60026122ab565b905090565b61121461120e61206c565b8261212d565b611269576040517f08c379a0000000000000000000000000000000000000000000000000000000008152600401808060200182810382526031815260200180613bb66031913960400191505060405180910390fd5b6112748383836122c0565b505050565b60006112cc82600160008673ffffffffffffffffffffffffffffffffffffffff1673ffffffffffffffffffffffffffffffffffffffff16815260200190815260200160002061250390919063ffffffff16565b905092915050565b600c60009054906101000a900473ffffffffffffffffffffffffffffffffffffffff1681565b606061130582611bb3565b9050919050565b6000601080549050905090565b600e5481565b61133a83838360405180602001604052806000815250611b3b565b505050565b60008061135683600261251d90919063ffffffff16565b50905080915050919050565b600b5481565b600061139882604051806060016040528060298152602001613a9a6029913960026125499092919063ffffffff16565b9050919050565b606060098054600181600116156101000203166002900480601f0160208091040260200160405190810160405280929190818152602001828054600181600116156101000203166002900480156114375780601f1061140c57610100808354040283529160200191611437565b820191906000526020600020905b81548152906001019060200180831161141a57829003601f168201915b5050505050905090565b60008073ffffffffffffffffffffffffffffffffffffffff168273ffffffffffffffffffffffffffffffffffffffff1614156114c8576040517f08c379a000000000000000000000000000000000000000000000000000000000815260040180806020018281038252602a815260200180613a70602a913960400191505060405180910390fd5b61150f600160008473ffffffffffffffffffffffffffffffffffffffff1673ffffffffffffffffffffffffffffffffffffffff168152602001908152602001600020612568565b9050919050565b600061153f6010838154811061152857fe5b90600052602060002090600302016000015461257d565b9050919050565b6000806010838154811061155657fe5b9060005260206000209060030201600001546010848154811061157557fe5b90600052602060002090600302016001015491509150915091565b7f000000000000000000000000000000000000000000000000000000000000000073ffffffffffffffffffffffffffffffffffffffff163373ffffffffffffffffffffffffffffffffffffffff1614611651576040517f08c379a000000000000000000000000000000000000000000000000000000000815260040180806020018281038252601f8152602001807f4f6e6c7920565246436f6f7264696e61746f722063616e2066756c66696c6c0081525060200191505060405180910390fd5b61165b82826125c2565b5050565b606060078054600181600116156101000203166002900480601f0160208091040260200160405190810160405280929190818152602001828054600181600116156101000203166002900480156116f75780601f106116cc576101008083540402835291602001916116f7565b820191906000526020600020905b8154815290600101906020018083116116da57829003601f168201915b5050505050905090565b6010818154811061170e57fe5b9060005260206000209060030201600091509050806000015490806001015490806002018054600181600116156101000203166002900480601f0160208091040260200160405190810160405280929190818152602001828054600181600116156101000203166002900480156117c65780601f1061179b576101008083540402835291602001916117c6565b820191906000526020600020905b8154815290600101906020018083116117a957829003601f168201915b5050505050905083565b6117d861206c565b73ffffffffffffffffffffffffffffffffffffffff168273ffffffffffffffffffffffffffffffffffffffff161415611879576040517f08c379a00000000000000000000000000000000000000000000000000000000081526004018080602001828103825260198152602001807f4552433732313a20617070726f766520746f2063616c6c65720000000000000081525060200191505060405180910390fd5b806005600061188661206c565b73ffffffffffffffffffffffffffffffffffffffff1673ffffffffffffffffffffffffffffffffffffffff16815260200190815260200160002060008473ffffffffffffffffffffffffffffffffffffffff1673ffffffffffffffffffffffffffffffffffffffff16815260200190815260200160002060006101000a81548160ff0219169083151502179055508173ffffffffffffffffffffffffffffffffffffffff1661193361206c565b73ffffffffffffffffffffffffffffffffffffffff167f17307eab39ab6107e8899845ad3d59bd9653f200f220920489ca2b5937696c318360405180821515815260200191505060405180910390a35050565b6000600d547f000000000000000000000000000000000000000000000000000000000000000073ffffffffffffffffffffffffffffffffffffffff166370a08231306040518263ffffffff1660e01b8152600401808273ffffffffffffffffffffffffffffffffffffffff16815260200191505060206040518083038186803b158015611a1257600080fd5b505afa158015611a26573d6000803e3d6000fd5b505050506040513d6020811015611a3c57600080fd5b81019080805190602001909291905050501015611aa4576040517f08c379a000000000000000000000000000000000000000000000000000000000815260040180806020018281038252602b8152602001806139bb602b913960400191505060405180910390fd5b6000611ab5600b54600d548661275d565b905082601160008381526020019081526020016000209080519060200190611ade9291906138a5565b50336012600083815260200190815260200160002060006101000a81548173ffffffffffffffffffffffffffffffffffffffff021916908373ffffffffffffffffffffffffffffffffffffffff1602179055508091505092915050565b611b4c611b4661206c565b8361212d565b611ba1576040517f08c379a0000000000000000000000000000000000000000000000000000000008152600401808060200182810382526031815260200180613bb66031913960400191505060405180910390fd5b611bad84848484612955565b50505050565b6060611bbe8261204f565b611c13576040517f08c379a000000000000000000000000000000000000000000000000000000000815260040180806020018281038252602f815260200180613b66602f913960400191505060405180910390fd5b6060600860008481526020019081526020016000208054600181600116156101000203166002900480601f016020809104026020016040519081016040528092919081815260200182805460018160011615610100020316600290048015611cbc5780601f10611c9157610100808354040283529160200191611cbc565b820191906000526020600020905b815481529060010190602001808311611c9f57829003601f168201915b505050505090506060611ccd61139f565b9050600081511415611ce3578192505050611e7f565b600082511115611db45780826040516020018083805190602001908083835b60208310611d255780518252602082019150602081019050602083039250611d02565b6001836020036101000a03801982511681845116808217855250505050505090500182805190602001908083835b60208310611d765780518252602082019150602081019050602083039250611d53565b6001836020036101000a0380198251168184511680821785525050505050509050019250505060405160208183030381529060405292505050611e7f565b80611dbe856129c7565b6040516020018083805190602001908083835b60208310611df45780518252602082019150602081019050602083039250611dd1565b6001836020036101000a03801982511681845116808217855250505050505090500182805190602001908083835b60208310611e455780518252602082019150602081019050602083039250611e22565b6001836020036101000a03801982511681845116808217855250505050505090500192505050604051602081830303815290604052925050505b919050565b6060600080600060108581548110611e9857fe5b906000526020600020906003020160020160108681548110611eb657fe5b90600052602060002090600302016001015460108781548110611ed557fe5b90600052602060002090600302016000015401611ef187611516565b60108881548110611efe57fe5b906000526020600020906003020160000154838054600181600116156101000203166002900480601f016020809104026020016040519081016040528092919081815260200182805460018160011615610100020316600290048015611fa55780601f10611f7a57610100808354040283529160200191611fa5565b820191906000526020600020905b815481529060010190602001808311611f8857829003601f168201915b5050505050935093509350935093509193509193565b6000600560008473ffffffffffffffffffffffffffffffffffffffff1673ffffffffffffffffffffffffffffffffffffffff16815260200190815260200160002060008373ffffffffffffffffffffffffffffffffffffffff1673ffffffffffffffffffffffffffffffffffffffff16815260200190815260200160002060009054906101000a900460ff16905092915050565b6000612065826002612b0e90919063ffffffff16565b9050919050565b600033905090565b816004600083815260200190815260200160002060006101000a81548173ffffffffffffffffffffffffffffffffffffffff021916908373ffffffffffffffffffffffffffffffffffffffff160217905550808273ffffffffffffffffffffffffffffffffffffffff166120e783611368565b73ffffffffffffffffffffffffffffffffffffffff167f8c5be1e5ebec7d5bd14f71427d1e84f3dd0314c0f7b2291e5b200ac8c7c3b92560405160405180910390a45050565b60006121388261204f565b61218d576040517f08c379a000000000000000000000000000000000000000000000000000000000815260040180806020018281038252602c815260200180613a0c602c913960400191505060405180910390fd5b600061219883611368565b90508073ffffffffffffffffffffffffffffffffffffffff168473ffffffffffffffffffffffffffffffffffffffff16148061220757508373ffffffffffffffffffffffffffffffffffffffff166121ef84610f9f565b73ffffffffffffffffffffffffffffffffffffffff16145b8061221857506122178185611fbb565b5b91505092915050565b61222a8261204f565b61227f576040517f08c379a000000000000000000000000000000000000000000000000000000000815260040180806020018281038252602c815260200180613b11602c913960400191505060405180910390fd5b806008600084815260200190815260200160002090805190602001906122a69291906138a5565b505050565b60006122b982600001612b28565b9050919050565b8273ffffffffffffffffffffffffffffffffffffffff166122e082611368565b73ffffffffffffffffffffffffffffffffffffffff161461234c576040517f08c379a0000000000000000000000000000000000000000000000000000000008152600401808060200182810382526029815260200180613b3d6029913960400191505060405180910390fd5b600073ffffffffffffffffffffffffffffffffffffffff168273ffffffffffffffffffffffffffffffffffffffff1614156123d2576040517f08c379a00000000000000000000000000000000000000000000000000000000081526004018080602001828103825260248152602001806139976024913960400191505060405180910390fd5b6123dd838383612b39565b6123e8600082612074565b61243981600160008673ffffffffffffffffffffffffffffffffffffffff1673ffffffffffffffffffffffffffffffffffffffff168152602001908152602001600020612b3e90919063ffffffff16565b5061248b81600160008573ffffffffffffffffffffffffffffffffffffffff1673ffffffffffffffffffffffffffffffffffffffff168152602001908152602001600020612b5890919063ffffffff16565b506124a281836002612b729092919063ffffffff16565b50808273ffffffffffffffffffffffffffffffffffffffff168473ffffffffffffffffffffffffffffffffffffffff167fddf252ad1be2c89b69c2b068fc378daa952ba7f163c4a11628f55a4df523b3ef60405160405180910390a4505050565b60006125128360000183612ba7565b60001c905092915050565b6000806000806125308660000186612c2a565b915091508160001c8160001c9350935050509250929050565b600061255c846000018460001b84612cc3565b60001c90509392505050565b600061257682600001612db9565b9050919050565b6000806002600184018161258d57fe5b0490508291505b818110156125bc578091506002818285816125ab57fe5b0401816125b457fe5b049050612594565b50919050565b600060108054905090506000606483816125d857fe5b069050600060646103e885816125ea57fe5b06816125f257fe5b04905060106040518060600160405280848152602001838152602001601160008981526020019081526020016000208054600181600116156101000203166002900480601f0160208091040260200160405190810160405280929190818152602001828054600181600116156101000203166002900480156126b55780601f1061268a576101008083540402835291602001916126b5565b820191906000526020600020905b81548152906001019060200180831161269857829003601f168201915b50505050508152509080600181540180825580915050600190039060005260206000209060030201600090919091909150600082015181600001556020820151816001015560408201518160020190805190602001906127169291906138a5565b5050506127566012600087815260200190815260200160002060009054906101000a900473ffffffffffffffffffffffffffffffffffffffff1684612dca565b5050505050565b60007f000000000000000000000000000000000000000000000000000000000000000073ffffffffffffffffffffffffffffffffffffffff16634000aea07f000000000000000000000000000000000000000000000000000000000000000085878660405160200180838152602001828152602001925050506040516020818303038152906040526040518463ffffffff1660e01b8152600401808473ffffffffffffffffffffffffffffffffffffffff16815260200183815260200180602001828103825283818151815260200191508051906020019080838360005b8381101561285657808201518184015260208101905061283b565b50505050905090810190601f1680156128835780820380516001836020036101000a031916815260200191505b50945050505050602060405180830381600087803b1580156128a457600080fd5b505af11580156128b8573d6000803e3d6000fd5b505050506040513d60208110156128ce57600080fd5b8101908080519060200190929190505050506000612901858430600a60008a815260200190815260200160002054612de8565b905061292a6001600a600088815260200190815260200160002054612e4c90919063ffffffff16565b600a60008781526020019081526020016000208190555061294b8582612ed4565b9150509392505050565b6129608484846122c0565b61296c84848484612f0d565b6129c1576040517f08c379a00000000000000000000000000000000000000000000000000000000081526004018080602001828103825260328152602001806139656032913960400191505060405180910390fd5b50505050565b60606000821415612a0f576040518060400160405280600181526020017f30000000000000000000000000000000000000000000000000000000000000008152509050612b09565b600082905060005b60008214612a39578080600101915050600a8281612a3157fe5b049150612a17565b60608167ffffffffffffffff81118015612a5257600080fd5b506040519080825280601f01601f191660200182016040528015612a855781602001600182028036833780820191505090505b50905060006001830390508593505b60008414612b0157600a8481612aa657fe5b0660300160f81b82828060019003935081518110612ac057fe5b60200101907effffffffffffffffffffffffffffffffffffffffffffffffffffffffffffff1916908160001a905350600a8481612af957fe5b049350612a94565b819450505050505b919050565b6000612b20836000018360001b613126565b905092915050565b600081600001805490509050919050565b505050565b6000612b50836000018360001b613149565b905092915050565b6000612b6a836000018360001b613231565b905092915050565b6000612b9e846000018460001b8473ffffffffffffffffffffffffffffffffffffffff1660001b6132a1565b90509392505050565b600081836000018054905011612c08576040517f08c379a00000000000000000000000000000000000000000000000000000000081526004018080602001828103825260228152602001806139436022913960400191505060405180910390fd5b826000018281548110612c1757fe5b9060005260206000200154905092915050565b60008082846000018054905011612c8c576040517f08c379a0000000000000000000000000000000000000000000000000000000008152600401808060200182810382526022815260200180613ac36022913960400191505060405180910390fd5b6000846000018481548110612c9d57fe5b906000526020600020906002020190508060000154816001015492509250509250929050565b60008084600101600085815260200190815260200160002054905060008114158390612d8a576040517f08c379a00000000000000000000000000000000000000000000000000000000081526004018080602001828103825283818151815260200191508051906020019080838360005b83811015612d4f578082015181840152602081019050612d34565b50505050905090810190601f168015612d7c5780820380516001836020036101000a031916815260200191505b509250505060405180910390fd5b50846000016001820381548110612d9d57fe5b9060005260206000209060020201600101549150509392505050565b600081600001805490509050919050565b612de482826040518060200160405280600081525061337d565b5050565b600084848484604051602001808581526020018481526020018373ffffffffffffffffffffffffffffffffffffffff1681526020018281526020019450505050506040516020818303038152906040528051906020012060001c9050949350505050565b600080828401905083811015612eca576040517f08c379a000000000000000000000000000000000000000000000000000000000815260040180806020018281038252601b8152602001807f536166654d6174683a206164646974696f6e206f766572666c6f77000000000081525060200191505060405180910390fd5b8091505092915050565b60008282604051602001808381526020018281526020019250505060405160208183030381529060405280519060200120905092915050565b6000612f2e8473ffffffffffffffffffffffffffffffffffffffff166133ee565b612f3b576001905061311e565b60606130a563150b7a0260e01b612f5061206c565b888787604051602401808573ffffffffffffffffffffffffffffffffffffffff1681526020018473ffffffffffffffffffffffffffffffffffffffff16815260200183815260200180602001828103825283818151815260200191508051906020019080838360005b83811015612fd4578082015181840152602081019050612fb9565b50505050905090810190601f1680156130015780820380516001836020036101000a031916815260200191505b5095505050505050604051602081830303815290604052907bffffffffffffffffffffffffffffffffffffffffffffffffffffffff19166020820180517bffffffffffffffffffffffffffffffffffffffffffffffffffffffff8381831617835250505050604051806060016040528060328152602001613965603291398773ffffffffffffffffffffffffffffffffffffffff166134019092919063ffffffff16565b905060008180602001905160208110156130be57600080fd5b8101908080519060200190929190505050905063150b7a0260e01b7bffffffffffffffffffffffffffffffffffffffffffffffffffffffff1916817bffffffffffffffffffffffffffffffffffffffffffffffffffffffff191614925050505b949350505050565b600080836001016000848152602001908152602001600020541415905092915050565b60008083600101600084815260200190815260200160002054905060008114613225576000600182039050600060018660000180549050039050600086600001828154811061319457fe5b90600052602060002001549050808760000184815481106131b157fe5b90600052602060002001819055506001830187600101600083815260200190815260200160002081905550866000018054806131e957fe5b6001900381819060005260206000200160009055905586600101600087815260200190815260200160002060009055600194505050505061322b565b60009150505b92915050565b600061323d8383613419565b61329657826000018290806001815401808255809150506001900390600052602060002001600090919091909150558260000180549050836001016000848152602001908152602001600020819055506001905061329b565b600090505b92915050565b600080846001016000858152602001908152602001600020549050600081141561334857846000016040518060400160405280868152602001858152509080600181540180825580915050600190039060005260206000209060020201600090919091909150600082015181600001556020820151816001015550508460000180549050856001016000868152602001908152602001600020819055506001915050613376565b8285600001600183038154811061335b57fe5b90600052602060002090600202016001018190555060009150505b9392505050565b613387838361343c565b6133946000848484612f0d565b6133e9576040517f08c379a00000000000000000000000000000000000000000000000000000000081526004018080602001828103825260328152602001806139656032913960400191505060405180910390fd5b505050565b600080823b905060008111915050919050565b60606134108484600085613630565b90509392505050565b600080836001016000848152602001908152602001600020541415905092915050565b600073ffffffffffffffffffffffffffffffffffffffff168273ffffffffffffffffffffffffffffffffffffffff1614156134df576040517f08c379a00000000000000000000000000000000000000000000000000000000081526004018080602001828103825260208152602001807f4552433732313a206d696e7420746f20746865207a65726f206164647265737381525060200191505060405180910390fd5b6134e88161204f565b1561355b576040517f08c379a000000000000000000000000000000000000000000000000000000000815260040180806020018281038252601c8152602001807f4552433732313a20746f6b656e20616c7265616479206d696e7465640000000081525060200191505060405180910390fd5b61356760008383612b39565b6135b881600160008573ffffffffffffffffffffffffffffffffffffffff1673ffffffffffffffffffffffffffffffffffffffff168152602001908152602001600020612b5890919063ffffffff16565b506135cf81836002612b729092919063ffffffff16565b50808273ffffffffffffffffffffffffffffffffffffffff16600073ffffffffffffffffffffffffffffffffffffffff167fddf252ad1be2c89b69c2b068fc378daa952ba7f163c4a11628f55a4df523b3ef60405160405180910390a45050565b60608247101561368b576040517f08c379a00000000000000000000000000000000000000000000000000000000081526004018080602001828103825260268152602001806139e66026913960400191505060405180910390fd5b613694856133ee565b613706576040517f08c379a000000000000000000000000000000000000000000000000000000000815260040180806020018281038252601d8152602001807f416464726573733a2063616c6c20746f206e6f6e2d636f6e747261637400000081525060200191505060405180910390fd5b600060608673ffffffffffffffffffffffffffffffffffffffff1685876040518082805190602001908083835b602083106137565780518252602082019150602081019050602083039250613733565b6001836020036101000a03801982511681845116808217855250505050505090500191505060006040518083038185875af1925050503d80600081146137b8576040519150601f19603f3d011682016040523d82523d6000602084013e6137bd565b606091505b50915091506137cd8282866137d9565b92505050949350505050565b606083156137e95782905061389e565b6000835111156137fc5782518084602001fd5b816040517f08c379a00000000000000000000000000000000000000000000000000000000081526004018080602001828103825283818151815260200191508051906020019080838360005b83811015613863578082015181840152602081019050613848565b50505050905090810190601f1680156138905780820380516001836020036101000a031916815260200191505b509250505060405180910390fd5b9392505050565b828054600181600116156101000203166002900490600052602060002090601f016020900481019282601f106138e657805160ff1916838001178555613914565b82800160010185558215613914579182015b828111156139135782518255916020019190600101906138f8565b5b5090506139219190613925565b5090565b5b8082111561393e576000816000905550600101613926565b509056fe456e756d657261626c655365743a20696e646578206f7574206f6620626f756e64734552433732313a207472616e7366657220746f206e6f6e20455243373231526563656976657220696d706c656d656e7465724552433732313a207472616e7366657220746f20746865207a65726f20616464726573734e6f7420656e6f756768204c494e4b202d2066696c6c20636f6e7472616374207769746820666175636574416464726573733a20696e73756666696369656e742062616c616e636520666f722063616c6c4552433732313a206f70657261746f7220717565727920666f72206e6f6e6578697374656e7420746f6b656e4552433732313a20617070726f76652063616c6c6572206973206e6f74206f776e6572206e6f7220617070726f76656420666f7220616c6c4552433732313a2062616c616e636520717565727920666f7220746865207a65726f20616464726573734552433732313a206f776e657220717565727920666f72206e6f6e6578697374656e7420746f6b656e456e756d657261626c654d61703a20696e646578206f7574206f6620626f756e64734552433732313a20617070726f76656420717565727920666f72206e6f6e6578697374656e7420746f6b656e4552433732314d657461646174613a2055524920736574206f66206e6f6e6578697374656e7420746f6b656e4552433732313a207472616e73666572206f6620746f6b656e2074686174206973206e6f74206f776e4552433732314d657461646174613a2055524920717565727920666f72206e6f6e6578697374656e7420746f6b656e4552433732313a20617070726f76616c20746f2063757272656e74206f776e65724552433732313a207472616e736665722063616c6c6572206973206e6f74206f776e6572206e6f7220617070726f766564a264697066735822122080253ff1101500e81a789c687140b8736b2c913dbb8c872e2d363419c2f22e2264736f6c634300060c0033",
  "immutableReferences": {
    "415": [
      {
        "length": 32,
        "start": 6541
      },
      {
        "length": 32,
        "start": 10081
      }
    ],
    "417": [
      {
        "length": 32,
        "start": 5522
      },
      {
        "length": 32,
        "start": 10141
      }
    ]
  },
  "source": "// contracts/Trophy.sol\n// SPDX-License-Identifier: MIT\n\npragma solidity ^0.6.12;\n\n// const RINKEBY_VRF_COORDINATOR = '0xb3dCcb4Cf7a26f6cf6B120Cf5A73875B7BBc655B'\n// const RINKEBY_LINKTOKEN = '0x01BE23585060835E02B77ef475b0Cc51aA1e0709'\n// const RINKEBY_KEYHASH = '0x2ed0feb3e7fd2022120aa84fab1945545a9f2ffc9076fd6156fa96eaff4c1311'\n\nimport \"@openzeppelin/contracts/token/ERC721/ERC721.sol\";\nimport \"@chainlink/contracts/src/v0.6/VRFConsumerBase.sol\";\nimport \"@openzeppelin/contracts/access/Ownable.sol\";\nimport \"@openzeppelin/contracts/utils/Strings.sol\";\n\ncontract TrophyChar is ERC721, VRFConsumerBase {\n    using SafeMath for uint256;\n    using Strings for string;\n    bytes32 public keyHash;\n    address public VRFCoordinator;\n    uint256 internal fee;\n    uint256 public randomResult;\n    address public Linktoken;\n\n    struct Trophy {\n        uint256 rarity;\n        uint256 worth;\n        string name;\n    }\n\n    Trophy[] public trophies;\n    // mappings will go here \n    mapping(bytes32 => string) requestToTrophyName;\n    mapping(bytes32 => address) requestToSender;\n    mapping(bytes32 => uint256) requestToTokenId;\n\n\n\n    constructor(address _VRFCoordinator, address _LinkToken, bytes32 _keyHash) public\n    VRFConsumerBase(_VRFCoordinator, _LinkToken) \n    ERC721(\"TrophyChar\", \"TRP\") {\n        VRFCoordinator = _VRFCoordinator;\n        keyHash = _keyHash;\n        Linktoken = _LinkToken;\n        fee = 0.1 * 10**18; // 0.1 LINK     \n    }\n\n    function requestNewRandomTrophy (uint256 userProvidedSeed, string memory name) public returns (bytes32) {\n        require(\n            LINK.balanceOf(address(this)) >= fee,\n            \"Not enough LINK - fill contract with faucet\"\n        );\n        bytes32 requestId = requestRandomness(keyHash, fee, userProvidedSeed);\n        requestToTrophyName[requestId] = name;\n        requestToSender[requestId] = msg.sender;\n        return requestId;\n    }\n\n    function fulfillRandomness(bytes32 requestId, uint256 randomNumber)\n    internal override {\n        //define the NFT\n        uint256 newId = trophies.length;\n        uint256 rarity = (randomNumber % 100);\n        uint256 worth = ((randomNumber % 1000) / 100);\n        // uint256 stamina = ((randomNumber % 1000000) / 10000);\n\n        trophies.push(\n            Trophy(\n                rarity,\n                worth,\n                // stamina,\n                requestToTrophyName[requestId]\n            )\n        );\n        _safeMint(requestToSender[requestId], newId);\n\n    }\n\n    function setTokenURI(uint256 tokenId, string memory _tokenURI) public {\n        require(\n            _isApprovedOrOwner(_msgSender(), tokenId),\n            \"ERC721: transfer caller is not owner nor approved\"\n        );\n        _setTokenURI(tokenId, _tokenURI);\n\n    }\n\n    function getTokenURI(uint256 tokenId) public view returns (string memory) {\n        return tokenURI(tokenId);\n    }\n\n    function getLevel(uint256 tokenId) public view returns (uint256) {\n        return sqrt(trophies[tokenId].rarity);\n    }\n\n    function getNumberOfTrophies() public view returns (uint256) {\n        return trophies.length; \n    }\n\n    function getTrophyOverView(uint256 tokenId)\n        public\n        view\n        returns (\n            string memory,\n            uint256,\n            uint256,\n            uint256\n        )\n    {\n        return (\n            trophies[tokenId].name,\n            trophies[tokenId].rarity + trophies[tokenId].worth, \n            getLevel(tokenId),\n            trophies[tokenId].rarity\n        );\n    }\n\n    function getTrophyStats(uint256 tokenId)\n        public\n        view\n        returns (\n            uint256,\n            uint256\n        )\n    {\n        return (\n            trophies[tokenId].rarity,\n            trophies[tokenId].worth\n        );\n    }\n\n    function sqrt(uint256 x) internal view returns (uint256 y) {\n        uint256 z = (x + 1) / 2;\n        y = x;\n        while (z < y) {\n            y = z;\n            z = (x / z + z) / 2;\n        }\n    }\n\n\n\n\n\n}",
  "sourcePath": "/home/develioper/Desktop/Chainlink-master/RPG-Solidity-Game/blockchain/src/contracts/TrophyChar.sol",
  "compiler": {
    "name": "solc",
    "version": "0.6.12+commit.27d51765.Emscripten.clang"
  },
  "schemaVersion": "3.3.4",
  "updatedAt": "2021-04-07T17:52:08.279Z",
  "networkType": "ethereum",
  "devdoc": {
    "kind": "dev",
    "methods": {
      "approve(address,uint256)": {
        "details": "See {IERC721-approve}."
      },
      "balanceOf(address)": {
        "details": "See {IERC721-balanceOf}."
      },
      "baseURI()": {
        "details": "Returns the base URI set via {_setBaseURI}. This will be automatically added as a prefix in {tokenURI} to each token's URI, or to the token ID if no specific URI is set for that token ID."
      },
      "getApproved(uint256)": {
        "details": "See {IERC721-getApproved}."
      },
      "isApprovedForAll(address,address)": {
        "details": "See {IERC721-isApprovedForAll}."
      },
      "name()": {
        "details": "See {IERC721Metadata-name}."
      },
      "ownerOf(uint256)": {
        "details": "See {IERC721-ownerOf}."
      },
      "safeTransferFrom(address,address,uint256)": {
        "details": "See {IERC721-safeTransferFrom}."
      },
      "safeTransferFrom(address,address,uint256,bytes)": {
        "details": "See {IERC721-safeTransferFrom}."
      },
      "setApprovalForAll(address,bool)": {
        "details": "See {IERC721-setApprovalForAll}."
      },
      "supportsInterface(bytes4)": {
        "details": "See {IERC165-supportsInterface}. Time complexity O(1), guaranteed to always use less than 30 000 gas."
      },
      "symbol()": {
        "details": "See {IERC721Metadata-symbol}."
      },
      "tokenByIndex(uint256)": {
        "details": "See {IERC721Enumerable-tokenByIndex}."
      },
      "tokenOfOwnerByIndex(address,uint256)": {
        "details": "See {IERC721Enumerable-tokenOfOwnerByIndex}."
      },
      "tokenURI(uint256)": {
        "details": "See {IERC721Metadata-tokenURI}."
      },
      "totalSupply()": {
        "details": "See {IERC721Enumerable-totalSupply}."
      },
      "transferFrom(address,address,uint256)": {
        "details": "See {IERC721-transferFrom}."
      }
    },
    "version": 1
  },
  "userdoc": {
    "kind": "user",
    "methods": {},
    "version": 1
  }
}