{
  "contractName": "TrophyChar",
  "abi": [
    {
      "inputs": [
        {
          "internalType": "address",
          "name": "_VRFCoordinator",
          "type": "address"
        },
        {
          "internalType": "address",
          "name": "_LinkToken",
          "type": "address"
        },
        {
          "internalType": "bytes32",
          "name": "_keyHash",
          "type": "bytes32"
        }
      ],
      "stateMutability": "nonpayable",
      "type": "constructor"
    },
    {
      "anonymous": false,
      "inputs": [
        {
          "indexed": true,
          "internalType": "address",
          "name": "owner",
          "type": "address"
        },
        {
          "indexed": true,
          "internalType": "address",
          "name": "approved",
          "type": "address"
        },
        {
          "indexed": true,
          "internalType": "uint256",
          "name": "tokenId",
          "type": "uint256"
        }
      ],
      "name": "Approval",
      "type": "event"
    },
    {
      "anonymous": false,
      "inputs": [
        {
          "indexed": true,
          "internalType": "address",
          "name": "owner",
          "type": "address"
        },
        {
          "indexed": true,
          "internalType": "address",
          "name": "operator",
          "type": "address"
        },
        {
          "indexed": false,
          "internalType": "bool",
          "name": "approved",
          "type": "bool"
        }
      ],
      "name": "ApprovalForAll",
      "type": "event"
    },
    {
      "anonymous": false,
      "inputs": [
        {
          "indexed": true,
          "internalType": "address",
          "name": "from",
          "type": "address"
        },
        {
          "indexed": true,
          "internalType": "address",
          "name": "to",
          "type": "address"
        },
        {
          "indexed": true,
          "internalType": "uint256",
          "name": "tokenId",
          "type": "uint256"
        }
      ],
      "name": "Transfer",
      "type": "event"
    },
    {
      "inputs": [],
      "name": "Linktoken",
      "outputs": [
        {
          "internalType": "address",
          "name": "",
          "type": "address"
        }
      ],
      "stateMutability": "view",
      "type": "function"
    },
    {
      "inputs": [],
      "name": "VRFCoordinator",
      "outputs": [
        {
          "internalType": "address",
          "name": "",
          "type": "address"
        }
      ],
      "stateMutability": "view",
      "type": "function"
    },
    {
      "inputs": [],
      "name": "add",
      "outputs": [
        {
          "internalType": "address",
          "name": "",
          "type": "address"
        }
      ],
      "stateMutability": "view",
      "type": "function"
    },
    {
      "inputs": [
        {
          "internalType": "address",
          "name": "to",
          "type": "address"
        },
        {
          "internalType": "uint256",
          "name": "tokenId",
          "type": "uint256"
        }
      ],
      "name": "approve",
      "outputs": [],
      "stateMutability": "nonpayable",
      "type": "function"
    },
    {
      "inputs": [
        {
          "internalType": "address",
          "name": "owner",
          "type": "address"
        }
      ],
      "name": "balanceOf",
      "outputs": [
        {
          "internalType": "uint256",
          "name": "",
          "type": "uint256"
        }
      ],
      "stateMutability": "view",
      "type": "function"
    },
    {
      "inputs": [
        {
          "internalType": "uint256",
          "name": "tokenId",
          "type": "uint256"
        }
      ],
      "name": "getApproved",
      "outputs": [
        {
          "internalType": "address",
          "name": "",
          "type": "address"
        }
      ],
      "stateMutability": "view",
      "type": "function"
    },
    {
      "inputs": [
        {
          "internalType": "address",
          "name": "owner",
          "type": "address"
        },
        {
          "internalType": "address",
          "name": "operator",
          "type": "address"
        }
      ],
      "name": "isApprovedForAll",
      "outputs": [
        {
          "internalType": "bool",
          "name": "",
          "type": "bool"
        }
      ],
      "stateMutability": "view",
      "type": "function"
    },
    {
      "inputs": [],
      "name": "keyHash",
      "outputs": [
        {
          "internalType": "bytes32",
          "name": "",
          "type": "bytes32"
        }
      ],
      "stateMutability": "view",
      "type": "function"
    },
    {
      "inputs": [],
      "name": "name",
      "outputs": [
        {
          "internalType": "string",
          "name": "",
          "type": "string"
        }
      ],
      "stateMutability": "view",
      "type": "function"
    },
    {
      "inputs": [
        {
          "internalType": "uint256",
          "name": "tokenId",
          "type": "uint256"
        }
      ],
      "name": "ownerOf",
      "outputs": [
        {
          "internalType": "address",
          "name": "",
          "type": "address"
        }
      ],
      "stateMutability": "view",
      "type": "function"
    },
    {
      "inputs": [],
      "name": "randomResult",
      "outputs": [
        {
          "internalType": "uint256",
          "name": "",
          "type": "uint256"
        }
      ],
      "stateMutability": "view",
      "type": "function"
    },
    {
      "inputs": [
        {
          "internalType": "bytes32",
          "name": "requestId",
          "type": "bytes32"
        },
        {
          "internalType": "uint256",
          "name": "randomness",
          "type": "uint256"
        }
      ],
      "name": "rawFulfillRandomness",
      "outputs": [],
      "stateMutability": "nonpayable",
      "type": "function"
    },
    {
      "inputs": [
        {
          "internalType": "address",
          "name": "from",
          "type": "address"
        },
        {
          "internalType": "address",
          "name": "to",
          "type": "address"
        },
        {
          "internalType": "uint256",
          "name": "tokenId",
          "type": "uint256"
        }
      ],
      "name": "safeTransferFrom",
      "outputs": [],
      "stateMutability": "nonpayable",
      "type": "function"
    },
    {
      "inputs": [
        {
          "internalType": "address",
          "name": "from",
          "type": "address"
        },
        {
          "internalType": "address",
          "name": "to",
          "type": "address"
        },
        {
          "internalType": "uint256",
          "name": "tokenId",
          "type": "uint256"
        },
        {
          "internalType": "bytes",
          "name": "_data",
          "type": "bytes"
        }
      ],
      "name": "safeTransferFrom",
      "outputs": [],
      "stateMutability": "nonpayable",
      "type": "function"
    },
    {
      "inputs": [
        {
          "internalType": "address",
          "name": "operator",
          "type": "address"
        },
        {
          "internalType": "bool",
          "name": "approved",
          "type": "bool"
        }
      ],
      "name": "setApprovalForAll",
      "outputs": [],
      "stateMutability": "nonpayable",
      "type": "function"
    },
    {
      "inputs": [
        {
          "internalType": "bytes4",
          "name": "interfaceId",
          "type": "bytes4"
        }
      ],
      "name": "supportsInterface",
      "outputs": [
        {
          "internalType": "bool",
          "name": "",
          "type": "bool"
        }
      ],
      "stateMutability": "view",
      "type": "function"
    },
    {
      "inputs": [],
      "name": "symbol",
      "outputs": [
        {
          "internalType": "string",
          "name": "",
          "type": "string"
        }
      ],
      "stateMutability": "view",
      "type": "function"
    },
    {
      "inputs": [
        {
          "internalType": "uint256",
          "name": "tokenId",
          "type": "uint256"
        }
      ],
      "name": "tokenURI",
      "outputs": [
        {
          "internalType": "string",
          "name": "",
          "type": "string"
        }
      ],
      "stateMutability": "view",
      "type": "function"
    },
    {
      "inputs": [],
      "name": "tokensCount",
      "outputs": [
        {
          "internalType": "uint256",
          "name": "",
          "type": "uint256"
        }
      ],
      "stateMutability": "view",
      "type": "function"
    },
    {
      "inputs": [
        {
          "internalType": "address",
          "name": "from",
          "type": "address"
        },
        {
          "internalType": "address",
          "name": "to",
          "type": "address"
        },
        {
          "internalType": "uint256",
          "name": "tokenId",
          "type": "uint256"
        }
      ],
      "name": "transferFrom",
      "outputs": [],
      "stateMutability": "nonpayable",
      "type": "function"
    },
    {
      "inputs": [
        {
          "internalType": "uint256",
          "name": "",
          "type": "uint256"
        }
      ],
      "name": "trophies",
      "outputs": [
        {
          "internalType": "uint256",
          "name": "tokenId",
          "type": "uint256"
        },
        {
          "internalType": "uint256",
          "name": "rarity",
          "type": "uint256"
        },
        {
          "internalType": "uint256",
          "name": "worth",
          "type": "uint256"
        },
        {
          "internalType": "string",
          "name": "name",
          "type": "string"
        },
        {
          "internalType": "uint256",
          "name": "levelPass",
          "type": "uint256"
        }
      ],
      "stateMutability": "view",
      "type": "function"
    },
    {
      "inputs": [
        {
          "internalType": "address",
          "name": "",
          "type": "address"
        },
        {
          "internalType": "uint256",
          "name": "",
          "type": "uint256"
        }
      ],
      "name": "usersNft",
      "outputs": [
        {
          "internalType": "uint256",
          "name": "tokenId",
          "type": "uint256"
        },
        {
          "internalType": "uint256",
          "name": "rarity",
          "type": "uint256"
        },
        {
          "internalType": "uint256",
          "name": "worth",
          "type": "uint256"
        },
        {
          "internalType": "string",
          "name": "name",
          "type": "string"
        },
        {
          "internalType": "uint256",
          "name": "levelPass",
          "type": "uint256"
        }
      ],
      "stateMutability": "view",
      "type": "function"
    },
    {
      "inputs": [
        {
          "internalType": "address",
          "name": "",
          "type": "address"
        }
      ],
      "name": "usersNftCount",
      "outputs": [
        {
          "internalType": "uint256",
          "name": "",
          "type": "uint256"
        }
      ],
      "stateMutability": "view",
      "type": "function"
    },
    {
      "inputs": [
        {
          "internalType": "uint256",
          "name": "userProvidedSeed",
          "type": "uint256"
        },
        {
          "internalType": "string",
          "name": "name",
          "type": "string"
        },
        {
          "internalType": "uint256",
          "name": "levelPass",
          "type": "uint256"
        },
        {
          "internalType": "address",
          "name": "walletAddress",
          "type": "address"
        },
        {
          "internalType": "string",
          "name": "_tokenURI",
          "type": "string"
        }
      ],
      "name": "requestNewRandomTrophy",
      "outputs": [
        {
          "internalType": "bytes32",
          "name": "",
          "type": "bytes32"
        }
      ],
      "stateMutability": "nonpayable",
      "type": "function"
    },
    {
      "inputs": [
        {
          "internalType": "uint256",
          "name": "tokenId",
          "type": "uint256"
        }
      ],
      "name": "getLevel",
      "outputs": [
        {
          "internalType": "uint256",
          "name": "",
          "type": "uint256"
        }
      ],
      "stateMutability": "view",
      "type": "function"
    },
    {
      "inputs": [],
      "name": "getNumberOfTrophies",
      "outputs": [
        {
          "internalType": "uint256",
          "name": "",
          "type": "uint256"
        }
      ],
      "stateMutability": "view",
      "type": "function"
    },
    {
      "inputs": [
        {
          "internalType": "uint256",
          "name": "tokenId",
          "type": "uint256"
        }
      ],
      "name": "getTrophyOverView",
      "outputs": [
        {
          "internalType": "string",
          "name": "",
          "type": "string"
        },
        {
          "internalType": "uint256",
          "name": "",
          "type": "uint256"
        },
        {
          "internalType": "uint256",
          "name": "",
          "type": "uint256"
        },
        {
          "internalType": "uint256",
          "name": "",
          "type": "uint256"
        }
      ],
      "stateMutability": "view",
      "type": "function"
    },
    {
      "inputs": [
        {
          "internalType": "uint256",
          "name": "tokenId",
          "type": "uint256"
        }
      ],
      "name": "getTrophyStats",
      "outputs": [
        {
          "internalType": "uint256",
          "name": "",
          "type": "uint256"
        },
        {
          "internalType": "uint256",
          "name": "",
          "type": "uint256"
        }
      ],
      "stateMutability": "view",
      "type": "function"
    }
  ],
  "bytecode": "0x60c06040523480156200001157600080fd5b5060405162004606380380620046068339818101604052810190620000379190620002c8565b82826040518060400160405280600a81526020017f54726f70687943686172000000000000000000000000000000000000000000008152506040518060400160405280600381526020017f54525000000000000000000000000000000000000000000000000000000000008152508160009080519060200190620000bd929190620001ea565b508060019080519060200190620000d6929190620001ea565b5050508173ffffffffffffffffffffffffffffffffffffffff1660a08173ffffffffffffffffffffffffffffffffffffffff1660601b815250508073ffffffffffffffffffffffffffffffffffffffff1660808173ffffffffffffffffffffffffffffffffffffffff1660601b81525050505082600960006101000a81548173ffffffffffffffffffffffffffffffffffffffff021916908373ffffffffffffffffffffffffffffffffffffffff1602179055508060088190555081600c60006101000a81548173ffffffffffffffffffffffffffffffffffffffff021916908373ffffffffffffffffffffffffffffffffffffffff16021790555067016345785d8a0000600a81905550505050620003f5565b828054620001f8906200035c565b90600052602060002090601f0160209004810192826200021c576000855562000268565b82601f106200023757805160ff191683800117855562000268565b8280016001018555821562000268579182015b82811115620002675782518255916020019190600101906200024a565b5b5090506200027791906200027b565b5090565b5b80821115620002965760008160009055506001016200027c565b5090565b600081519050620002ab81620003c1565b92915050565b600081519050620002c281620003db565b92915050565b600080600060608486031215620002de57600080fd5b6000620002ee868287016200029a565b935050602062000301868287016200029a565b92505060406200031486828701620002b1565b9150509250925092565b60006200032b826200033c565b9050919050565b6000819050919050565b600073ffffffffffffffffffffffffffffffffffffffff82169050919050565b600060028204905060018216806200037557607f821691505b602082108114156200038c576200038b62000392565b5b50919050565b7f4e487b7100000000000000000000000000000000000000000000000000000000600052602260045260246000fd5b620003cc816200031e565b8114620003d857600080fd5b50565b620003e68162000332565b8114620003f257600080fd5b50565b60805160601c60a05160601c6141d76200042f60003960008181610eb70152611c400152600081816109bf0152611c0401526141d76000f3fe608060405234801561001057600080fd5b50600436106101c45760003560e01c80636352211e116100f9578063a22cb46511610097578063b88d4fde11610071578063b88d4fde1461054c578063c87b56dd14610568578063d4995eb114610598578063e985e9c5146105cb576101c4565b8063a22cb465146104de578063a64ed8ba146104fa578063b167416714610518576101c4565b806391e348f1116100d357806391e348f11461043f57806394985ddd1461047057806395d89b411461048c578063a06bb50f146104aa576101c4565b80636352211e146103af57806370a08231146103df57806386481d401461040f576101c4565b80633edf2cd71161016657806342842e0e1161014057806342842e0e146103275780634f2be91f1461034357806354cbd4dd1461036157806361728f3914610391576101c4565b80633edf2cd7146102bb5780633f13595a146102eb57806342619f6614610309576101c4565b8063081812fc116101a2578063081812fc14610235578063095ea7b31461026557806323b872dd1461028157806333b608631461029d576101c4565b806301ffc9a7146101c957806306fdde03146101f957806307ed17e314610217575b600080fd5b6101e360048036038101906101de9190612f81565b6105fb565b6040516101f09190613962565b60405180910390f35b6102016106dd565b60405161020e9190613a06565b60405180910390f35b61021f61076f565b60405161022c91906138bd565b60405180910390f35b61024f600480360381019061024a9190612fd3565b610795565b60405161025c91906138bd565b60405180910390f35b61027f600480360381019061027a9190612ee0565b61081a565b005b61029b60048036038101906102969190612dda565b610932565b005b6102a5610992565b6040516102b291906138bd565b60405180910390f35b6102d560048036038101906102d09190613025565b6109b8565b6040516102e2919061397d565b60405180910390f35b6102f3610bd3565b6040516103009190613cb4565b60405180910390f35b610311610be0565b60405161031e9190613cb4565b60405180910390f35b610341600480360381019061033c9190612dda565b610be6565b005b61034b610c06565b60405161035891906138bd565b60405180910390f35b61037b60048036038101906103769190612d75565b610c2c565b6040516103889190613cb4565b60405180910390f35b610399610c44565b6040516103a6919061397d565b60405180910390f35b6103c960048036038101906103c49190612fd3565b610c4a565b6040516103d691906138bd565b60405180910390f35b6103f960048036038101906103f49190612d75565b610cfc565b6040516104069190613cb4565b60405180910390f35b61042960048036038101906104249190612fd3565b610db4565b6040516104369190613cb4565b60405180910390f35b61045960048036038101906104549190612fd3565b610e11565b604051610467929190613ccf565b60405180910390f35b61048a60048036038101906104859190612f45565b610eb5565b005b610494610f51565b6040516104a19190613a06565b60405180910390f35b6104c460048036038101906104bf9190612fd3565b610fe3565b6040516104d5959493929190613cf8565b60405180910390f35b6104f860048036038101906104f39190612ea4565b6110b1565b005b610502611232565b60405161050f9190613cb4565b60405180910390f35b610532600480360381019061052d9190612ee0565b611238565b604051610543959493929190613cf8565b60405180910390f35b61056660048036038101906105619190612e29565b611303565b005b610582600480360381019061057d9190612fd3565b611365565b60405161058f9190613a06565b60405180910390f35b6105b260048036038101906105ad9190612fd3565b6114b7565b6040516105c29493929190613a28565b60405180910390f35b6105e560048036038101906105e09190612d9e565b61169b565b6040516105f29190613962565b60405180910390f35b60007f80ac58cd000000000000000000000000000000000000000000000000000000007bffffffffffffffffffffffffffffffffffffffffffffffffffffffff1916827bffffffffffffffffffffffffffffffffffffffffffffffffffffffff191614806106c657507f5b5e139f000000000000000000000000000000000000000000000000000000007bffffffffffffffffffffffffffffffffffffffffffffffffffffffff1916827bffffffffffffffffffffffffffffffffffffffffffffffffffffffff1916145b806106d657506106d58261172f565b5b9050919050565b6060600080546106ec90613fa1565b80601f016020809104026020016040519081016040528092919081815260200182805461071890613fa1565b80156107655780601f1061073a57610100808354040283529160200191610765565b820191906000526020600020905b81548152906001019060200180831161074857829003601f168201915b5050505050905090565b600c60009054906101000a900473ffffffffffffffffffffffffffffffffffffffff1681565b60006107a082611799565b6107df576040517f08c379a00000000000000000000000000000000000000000000000000000000081526004016107d690613bf4565b60405180910390fd5b6004600083815260200190815260200160002060009054906101000a900473ffffffffffffffffffffffffffffffffffffffff169050919050565b600061082582610c4a565b90508073ffffffffffffffffffffffffffffffffffffffff168373ffffffffffffffffffffffffffffffffffffffff161415610896576040517f08c379a000000000000000000000000000000000000000000000000000000000815260040161088d90613c74565b60405180910390fd5b8073ffffffffffffffffffffffffffffffffffffffff166108b5611805565b73ffffffffffffffffffffffffffffffffffffffff1614806108e457506108e3816108de611805565b61169b565b5b610923576040517f08c379a000000000000000000000000000000000000000000000000000000000815260040161091a90613b34565b60405180910390fd5b61092d838361180d565b505050565b61094361093d611805565b826118c6565b610982576040517f08c379a000000000000000000000000000000000000000000000000000000000815260040161097990613c94565b60405180910390fd5b61098d8383836119a4565b505050565b600960009054906101000a900473ffffffffffffffffffffffffffffffffffffffff1681565b6000600a547f000000000000000000000000000000000000000000000000000000000000000073ffffffffffffffffffffffffffffffffffffffff166370a08231306040518263ffffffff1660e01b8152600401610a1691906138bd565b60206040518083038186803b158015610a2e57600080fd5b505afa158015610a42573d6000803e3d6000fd5b505050506040513d601f19601f82011682018060405250810190610a669190612ffc565b1015610aa7576040517f08c379a0000000000000000000000000000000000000000000000000000000008152600401610a9e90613af4565b60405180910390fd5b6000610ab8600854600a5489611c00565b905085601060008381526020019081526020016000209080519060200190610ae1929190612b5a565b50846011600083815260200190815260200160002081905550336012600083815260200190815260200160002060006101000a81548173ffffffffffffffffffffffffffffffffffffffff021916908373ffffffffffffffffffffffffffffffffffffffff160217905550836013600083815260200190815260200160002060006101000a81548173ffffffffffffffffffffffffffffffffffffffff021916908373ffffffffffffffffffffffffffffffffffffffff16021790555082601560008381526020019081526020016000209080519060200190610bc5929190612b5a565b508091505095945050505050565b6000600f80549050905090565b600b5481565b610c0183838360405180602001604052806000815250611303565b505050565b600e60009054906101000a900473ffffffffffffffffffffffffffffffffffffffff1681565b60176020528060005260406000206000915090505481565b60085481565b6000806002600084815260200190815260200160002060009054906101000a900473ffffffffffffffffffffffffffffffffffffffff169050600073ffffffffffffffffffffffffffffffffffffffff168173ffffffffffffffffffffffffffffffffffffffff161415610cf3576040517f08c379a0000000000000000000000000000000000000000000000000000000008152600401610cea90613b74565b60405180910390fd5b80915050919050565b60008073ffffffffffffffffffffffffffffffffffffffff168273ffffffffffffffffffffffffffffffffffffffff161415610d6d576040517f08c379a0000000000000000000000000000000000000000000000000000000008152600401610d6490613b54565b60405180910390fd5b600360008373ffffffffffffffffffffffffffffffffffffffff1673ffffffffffffffffffffffffffffffffffffffff168152602001908152602001600020549050919050565b6000610e0a600f8381548110610df3577f4e487b7100000000000000000000000000000000000000000000000000000000600052603260045260246000fd5b906000526020600020906005020160010154611d61565b9050919050565b600080600f8381548110610e4e577f4e487b7100000000000000000000000000000000000000000000000000000000600052603260045260246000fd5b906000526020600020906005020160010154600f8481548110610e9a577f4e487b7100000000000000000000000000000000000000000000000000000000600052603260045260246000fd5b90600052602060002090600502016002015491509150915091565b7f000000000000000000000000000000000000000000000000000000000000000073ffffffffffffffffffffffffffffffffffffffff163373ffffffffffffffffffffffffffffffffffffffff1614610f43576040517f08c379a0000000000000000000000000000000000000000000000000000000008152600401610f3a90613c54565b60405180910390fd5b610f4d8282611dbe565b5050565b606060018054610f6090613fa1565b80601f0160208091040260200160405190810160405280929190818152602001828054610f8c90613fa1565b8015610fd95780601f10610fae57610100808354040283529160200191610fd9565b820191906000526020600020905b815481529060010190602001808311610fbc57829003601f168201915b5050505050905090565b600f8181548110610ff357600080fd5b906000526020600020906005020160009150905080600001549080600101549080600201549080600301805461102890613fa1565b80601f016020809104026020016040519081016040528092919081815260200182805461105490613fa1565b80156110a15780601f10611076576101008083540402835291602001916110a1565b820191906000526020600020905b81548152906001019060200180831161108457829003601f168201915b5050505050908060040154905085565b6110b9611805565b73ffffffffffffffffffffffffffffffffffffffff168273ffffffffffffffffffffffffffffffffffffffff161415611127576040517f08c379a000000000000000000000000000000000000000000000000000000000815260040161111e90613ad4565b60405180910390fd5b8060056000611134611805565b73ffffffffffffffffffffffffffffffffffffffff1673ffffffffffffffffffffffffffffffffffffffff16815260200190815260200160002060008473ffffffffffffffffffffffffffffffffffffffff1673ffffffffffffffffffffffffffffffffffffffff16815260200190815260200160002060006101000a81548160ff0219169083151502179055508173ffffffffffffffffffffffffffffffffffffffff166111e1611805565b73ffffffffffffffffffffffffffffffffffffffff167f17307eab39ab6107e8899845ad3d59bd9653f200f220920489ca2b5937696c31836040516112269190613962565b60405180910390a35050565b600d5481565b60166020528160005260406000206020528060005260406000206000915091505080600001549080600101549080600201549080600301805461127a90613fa1565b80601f01602080910402602001604051908101604052809291908181526020018280546112a690613fa1565b80156112f35780601f106112c8576101008083540402835291602001916112f3565b820191906000526020600020905b8154815290600101906020018083116112d657829003601f168201915b5050505050908060040154905085565b61131461130e611805565b836118c6565b611353576040517f08c379a000000000000000000000000000000000000000000000000000000000815260040161134a90613c94565b60405180910390fd5b61135f848484846123ba565b50505050565b606061137082611799565b6113af576040517f08c379a00000000000000000000000000000000000000000000000000000000081526004016113a690613bd4565b60405180910390fd5b60006006600084815260200190815260200160002080546113cf90613fa1565b80601f01602080910402602001604051908101604052809291908181526020018280546113fb90613fa1565b80156114485780601f1061141d57610100808354040283529160200191611448565b820191906000526020600020905b81548152906001019060200180831161142b57829003601f168201915b505050505090506000611459612416565b905060008151141561146f5781925050506114b2565b6000825111156114a457808260405160200161148c929190613899565b604051602081830303815290604052925050506114b2565b6114ad8461242d565b925050505b919050565b60606000806000600f85815481106114f8577f4e487b7100000000000000000000000000000000000000000000000000000000600052603260045260246000fd5b9060005260206000209060050201600301600f8681548110611543577f4e487b7100000000000000000000000000000000000000000000000000000000600052603260045260246000fd5b906000526020600020906005020160020154600f878154811061158f577f4e487b7100000000000000000000000000000000000000000000000000000000600052603260045260246000fd5b9060005260206000209060050201600101546115ab9190613e26565b6115b487610db4565b600f88815481106115ee577f4e487b7100000000000000000000000000000000000000000000000000000000600052603260045260246000fd5b90600052602060002090600502016001015483805461160c90613fa1565b80601f016020809104026020016040519081016040528092919081815260200182805461163890613fa1565b80156116855780601f1061165a57610100808354040283529160200191611685565b820191906000526020600020905b81548152906001019060200180831161166857829003601f168201915b5050505050935093509350935093509193509193565b6000600560008473ffffffffffffffffffffffffffffffffffffffff1673ffffffffffffffffffffffffffffffffffffffff16815260200190815260200160002060008373ffffffffffffffffffffffffffffffffffffffff1673ffffffffffffffffffffffffffffffffffffffff16815260200190815260200160002060009054906101000a900460ff16905092915050565b60007f01ffc9a7000000000000000000000000000000000000000000000000000000007bffffffffffffffffffffffffffffffffffffffffffffffffffffffff1916827bffffffffffffffffffffffffffffffffffffffffffffffffffffffff1916149050919050565b60008073ffffffffffffffffffffffffffffffffffffffff166002600084815260200190815260200160002060009054906101000a900473ffffffffffffffffffffffffffffffffffffffff1673ffffffffffffffffffffffffffffffffffffffff1614159050919050565b600033905090565b816004600083815260200190815260200160002060006101000a81548173ffffffffffffffffffffffffffffffffffffffff021916908373ffffffffffffffffffffffffffffffffffffffff160217905550808273ffffffffffffffffffffffffffffffffffffffff1661188083610c4a565b73ffffffffffffffffffffffffffffffffffffffff167f8c5be1e5ebec7d5bd14f71427d1e84f3dd0314c0f7b2291e5b200ac8c7c3b92560405160405180910390a45050565b60006118d182611799565b611910576040517f08c379a000000000000000000000000000000000000000000000000000000000815260040161190790613b14565b60405180910390fd5b600061191b83610c4a565b90508073ffffffffffffffffffffffffffffffffffffffff168473ffffffffffffffffffffffffffffffffffffffff16148061198a57508373ffffffffffffffffffffffffffffffffffffffff1661197284610795565b73ffffffffffffffffffffffffffffffffffffffff16145b8061199b575061199a818561169b565b5b91505092915050565b8273ffffffffffffffffffffffffffffffffffffffff166119c482610c4a565b73ffffffffffffffffffffffffffffffffffffffff1614611a1a576040517f08c379a0000000000000000000000000000000000000000000000000000000008152600401611a1190613c14565b60405180910390fd5b600073ffffffffffffffffffffffffffffffffffffffff168273ffffffffffffffffffffffffffffffffffffffff161415611a8a576040517f08c379a0000000000000000000000000000000000000000000000000000000008152600401611a8190613ab4565b60405180910390fd5b611a958383836124d4565b611aa060008261180d565b6001600360008573ffffffffffffffffffffffffffffffffffffffff1673ffffffffffffffffffffffffffffffffffffffff1681526020019081526020016000206000828254611af09190613ead565b925050819055506001600360008473ffffffffffffffffffffffffffffffffffffffff1673ffffffffffffffffffffffffffffffffffffffff1681526020019081526020016000206000828254611b479190613e26565b92505081905550816002600083815260200190815260200160002060006101000a81548173ffffffffffffffffffffffffffffffffffffffff021916908373ffffffffffffffffffffffffffffffffffffffff160217905550808273ffffffffffffffffffffffffffffffffffffffff168473ffffffffffffffffffffffffffffffffffffffff167fddf252ad1be2c89b69c2b068fc378daa952ba7f163c4a11628f55a4df523b3ef60405160405180910390a4505050565b60007f000000000000000000000000000000000000000000000000000000000000000073ffffffffffffffffffffffffffffffffffffffff16634000aea07f0000000000000000000000000000000000000000000000000000000000000000858786604051602001611c73929190613998565b6040516020818303038152906040526040518463ffffffff1660e01b8152600401611ca093929190613924565b602060405180830381600087803b158015611cba57600080fd5b505af1158015611cce573d6000803e3d6000fd5b505050506040513d601f19601f82011682018060405250810190611cf29190612f1c565b506000611d14858430600760008a8152602001908152602001600020546124d9565b905060016007600087815260200190815260200160002054611d369190613e26565b6007600087815260200190815260200160002081905550611d578582612515565b9150509392505050565b6000806002600184611d739190613e26565b611d7d9190613e7c565b90508291505b81811015611db8578091506002818285611d9d9190613e7c565b611da79190613e26565b611db19190613e7c565b9050611d83565b50919050565b6000600f8054905090506000606483611dd79190614030565b9050600060646103e885611deb9190614030565b611df59190613e7c565b9050600f6040518060a00160405280858152602001848152602001838152602001601060008981526020019081526020016000208054611e3490613fa1565b80601f0160208091040260200160405190810160405280929190818152602001828054611e6090613fa1565b8015611ead5780601f10611e8257610100808354040283529160200191611ead565b820191906000526020600020905b815481529060010190602001808311611e9057829003601f168201915b50505050508152602001601160008981526020019081526020016000205481525090806001815401808255809150506001900390600052602060002090600502016000909190919091506000820151816000015560208201518160010155604082015181600201556060820151816003019080519060200190611f31929190612b5a565b50608082015181600401555050600d6000815480929190611f5190613fd3565b91905055506013600086815260200190815260200160002060009054906101000a900473ffffffffffffffffffffffffffffffffffffffff16600e60006101000a81548173ffffffffffffffffffffffffffffffffffffffff021916908373ffffffffffffffffffffffffffffffffffffffff1602179055506001601760006013600089815260200190815260200160002060009054906101000a900473ffffffffffffffffffffffffffffffffffffffff1673ffffffffffffffffffffffffffffffffffffffff1673ffffffffffffffffffffffffffffffffffffffff168152602001908152602001600020546120499190613e26565b601760006013600089815260200190815260200160002060009054906101000a900473ffffffffffffffffffffffffffffffffffffffff1673ffffffffffffffffffffffffffffffffffffffff1673ffffffffffffffffffffffffffffffffffffffff168152602001908152602001600020819055506040518060a001604052808481526020018381526020018281526020016010600088815260200190815260200160002080546120fa90613fa1565b80601f016020809104026020016040519081016040528092919081815260200182805461212690613fa1565b80156121735780601f1061214857610100808354040283529160200191612173565b820191906000526020600020905b81548152906001019060200180831161215657829003601f168201915b505050505081526020016011600088815260200190815260200160002054815250601660006013600089815260200190815260200160002060009054906101000a900473ffffffffffffffffffffffffffffffffffffffff1673ffffffffffffffffffffffffffffffffffffffff1673ffffffffffffffffffffffffffffffffffffffff168152602001908152602001600020600060176000601360008b815260200190815260200160002060009054906101000a900473ffffffffffffffffffffffffffffffffffffffff1673ffffffffffffffffffffffffffffffffffffffff1673ffffffffffffffffffffffffffffffffffffffff16815260200190815260200160002054815260200190815260200160002060008201518160000155602082015181600101556040820151816002015560608201518160030190805190602001906122c3929190612b5a565b506080820151816004015590505061230e6012600087815260200190815260200160002060009054906101000a900473ffffffffffffffffffffffffffffffffffffffff1684612548565b6123b38360156000888152602001908152602001600020805461233090613fa1565b80601f016020809104026020016040519081016040528092919081815260200182805461235c90613fa1565b80156123a95780601f1061237e576101008083540402835291602001916123a9565b820191906000526020600020905b81548152906001019060200180831161238c57829003601f168201915b5050505050612566565b5050505050565b6123c58484846119a4565b6123d1848484846125da565b612410576040517f08c379a000000000000000000000000000000000000000000000000000000000815260040161240790613a74565b60405180910390fd5b50505050565b606060405180602001604052806000815250905090565b606061243882611799565b612477576040517f08c379a000000000000000000000000000000000000000000000000000000000815260040161246e90613c34565b60405180910390fd5b6000612481612416565b905060008151116124a157604051806020016040528060008152506124cc565b806124ab84612771565b6040516020016124bc929190613899565b6040516020818303038152906040525b915050919050565b505050565b6000848484846040516020016124f294939291906139c1565b6040516020818303038152906040528051906020012060001c9050949350505050565b6000828260405160200161252a92919061386d565b60405160208183030381529060405280519060200120905092915050565b61256282826040518060200160405280600081525061291e565b5050565b61256f82611799565b6125ae576040517f08c379a00000000000000000000000000000000000000000000000000000000081526004016125a590613b94565b60405180910390fd5b806006600084815260200190815260200160002090805190602001906125d5929190612b5a565b505050565b60006125fb8473ffffffffffffffffffffffffffffffffffffffff16612979565b15612764578373ffffffffffffffffffffffffffffffffffffffff1663150b7a02612624611805565b8786866040518563ffffffff1660e01b815260040161264694939291906138d8565b602060405180830381600087803b15801561266057600080fd5b505af192505050801561269157506040513d601f19601f8201168201806040525081019061268e9190612faa565b60015b612714573d80600081146126c1576040519150601f19603f3d011682016040523d82523d6000602084013e6126c6565b606091505b5060008151141561270c576040517f08c379a000000000000000000000000000000000000000000000000000000000815260040161270390613a74565b60405180910390fd5b805181602001fd5b63150b7a0260e01b7bffffffffffffffffffffffffffffffffffffffffffffffffffffffff1916817bffffffffffffffffffffffffffffffffffffffffffffffffffffffff191614915050612769565b600190505b949350505050565b606060008214156127b9576040518060400160405280600181526020017f30000000000000000000000000000000000000000000000000000000000000008152509050612919565b600082905060005b600082146127eb5780806127d490613fd3565b915050600a826127e49190613e7c565b91506127c1565b60008167ffffffffffffffff81111561282d577f4e487b7100000000000000000000000000000000000000000000000000000000600052604160045260246000fd5b6040519080825280601f01601f19166020018201604052801561285f5781602001600182028036833780820191505090505b5090505b60008514612912576001826128789190613ead565b9150600a856128879190614030565b60306128939190613e26565b60f81b8183815181106128cf577f4e487b7100000000000000000000000000000000000000000000000000000000600052603260045260246000fd5b60200101907effffffffffffffffffffffffffffffffffffffffffffffffffffffffffffff1916908160001a905350600a8561290b9190613e7c565b9450612863565b8093505050505b919050565b612928838361298c565b61293560008484846125da565b612974576040517f08c379a000000000000000000000000000000000000000000000000000000000815260040161296b90613a74565b60405180910390fd5b505050565b600080823b905060008111915050919050565b600073ffffffffffffffffffffffffffffffffffffffff168273ffffffffffffffffffffffffffffffffffffffff1614156129fc576040517f08c379a00000000000000000000000000000000000000000000000000000000081526004016129f390613bb4565b60405180910390fd5b612a0581611799565b15612a45576040517f08c379a0000000000000000000000000000000000000000000000000000000008152600401612a3c90613a94565b60405180910390fd5b612a51600083836124d4565b6001600360008473ffffffffffffffffffffffffffffffffffffffff1673ffffffffffffffffffffffffffffffffffffffff1681526020019081526020016000206000828254612aa19190613e26565b92505081905550816002600083815260200190815260200160002060006101000a81548173ffffffffffffffffffffffffffffffffffffffff021916908373ffffffffffffffffffffffffffffffffffffffff160217905550808273ffffffffffffffffffffffffffffffffffffffff16600073ffffffffffffffffffffffffffffffffffffffff167fddf252ad1be2c89b69c2b068fc378daa952ba7f163c4a11628f55a4df523b3ef60405160405180910390a45050565b828054612b6690613fa1565b90600052602060002090601f016020900481019282612b885760008555612bcf565b82601f10612ba157805160ff1916838001178555612bcf565b82800160010185558215612bcf579182015b82811115612bce578251825591602001919060010190612bb3565b5b509050612bdc9190612be0565b5090565b5b80821115612bf9576000816000905550600101612be1565b5090565b6000612c10612c0b84613d83565b613d52565b905082815260208101848484011115612c2857600080fd5b612c33848285613f5f565b509392505050565b6000612c4e612c4984613db3565b613d52565b905082815260208101848484011115612c6657600080fd5b612c71848285613f5f565b509392505050565b600081359050612c888161412e565b92915050565b600081359050612c9d81614145565b92915050565b600081519050612cb281614145565b92915050565b600081359050612cc78161415c565b92915050565b600081359050612cdc81614173565b92915050565b600081519050612cf181614173565b92915050565b600082601f830112612d0857600080fd5b8135612d18848260208601612bfd565b91505092915050565b600082601f830112612d3257600080fd5b8135612d42848260208601612c3b565b91505092915050565b600081359050612d5a8161418a565b92915050565b600081519050612d6f8161418a565b92915050565b600060208284031215612d8757600080fd5b6000612d9584828501612c79565b91505092915050565b60008060408385031215612db157600080fd5b6000612dbf85828601612c79565b9250506020612dd085828601612c79565b9150509250929050565b600080600060608486031215612def57600080fd5b6000612dfd86828701612c79565b9350506020612e0e86828701612c79565b9250506040612e1f86828701612d4b565b9150509250925092565b60008060008060808587031215612e3f57600080fd5b6000612e4d87828801612c79565b9450506020612e5e87828801612c79565b9350506040612e6f87828801612d4b565b925050606085013567ffffffffffffffff811115612e8c57600080fd5b612e9887828801612cf7565b91505092959194509250565b60008060408385031215612eb757600080fd5b6000612ec585828601612c79565b9250506020612ed685828601612c8e565b9150509250929050565b60008060408385031215612ef357600080fd5b6000612f0185828601612c79565b9250506020612f1285828601612d4b565b9150509250929050565b600060208284031215612f2e57600080fd5b6000612f3c84828501612ca3565b91505092915050565b60008060408385031215612f5857600080fd5b6000612f6685828601612cb8565b9250506020612f7785828601612d4b565b9150509250929050565b600060208284031215612f9357600080fd5b6000612fa184828501612ccd565b91505092915050565b600060208284031215612fbc57600080fd5b6000612fca84828501612ce2565b91505092915050565b600060208284031215612fe557600080fd5b6000612ff384828501612d4b565b91505092915050565b60006020828403121561300e57600080fd5b600061301c84828501612d60565b91505092915050565b600080600080600060a0868803121561303d57600080fd5b600061304b88828901612d4b565b955050602086013567ffffffffffffffff81111561306857600080fd5b61307488828901612d21565b945050604061308588828901612d4b565b935050606061309688828901612c79565b925050608086013567ffffffffffffffff8111156130b357600080fd5b6130bf88828901612d21565b9150509295509295909350565b6130d581613ee1565b82525050565b6130e481613ef3565b82525050565b6130f381613eff565b82525050565b61310a61310582613eff565b61401c565b82525050565b600061311b82613de3565b6131258185613df9565b9350613135818560208601613f6e565b61313e8161411d565b840191505092915050565b600061315482613dee565b61315e8185613e0a565b935061316e818560208601613f6e565b6131778161411d565b840191505092915050565b600061318d82613dee565b6131978185613e1b565b93506131a7818560208601613f6e565b80840191505092915050565b60006131c0603283613e0a565b91507f4552433732313a207472616e7366657220746f206e6f6e20455243373231526560008301527f63656976657220696d706c656d656e74657200000000000000000000000000006020830152604082019050919050565b6000613226601c83613e0a565b91507f4552433732313a20746f6b656e20616c7265616479206d696e746564000000006000830152602082019050919050565b6000613266602483613e0a565b91507f4552433732313a207472616e7366657220746f20746865207a65726f2061646460008301527f72657373000000000000000000000000000000000000000000000000000000006020830152604082019050919050565b60006132cc601983613e0a565b91507f4552433732313a20617070726f766520746f2063616c6c6572000000000000006000830152602082019050919050565b600061330c602b83613e0a565b91507f4e6f7420656e6f756768204c494e4b202d2066696c6c20636f6e74726163742060008301527f77697468206661756365740000000000000000000000000000000000000000006020830152604082019050919050565b6000613372602c83613e0a565b91507f4552433732313a206f70657261746f7220717565727920666f72206e6f6e657860008301527f697374656e7420746f6b656e00000000000000000000000000000000000000006020830152604082019050919050565b60006133d8603883613e0a565b91507f4552433732313a20617070726f76652063616c6c6572206973206e6f74206f7760008301527f6e6572206e6f7220617070726f76656420666f7220616c6c00000000000000006020830152604082019050919050565b600061343e602a83613e0a565b91507f4552433732313a2062616c616e636520717565727920666f7220746865207a6560008301527f726f2061646472657373000000000000000000000000000000000000000000006020830152604082019050919050565b60006134a4602983613e0a565b91507f4552433732313a206f776e657220717565727920666f72206e6f6e657869737460008301527f656e7420746f6b656e00000000000000000000000000000000000000000000006020830152604082019050919050565b600061350a602e83613e0a565b91507f45524337323155524953746f726167653a2055524920736574206f66206e6f6e60008301527f6578697374656e7420746f6b656e0000000000000000000000000000000000006020830152604082019050919050565b6000613570602083613e0a565b91507f4552433732313a206d696e7420746f20746865207a65726f20616464726573736000830152602082019050919050565b60006135b0603183613e0a565b91507f45524337323155524953746f726167653a2055524920717565727920666f722060008301527f6e6f6e6578697374656e7420746f6b656e0000000000000000000000000000006020830152604082019050919050565b6000613616602c83613e0a565b91507f4552433732313a20617070726f76656420717565727920666f72206e6f6e657860008301527f697374656e7420746f6b656e00000000000000000000000000000000000000006020830152604082019050919050565b600061367c602983613e0a565b91507f4552433732313a207472616e73666572206f6620746f6b656e2074686174206960008301527f73206e6f74206f776e00000000000000000000000000000000000000000000006020830152604082019050919050565b60006136e2602f83613e0a565b91507f4552433732314d657461646174613a2055524920717565727920666f72206e6f60008301527f6e6578697374656e7420746f6b656e00000000000000000000000000000000006020830152604082019050919050565b6000613748601f83613e0a565b91507f4f6e6c7920565246436f6f7264696e61746f722063616e2066756c66696c6c006000830152602082019050919050565b6000613788602183613e0a565b91507f4552433732313a20617070726f76616c20746f2063757272656e74206f776e6560008301527f72000000000000000000000000000000000000000000000000000000000000006020830152604082019050919050565b60006137ee603183613e0a565b91507f4552433732313a207472616e736665722063616c6c6572206973206e6f74206f60008301527f776e6572206e6f7220617070726f7665640000000000000000000000000000006020830152604082019050919050565b61385081613f55565b82525050565b61386761386282613f55565b614026565b82525050565b600061387982856130f9565b6020820191506138898284613856565b6020820191508190509392505050565b60006138a58285613182565b91506138b18284613182565b91508190509392505050565b60006020820190506138d260008301846130cc565b92915050565b60006080820190506138ed60008301876130cc565b6138fa60208301866130cc565b6139076040830185613847565b81810360608301526139198184613110565b905095945050505050565b600060608201905061393960008301866130cc565b6139466020830185613847565b81810360408301526139588184613110565b9050949350505050565b600060208201905061397760008301846130db565b92915050565b600060208201905061399260008301846130ea565b92915050565b60006040820190506139ad60008301856130ea565b6139ba6020830184613847565b9392505050565b60006080820190506139d660008301876130ea565b6139e36020830186613847565b6139f060408301856130cc565b6139fd6060830184613847565b95945050505050565b60006020820190508181036000830152613a208184613149565b905092915050565b60006080820190508181036000830152613a428187613149565b9050613a516020830186613847565b613a5e6040830185613847565b613a6b6060830184613847565b95945050505050565b60006020820190508181036000830152613a8d816131b3565b9050919050565b60006020820190508181036000830152613aad81613219565b9050919050565b60006020820190508181036000830152613acd81613259565b9050919050565b60006020820190508181036000830152613aed816132bf565b9050919050565b60006020820190508181036000830152613b0d816132ff565b9050919050565b60006020820190508181036000830152613b2d81613365565b9050919050565b60006020820190508181036000830152613b4d816133cb565b9050919050565b60006020820190508181036000830152613b6d81613431565b9050919050565b60006020820190508181036000830152613b8d81613497565b9050919050565b60006020820190508181036000830152613bad816134fd565b9050919050565b60006020820190508181036000830152613bcd81613563565b9050919050565b60006020820190508181036000830152613bed816135a3565b9050919050565b60006020820190508181036000830152613c0d81613609565b9050919050565b60006020820190508181036000830152613c2d8161366f565b9050919050565b60006020820190508181036000830152613c4d816136d5565b9050919050565b60006020820190508181036000830152613c6d8161373b565b9050919050565b60006020820190508181036000830152613c8d8161377b565b9050919050565b60006020820190508181036000830152613cad816137e1565b9050919050565b6000602082019050613cc96000830184613847565b92915050565b6000604082019050613ce46000830185613847565b613cf16020830184613847565b9392505050565b600060a082019050613d0d6000830188613847565b613d1a6020830187613847565b613d276040830186613847565b8181036060830152613d398185613149565b9050613d486080830184613847565b9695505050505050565b6000604051905081810181811067ffffffffffffffff82111715613d7957613d786140ee565b5b8060405250919050565b600067ffffffffffffffff821115613d9e57613d9d6140ee565b5b601f19601f8301169050602081019050919050565b600067ffffffffffffffff821115613dce57613dcd6140ee565b5b601f19601f8301169050602081019050919050565b600081519050919050565b600081519050919050565b600082825260208201905092915050565b600082825260208201905092915050565b600081905092915050565b6000613e3182613f55565b9150613e3c83613f55565b9250827fffffffffffffffffffffffffffffffffffffffffffffffffffffffffffffffff03821115613e7157613e70614061565b5b828201905092915050565b6000613e8782613f55565b9150613e9283613f55565b925082613ea257613ea1614090565b5b828204905092915050565b6000613eb882613f55565b9150613ec383613f55565b925082821015613ed657613ed5614061565b5b828203905092915050565b6000613eec82613f35565b9050919050565b60008115159050919050565b6000819050919050565b60007fffffffff0000000000000000000000000000000000000000000000000000000082169050919050565b600073ffffffffffffffffffffffffffffffffffffffff82169050919050565b6000819050919050565b82818337600083830152505050565b60005b83811015613f8c578082015181840152602081019050613f71565b83811115613f9b576000848401525b50505050565b60006002820490506001821680613fb957607f821691505b60208210811415613fcd57613fcc6140bf565b5b50919050565b6000613fde82613f55565b91507fffffffffffffffffffffffffffffffffffffffffffffffffffffffffffffffff82141561401157614010614061565b5b600182019050919050565b6000819050919050565b6000819050919050565b600061403b82613f55565b915061404683613f55565b92508261405657614055614090565b5b828206905092915050565b7f4e487b7100000000000000000000000000000000000000000000000000000000600052601160045260246000fd5b7f4e487b7100000000000000000000000000000000000000000000000000000000600052601260045260246000fd5b7f4e487b7100000000000000000000000000000000000000000000000000000000600052602260045260246000fd5b7f4e487b7100000000000000000000000000000000000000000000000000000000600052604160045260246000fd5b6000601f19601f8301169050919050565b61413781613ee1565b811461414257600080fd5b50565b61414e81613ef3565b811461415957600080fd5b50565b61416581613eff565b811461417057600080fd5b50565b61417c81613f09565b811461418757600080fd5b50565b61419381613f55565b811461419e57600080fd5b5056fea2646970667358221220692c8fd12095953d60c2ef398db17fd5e33a6f3fea2d9845d125b6493cbcfddf64736f6c63430008000033",
  "immutableReferences": {
    "849": [
      {
        "length": 32,
        "start": 2495
      },
      {
        "length": 32,
        "start": 7172
      }
    ],
    "851": [
      {
        "length": 32,
        "start": 3767
      },
      {
        "length": 32,
        "start": 7232
      }
    ]
  },
  "source": "// SPDX-License-Identifier: MIT\npragma solidity ^0.8.0;\n\n// const RINKEBY_VRF_COORDINATOR = '0xb3dCcb4Cf7a26f6cf6B120Cf5A73875B7BBc655B'\n// const RINKEBY_LINKTOKEN = '0x01BE23585060835E02B77ef475b0Cc51aA1e0709'\n// const RINKEBY_KEYHASH = '0x2ed0feb3e7fd2022120aa84fab1945545a9f2ffc9076fd6156fa96eaff4c1311'\n\nimport \"@openzeppelin/contracts/token/ERC721/extensions/ERC721URIStorage.sol\";\nimport \"./link/VRFConsumerBase.sol\";\nimport \"@openzeppelin/contracts/utils/Strings.sol\";\nimport {SafeMath} from \"./utils/Math.sol\";\n\ncontract TrophyChar is ERC721URIStorage, VRFConsumerBase {\n    using SafeMath for uint256;\n    using Strings for string;\n    \n    bytes32 public keyHash;\n    address public VRFCoordinator;\n    uint256 internal fee;\n    uint256 public randomResult;\n    address public Linktoken;\n    uint256 public tokensCount;\n    address public add;\n\n    struct Trophy {\n        uint256 tokenId;\n        uint256 rarity;\n        uint256 worth;\n        string name;\n        uint256 levelPass;\n    }\n\n    Trophy[] public trophies;\n    // mappings will go here\n    mapping(bytes32 => string) requestToTrophyName;\n    mapping(bytes32 => uint256) requestToLevel;\n    mapping(bytes32 => address) requestToSender;\n    mapping(bytes32 => address) requestAddress;\n    mapping(bytes32 => uint256) requestToTokenId;\n    mapping(bytes32 => string) requestNftURI;\n    mapping(address => mapping(uint256 => Trophy)) public usersNft;\n    mapping(address => uint256) public usersNftCount;\n\n    constructor(\n        address _VRFCoordinator,\n        address _LinkToken,\n        bytes32 _keyHash\n    )\n        public\n        VRFConsumerBase(_VRFCoordinator, _LinkToken)\n        ERC721(\"TrophyChar\", \"TRP\")\n    {\n        VRFCoordinator = _VRFCoordinator;\n        keyHash = _keyHash;\n        Linktoken = _LinkToken;\n        fee = 0.1 * 10**18; // 0.1 LINK\n    }\n\n    function requestNewRandomTrophy(\n        uint256 userProvidedSeed,\n        string memory name,\n        uint256 levelPass,\n        address walletAddress,\n        string memory _tokenURI\n    ) public returns (bytes32) {\n        require(\n            LINK.balanceOf(address(this)) >= fee,\n            \"Not enough LINK - fill contract with faucet\"\n        );\n        bytes32 requestId = requestRandomness(keyHash, fee, userProvidedSeed);\n        requestToTrophyName[requestId] = name;\n        requestToLevel[requestId] = levelPass;\n        requestToSender[requestId] = msg.sender;\n        requestAddress[requestId] = walletAddress;\n        requestNftURI[requestId] = _tokenURI;\n\n        return requestId;\n    }\n\n    function fulfillRandomness(bytes32 requestId, uint256 randomNumber)\n        internal\n        override\n    {\n        //define the NFT\n        uint256 newId = trophies.length;\n        uint256 rarity = (randomNumber % 100);\n        uint256 worth = ((randomNumber % 1000) / 100);\n\n        trophies.push(\n            Trophy(\n                newId,\n                rarity,\n                worth,\n                requestToTrophyName[requestId],\n                requestToLevel[requestId]\n            )\n        );\n\n        tokensCount++;\n        add = requestAddress[requestId];\n        usersNftCount[requestAddress[requestId]] =\n            usersNftCount[requestAddress[requestId]] +\n            1;\n\n        usersNft[requestAddress[requestId]][\n            usersNftCount[requestAddress[requestId]]\n        ] = Trophy(\n            newId,\n            rarity,\n            worth,\n            requestToTrophyName[requestId],\n            requestToLevel[requestId]\n        );\n\n        //_safeMint(requestToSender[requestId], newId);\n        _safeMint(requestToSender[requestId], newId);\n        _setTokenURI(newId, requestNftURI[requestId]);\n    }\n\n    function getLevel(uint256 tokenId) public view returns (uint256) {\n        return sqrt(trophies[tokenId].rarity);\n    }\n\n    function getNumberOfTrophies() public view returns (uint256) {\n        return trophies.length;\n    }\n\n    function getTrophyOverView(uint256 tokenId)\n        public\n        view\n        returns (\n            string memory,\n            uint256,\n            uint256,\n            uint256\n        )\n    {\n        return (\n            trophies[tokenId].name,\n            trophies[tokenId].rarity + trophies[tokenId].worth,\n            getLevel(tokenId),\n            trophies[tokenId].rarity\n        );\n    }\n\n    function getTrophyStats(uint256 tokenId)\n        public\n        view\n        returns (uint256, uint256)\n    {\n        return (trophies[tokenId].rarity, trophies[tokenId].worth);\n    }\n\n    function sqrt(uint256 x) internal view returns (uint256 y) {\n        uint256 z = (x + 1) / 2;\n        y = x;\n        while (z < y) {\n            y = z;\n            z = (x / z + z) / 2;\n        }\n    }\n}\n",
  "sourcePath": "/Users/newsgate/Work/RPG-Solidity-Game/blockchain/src/contracts/TrophyChar.sol",
  "compiler": {
    "name": "solc",
    "version": "0.8.0+commit.c7dfd78e.Emscripten.clang"
  },
  "schemaVersion": "3.3.3",
  "updatedAt": "2021-05-25T14:30:28.535Z",
  "devdoc": {
    "kind": "dev",
    "methods": {
      "approve(address,uint256)": {
        "details": "See {IERC721-approve}."
      },
      "balanceOf(address)": {
        "details": "See {IERC721-balanceOf}."
      },
      "getApproved(uint256)": {
        "details": "See {IERC721-getApproved}."
      },
      "isApprovedForAll(address,address)": {
        "details": "See {IERC721-isApprovedForAll}."
      },
      "name()": {
        "details": "See {IERC721Metadata-name}."
      },
      "ownerOf(uint256)": {
        "details": "See {IERC721-ownerOf}."
      },
      "safeTransferFrom(address,address,uint256)": {
        "details": "See {IERC721-safeTransferFrom}."
      },
      "safeTransferFrom(address,address,uint256,bytes)": {
        "details": "See {IERC721-safeTransferFrom}."
      },
      "setApprovalForAll(address,bool)": {
        "details": "See {IERC721-setApprovalForAll}."
      },
      "supportsInterface(bytes4)": {
        "details": "See {IERC165-supportsInterface}."
      },
      "symbol()": {
        "details": "See {IERC721Metadata-symbol}."
      },
      "tokenURI(uint256)": {
        "details": "See {IERC721Metadata-tokenURI}."
      },
      "transferFrom(address,address,uint256)": {
        "details": "See {IERC721-transferFrom}."
      }
    },
    "version": 1
  },
  "userdoc": {
    "kind": "user",
    "methods": {},
    "version": 1
  }
}