{
  "contractName": "TrophyChar",
  "abi": [
    {
      "inputs": [
        {
          "internalType": "address",
          "name": "_VRFCoordinator",
          "type": "address"
        },
        {
          "internalType": "address",
          "name": "_LinkToken",
          "type": "address"
        },
        {
          "internalType": "bytes32",
          "name": "_keyHash",
          "type": "bytes32"
        }
      ],
      "stateMutability": "nonpayable",
      "type": "constructor"
    },
    {
      "anonymous": false,
      "inputs": [
        {
          "indexed": true,
          "internalType": "address",
          "name": "owner",
          "type": "address"
        },
        {
          "indexed": true,
          "internalType": "address",
          "name": "approved",
          "type": "address"
        },
        {
          "indexed": true,
          "internalType": "uint256",
          "name": "tokenId",
          "type": "uint256"
        }
      ],
      "name": "Approval",
      "type": "event"
    },
    {
      "anonymous": false,
      "inputs": [
        {
          "indexed": true,
          "internalType": "address",
          "name": "owner",
          "type": "address"
        },
        {
          "indexed": true,
          "internalType": "address",
          "name": "operator",
          "type": "address"
        },
        {
          "indexed": false,
          "internalType": "bool",
          "name": "approved",
          "type": "bool"
        }
      ],
      "name": "ApprovalForAll",
      "type": "event"
    },
    {
      "anonymous": false,
      "inputs": [
        {
          "indexed": true,
          "internalType": "address",
          "name": "from",
          "type": "address"
        },
        {
          "indexed": true,
          "internalType": "address",
          "name": "to",
          "type": "address"
        },
        {
          "indexed": true,
          "internalType": "uint256",
          "name": "tokenId",
          "type": "uint256"
        }
      ],
      "name": "Transfer",
      "type": "event"
    },
    {
      "inputs": [],
      "name": "Linktoken",
      "outputs": [
        {
          "internalType": "address",
          "name": "",
          "type": "address"
        }
      ],
      "stateMutability": "view",
      "type": "function",
      "constant": true
    },
    {
      "inputs": [],
      "name": "VRFCoordinator",
      "outputs": [
        {
          "internalType": "address",
          "name": "",
          "type": "address"
        }
      ],
      "stateMutability": "view",
      "type": "function",
      "constant": true
    },
    {
      "inputs": [],
      "name": "add",
      "outputs": [
        {
          "internalType": "address",
          "name": "",
          "type": "address"
        }
      ],
      "stateMutability": "view",
      "type": "function",
      "constant": true
    },
    {
      "inputs": [
        {
          "internalType": "address",
          "name": "to",
          "type": "address"
        },
        {
          "internalType": "uint256",
          "name": "tokenId",
          "type": "uint256"
        }
      ],
      "name": "approve",
      "outputs": [],
      "stateMutability": "nonpayable",
      "type": "function"
    },
    {
      "inputs": [
        {
          "internalType": "address",
          "name": "owner",
          "type": "address"
        }
      ],
      "name": "balanceOf",
      "outputs": [
        {
          "internalType": "uint256",
          "name": "",
          "type": "uint256"
        }
      ],
      "stateMutability": "view",
      "type": "function",
      "constant": true
    },
    {
      "inputs": [
        {
          "internalType": "uint256",
          "name": "tokenId",
          "type": "uint256"
        }
      ],
      "name": "getApproved",
      "outputs": [
        {
          "internalType": "address",
          "name": "",
          "type": "address"
        }
      ],
      "stateMutability": "view",
      "type": "function",
      "constant": true
    },
    {
      "inputs": [
        {
          "internalType": "address",
          "name": "owner",
          "type": "address"
        },
        {
          "internalType": "address",
          "name": "operator",
          "type": "address"
        }
      ],
      "name": "isApprovedForAll",
      "outputs": [
        {
          "internalType": "bool",
          "name": "",
          "type": "bool"
        }
      ],
      "stateMutability": "view",
      "type": "function",
      "constant": true
    },
    {
      "inputs": [],
      "name": "keyHash",
      "outputs": [
        {
          "internalType": "bytes32",
          "name": "",
          "type": "bytes32"
        }
      ],
      "stateMutability": "view",
      "type": "function",
      "constant": true
    },
    {
      "inputs": [],
      "name": "name",
      "outputs": [
        {
          "internalType": "string",
          "name": "",
          "type": "string"
        }
      ],
      "stateMutability": "view",
      "type": "function",
      "constant": true
    },
    {
      "inputs": [
        {
          "internalType": "uint256",
          "name": "tokenId",
          "type": "uint256"
        }
      ],
      "name": "ownerOf",
      "outputs": [
        {
          "internalType": "address",
          "name": "",
          "type": "address"
        }
      ],
      "stateMutability": "view",
      "type": "function",
      "constant": true
    },
    {
      "inputs": [],
      "name": "randomResult",
      "outputs": [
        {
          "internalType": "uint256",
          "name": "",
          "type": "uint256"
        }
      ],
      "stateMutability": "view",
      "type": "function",
      "constant": true
    },
    {
      "inputs": [
        {
          "internalType": "bytes32",
          "name": "requestId",
          "type": "bytes32"
        },
        {
          "internalType": "uint256",
          "name": "randomness",
          "type": "uint256"
        }
      ],
      "name": "rawFulfillRandomness",
      "outputs": [],
      "stateMutability": "nonpayable",
      "type": "function"
    },
    {
      "inputs": [
        {
          "internalType": "address",
          "name": "from",
          "type": "address"
        },
        {
          "internalType": "address",
          "name": "to",
          "type": "address"
        },
        {
          "internalType": "uint256",
          "name": "tokenId",
          "type": "uint256"
        }
      ],
      "name": "safeTransferFrom",
      "outputs": [],
      "stateMutability": "nonpayable",
      "type": "function"
    },
    {
      "inputs": [
        {
          "internalType": "address",
          "name": "from",
          "type": "address"
        },
        {
          "internalType": "address",
          "name": "to",
          "type": "address"
        },
        {
          "internalType": "uint256",
          "name": "tokenId",
          "type": "uint256"
        },
        {
          "internalType": "bytes",
          "name": "_data",
          "type": "bytes"
        }
      ],
      "name": "safeTransferFrom",
      "outputs": [],
      "stateMutability": "nonpayable",
      "type": "function"
    },
    {
      "inputs": [
        {
          "internalType": "address",
          "name": "operator",
          "type": "address"
        },
        {
          "internalType": "bool",
          "name": "approved",
          "type": "bool"
        }
      ],
      "name": "setApprovalForAll",
      "outputs": [],
      "stateMutability": "nonpayable",
      "type": "function"
    },
    {
      "inputs": [
        {
          "internalType": "bytes4",
          "name": "interfaceId",
          "type": "bytes4"
        }
      ],
      "name": "supportsInterface",
      "outputs": [
        {
          "internalType": "bool",
          "name": "",
          "type": "bool"
        }
      ],
      "stateMutability": "view",
      "type": "function",
      "constant": true
    },
    {
      "inputs": [],
      "name": "symbol",
      "outputs": [
        {
          "internalType": "string",
          "name": "",
          "type": "string"
        }
      ],
      "stateMutability": "view",
      "type": "function",
      "constant": true
    },
    {
      "inputs": [
        {
          "internalType": "uint256",
          "name": "tokenId",
          "type": "uint256"
        }
      ],
      "name": "tokenURI",
      "outputs": [
        {
          "internalType": "string",
          "name": "",
          "type": "string"
        }
      ],
      "stateMutability": "view",
      "type": "function",
      "constant": true
    },
    {
      "inputs": [],
      "name": "tokensCount",
      "outputs": [
        {
          "internalType": "uint256",
          "name": "",
          "type": "uint256"
        }
      ],
      "stateMutability": "view",
      "type": "function",
      "constant": true
    },
    {
      "inputs": [
        {
          "internalType": "address",
          "name": "from",
          "type": "address"
        },
        {
          "internalType": "address",
          "name": "to",
          "type": "address"
        },
        {
          "internalType": "uint256",
          "name": "tokenId",
          "type": "uint256"
        }
      ],
      "name": "transferFrom",
      "outputs": [],
      "stateMutability": "nonpayable",
      "type": "function"
    },
    {
      "inputs": [
        {
          "internalType": "uint256",
          "name": "",
          "type": "uint256"
        }
      ],
      "name": "trophies",
      "outputs": [
        {
          "internalType": "uint256",
          "name": "tokenId",
          "type": "uint256"
        },
        {
          "internalType": "uint256",
          "name": "rarity",
          "type": "uint256"
        },
        {
          "internalType": "uint256",
          "name": "worth",
          "type": "uint256"
        },
        {
          "internalType": "string",
          "name": "name",
          "type": "string"
        },
        {
          "internalType": "uint256",
          "name": "levelPass",
          "type": "uint256"
        },
        {
          "internalType": "string",
          "name": "image",
          "type": "string"
        }
      ],
      "stateMutability": "view",
      "type": "function",
      "constant": true
    },
    {
      "inputs": [
        {
          "internalType": "address",
          "name": "",
          "type": "address"
        },
        {
          "internalType": "uint256",
          "name": "",
          "type": "uint256"
        }
      ],
      "name": "usersNft",
      "outputs": [
        {
          "internalType": "uint256",
          "name": "tokenId",
          "type": "uint256"
        },
        {
          "internalType": "uint256",
          "name": "rarity",
          "type": "uint256"
        },
        {
          "internalType": "uint256",
          "name": "worth",
          "type": "uint256"
        },
        {
          "internalType": "string",
          "name": "name",
          "type": "string"
        },
        {
          "internalType": "uint256",
          "name": "levelPass",
          "type": "uint256"
        },
        {
          "internalType": "string",
          "name": "image",
          "type": "string"
        }
      ],
      "stateMutability": "view",
      "type": "function",
      "constant": true
    },
    {
      "inputs": [
        {
          "internalType": "address",
          "name": "",
          "type": "address"
        }
      ],
      "name": "usersNftCount",
      "outputs": [
        {
          "internalType": "uint256",
          "name": "",
          "type": "uint256"
        }
      ],
      "stateMutability": "view",
      "type": "function",
      "constant": true
    },
    {
      "inputs": [
        {
          "internalType": "uint256",
          "name": "userProvidedSeed",
          "type": "uint256"
        },
        {
          "internalType": "string",
          "name": "name",
          "type": "string"
        },
        {
          "internalType": "uint256",
          "name": "levelPass",
          "type": "uint256"
        },
        {
          "internalType": "address",
          "name": "walletAddress",
          "type": "address"
        },
        {
          "internalType": "string",
          "name": "_tokenURI",
          "type": "string"
        }
      ],
      "name": "requestNewRandomTrophy",
      "outputs": [
        {
          "internalType": "bytes32",
          "name": "",
          "type": "bytes32"
        }
      ],
      "stateMutability": "nonpayable",
      "type": "function"
    },
    {
      "inputs": [
        {
          "internalType": "uint256",
          "name": "tokenId",
          "type": "uint256"
        }
      ],
      "name": "getLevel",
      "outputs": [
        {
          "internalType": "uint256",
          "name": "",
          "type": "uint256"
        }
      ],
      "stateMutability": "view",
      "type": "function",
      "constant": true
    },
    {
      "inputs": [],
      "name": "getNumberOfTrophies",
      "outputs": [
        {
          "internalType": "uint256",
          "name": "",
          "type": "uint256"
        }
      ],
      "stateMutability": "view",
      "type": "function",
      "constant": true
    },
    {
      "inputs": [
        {
          "internalType": "uint256",
          "name": "tokenId",
          "type": "uint256"
        }
      ],
      "name": "getTrophyOverView",
      "outputs": [
        {
          "internalType": "string",
          "name": "",
          "type": "string"
        },
        {
          "internalType": "uint256",
          "name": "",
          "type": "uint256"
        },
        {
          "internalType": "uint256",
          "name": "",
          "type": "uint256"
        },
        {
          "internalType": "uint256",
          "name": "",
          "type": "uint256"
        }
      ],
      "stateMutability": "view",
      "type": "function",
      "constant": true
    },
    {
      "inputs": [
        {
          "internalType": "uint256",
          "name": "tokenId",
          "type": "uint256"
        }
      ],
      "name": "getTrophyStats",
      "outputs": [
        {
          "internalType": "uint256",
          "name": "",
          "type": "uint256"
        },
        {
          "internalType": "uint256",
          "name": "",
          "type": "uint256"
        }
      ],
      "stateMutability": "view",
      "type": "function",
      "constant": true
    }
  ],
  "bytecode": "0x60c06040523480156200001157600080fd5b50604051620048b5380380620048b58339818101604052810190620000379190620002c8565b82826040518060400160405280600a81526020017f54726f70687943686172000000000000000000000000000000000000000000008152506040518060400160405280600381526020017f54525000000000000000000000000000000000000000000000000000000000008152508160009080519060200190620000bd929190620001ea565b508060019080519060200190620000d6929190620001ea565b5050508173ffffffffffffffffffffffffffffffffffffffff1660a08173ffffffffffffffffffffffffffffffffffffffff1660601b815250508073ffffffffffffffffffffffffffffffffffffffff1660808173ffffffffffffffffffffffffffffffffffffffff1660601b81525050505082600960006101000a81548173ffffffffffffffffffffffffffffffffffffffff021916908373ffffffffffffffffffffffffffffffffffffffff1602179055508060088190555081600c60006101000a81548173ffffffffffffffffffffffffffffffffffffffff021916908373ffffffffffffffffffffffffffffffffffffffff16021790555067016345785d8a0000600a81905550505050620003f5565b828054620001f8906200035c565b90600052602060002090601f0160209004810192826200021c576000855562000268565b82601f106200023757805160ff191683800117855562000268565b8280016001018555821562000268579182015b82811115620002675782518255916020019190600101906200024a565b5b5090506200027791906200027b565b5090565b5b80821115620002965760008160009055506001016200027c565b5090565b600081519050620002ab81620003c1565b92915050565b600081519050620002c281620003db565b92915050565b600080600060608486031215620002de57600080fd5b6000620002ee868287016200029a565b935050602062000301868287016200029a565b92505060406200031486828701620002b1565b9150509250925092565b60006200032b826200033c565b9050919050565b6000819050919050565b600073ffffffffffffffffffffffffffffffffffffffff82169050919050565b600060028204905060018216806200037557607f821691505b602082108114156200038c576200038b62000392565b5b50919050565b7f4e487b7100000000000000000000000000000000000000000000000000000000600052602260045260246000fd5b620003cc816200031e565b8114620003d857600080fd5b50565b620003e68162000332565b8114620003f257600080fd5b50565b60805160601c60a05160601c6144866200042f60003960008181610eb90152611d5e0152600081816109c10152611d2201526144866000f3fe608060405234801561001057600080fd5b50600436106101c45760003560e01c80636352211e116100f9578063a22cb46511610097578063b88d4fde11610071578063b88d4fde1461054e578063c87b56dd1461056a578063d4995eb11461059a578063e985e9c5146105cd576101c4565b8063a22cb465146104df578063a64ed8ba146104fb578063b167416714610519576101c4565b806391e348f1116100d357806391e348f11461043f57806394985ddd1461047057806395d89b411461048c578063a06bb50f146104aa576101c4565b80636352211e146103af57806370a08231146103df57806386481d401461040f576101c4565b80633edf2cd71161016657806342842e0e1161014057806342842e0e146103275780634f2be91f1461034357806354cbd4dd1461036157806361728f3914610391576101c4565b80633edf2cd7146102bb5780633f13595a146102eb57806342619f6614610309576101c4565b8063081812fc116101a2578063081812fc14610235578063095ea7b31461026557806323b872dd1461028157806333b608631461029d576101c4565b806301ffc9a7146101c957806306fdde03146101f957806307ed17e314610217575b600080fd5b6101e360048036038101906101de919061321b565b6105fd565b6040516101f09190613bfc565b60405180910390f35b6102016106df565b60405161020e9190613ca0565b60405180910390f35b61021f610771565b60405161022c9190613b57565b60405180910390f35b61024f600480360381019061024a919061326d565b610797565b60405161025c9190613b57565b60405180910390f35b61027f600480360381019061027a919061317a565b61081c565b005b61029b60048036038101906102969190613074565b610934565b005b6102a5610994565b6040516102b29190613b57565b60405180910390f35b6102d560048036038101906102d091906132bf565b6109ba565b6040516102e29190613c17565b60405180910390f35b6102f3610bd5565b6040516103009190613f4e565b60405180910390f35b610311610be2565b60405161031e9190613f4e565b60405180910390f35b610341600480360381019061033c9190613074565b610be8565b005b61034b610c08565b6040516103589190613b57565b60405180910390f35b61037b6004803603810190610376919061300f565b610c2e565b6040516103889190613f4e565b60405180910390f35b610399610c46565b6040516103a69190613c17565b60405180910390f35b6103c960048036038101906103c4919061326d565b610c4c565b6040516103d69190613b57565b60405180910390f35b6103f960048036038101906103f4919061300f565b610cfe565b6040516104069190613f4e565b60405180910390f35b6104296004803603810190610424919061326d565b610db6565b6040516104369190613f4e565b60405180910390f35b6104596004803603810190610454919061326d565b610e13565b604051610467929190613f69565b60405180910390f35b61048a600480360381019061048591906131df565b610eb7565b005b610494610f53565b6040516104a19190613ca0565b60405180910390f35b6104c460048036038101906104bf919061326d565b610fe5565b6040516104d696959493929190613f92565b60405180910390f35b6104f960048036038101906104f4919061313e565b611141565b005b6105036112c2565b6040516105109190613f4e565b60405180910390f35b610533600480360381019061052e919061317a565b6112c8565b60405161054596959493929190613f92565b60405180910390f35b610568600480360381019061056391906130c3565b611421565b005b610584600480360381019061057f919061326d565b611483565b6040516105919190613ca0565b60405180910390f35b6105b460048036038101906105af919061326d565b6115d5565b6040516105c49493929190613cc2565b60405180910390f35b6105e760048036038101906105e29190613038565b6117b9565b6040516105f49190613bfc565b60405180910390f35b60007f80ac58cd000000000000000000000000000000000000000000000000000000007bffffffffffffffffffffffffffffffffffffffffffffffffffffffff1916827bffffffffffffffffffffffffffffffffffffffffffffffffffffffff191614806106c857507f5b5e139f000000000000000000000000000000000000000000000000000000007bffffffffffffffffffffffffffffffffffffffffffffffffffffffff1916827bffffffffffffffffffffffffffffffffffffffffffffffffffffffff1916145b806106d857506106d78261184d565b5b9050919050565b6060600080546106ee90614250565b80601f016020809104026020016040519081016040528092919081815260200182805461071a90614250565b80156107675780601f1061073c57610100808354040283529160200191610767565b820191906000526020600020905b81548152906001019060200180831161074a57829003601f168201915b5050505050905090565b600c60009054906101000a900473ffffffffffffffffffffffffffffffffffffffff1681565b60006107a2826118b7565b6107e1576040517f08c379a00000000000000000000000000000000000000000000000000000000081526004016107d890613e8e565b60405180910390fd5b6004600083815260200190815260200160002060009054906101000a900473ffffffffffffffffffffffffffffffffffffffff169050919050565b600061082782610c4c565b90508073ffffffffffffffffffffffffffffffffffffffff168373ffffffffffffffffffffffffffffffffffffffff161415610898576040517f08c379a000000000000000000000000000000000000000000000000000000000815260040161088f90613f0e565b60405180910390fd5b8073ffffffffffffffffffffffffffffffffffffffff166108b7611923565b73ffffffffffffffffffffffffffffffffffffffff1614806108e657506108e5816108e0611923565b6117b9565b5b610925576040517f08c379a000000000000000000000000000000000000000000000000000000000815260040161091c90613dce565b60405180910390fd5b61092f838361192b565b505050565b61094561093f611923565b826119e4565b610984576040517f08c379a000000000000000000000000000000000000000000000000000000000815260040161097b90613f2e565b60405180910390fd5b61098f838383611ac2565b505050565b600960009054906101000a900473ffffffffffffffffffffffffffffffffffffffff1681565b6000600a547f000000000000000000000000000000000000000000000000000000000000000073ffffffffffffffffffffffffffffffffffffffff166370a08231306040518263ffffffff1660e01b8152600401610a189190613b57565b60206040518083038186803b158015610a3057600080fd5b505afa158015610a44573d6000803e3d6000fd5b505050506040513d601f19601f82011682018060405250810190610a689190613296565b1015610aa9576040517f08c379a0000000000000000000000000000000000000000000000000000000008152600401610aa090613d8e565b60405180910390fd5b6000610aba600854600a5489611d1e565b905085601060008381526020019081526020016000209080519060200190610ae3929190612df4565b50846011600083815260200190815260200160002081905550336012600083815260200190815260200160002060006101000a81548173ffffffffffffffffffffffffffffffffffffffff021916908373ffffffffffffffffffffffffffffffffffffffff160217905550836013600083815260200190815260200160002060006101000a81548173ffffffffffffffffffffffffffffffffffffffff021916908373ffffffffffffffffffffffffffffffffffffffff16021790555082601560008381526020019081526020016000209080519060200190610bc7929190612df4565b508091505095945050505050565b6000600f80549050905090565b600b5481565b610c0383838360405180602001604052806000815250611421565b505050565b600e60009054906101000a900473ffffffffffffffffffffffffffffffffffffffff1681565b60176020528060005260406000206000915090505481565b60085481565b6000806002600084815260200190815260200160002060009054906101000a900473ffffffffffffffffffffffffffffffffffffffff169050600073ffffffffffffffffffffffffffffffffffffffff168173ffffffffffffffffffffffffffffffffffffffff161415610cf5576040517f08c379a0000000000000000000000000000000000000000000000000000000008152600401610cec90613e0e565b60405180910390fd5b80915050919050565b60008073ffffffffffffffffffffffffffffffffffffffff168273ffffffffffffffffffffffffffffffffffffffff161415610d6f576040517f08c379a0000000000000000000000000000000000000000000000000000000008152600401610d6690613dee565b60405180910390fd5b600360008373ffffffffffffffffffffffffffffffffffffffff1673ffffffffffffffffffffffffffffffffffffffff168152602001908152602001600020549050919050565b6000610e0c600f8381548110610df5577f4e487b7100000000000000000000000000000000000000000000000000000000600052603260045260246000fd5b906000526020600020906006020160010154611e7f565b9050919050565b600080600f8381548110610e50577f4e487b7100000000000000000000000000000000000000000000000000000000600052603260045260246000fd5b906000526020600020906006020160010154600f8481548110610e9c577f4e487b7100000000000000000000000000000000000000000000000000000000600052603260045260246000fd5b90600052602060002090600602016002015491509150915091565b7f000000000000000000000000000000000000000000000000000000000000000073ffffffffffffffffffffffffffffffffffffffff163373ffffffffffffffffffffffffffffffffffffffff1614610f45576040517f08c379a0000000000000000000000000000000000000000000000000000000008152600401610f3c90613eee565b60405180910390fd5b610f4f8282611edc565b5050565b606060018054610f6290614250565b80601f0160208091040260200160405190810160405280929190818152602001828054610f8e90614250565b8015610fdb5780601f10610fb057610100808354040283529160200191610fdb565b820191906000526020600020905b815481529060010190602001808311610fbe57829003601f168201915b5050505050905090565b600f8181548110610ff557600080fd5b906000526020600020906006020160009150905080600001549080600101549080600201549080600301805461102a90614250565b80601f016020809104026020016040519081016040528092919081815260200182805461105690614250565b80156110a35780601f10611078576101008083540402835291602001916110a3565b820191906000526020600020905b81548152906001019060200180831161108657829003601f168201915b5050505050908060040154908060050180546110be90614250565b80601f01602080910402602001604051908101604052809291908181526020018280546110ea90614250565b80156111375780601f1061110c57610100808354040283529160200191611137565b820191906000526020600020905b81548152906001019060200180831161111a57829003601f168201915b5050505050905086565b611149611923565b73ffffffffffffffffffffffffffffffffffffffff168273ffffffffffffffffffffffffffffffffffffffff1614156111b7576040517f08c379a00000000000000000000000000000000000000000000000000000000081526004016111ae90613d6e565b60405180910390fd5b80600560006111c4611923565b73ffffffffffffffffffffffffffffffffffffffff1673ffffffffffffffffffffffffffffffffffffffff16815260200190815260200160002060008473ffffffffffffffffffffffffffffffffffffffff1673ffffffffffffffffffffffffffffffffffffffff16815260200190815260200160002060006101000a81548160ff0219169083151502179055508173ffffffffffffffffffffffffffffffffffffffff16611271611923565b73ffffffffffffffffffffffffffffffffffffffff167f17307eab39ab6107e8899845ad3d59bd9653f200f220920489ca2b5937696c31836040516112b69190613bfc565b60405180910390a35050565b600d5481565b60166020528160005260406000206020528060005260406000206000915091505080600001549080600101549080600201549080600301805461130a90614250565b80601f016020809104026020016040519081016040528092919081815260200182805461133690614250565b80156113835780601f1061135857610100808354040283529160200191611383565b820191906000526020600020905b81548152906001019060200180831161136657829003601f168201915b50505050509080600401549080600501805461139e90614250565b80601f01602080910402602001604051908101604052809291908181526020018280546113ca90614250565b80156114175780601f106113ec57610100808354040283529160200191611417565b820191906000526020600020905b8154815290600101906020018083116113fa57829003601f168201915b5050505050905086565b61143261142c611923565b836119e4565b611471576040517f08c379a000000000000000000000000000000000000000000000000000000000815260040161146890613f2e565b60405180910390fd5b61147d84848484612654565b50505050565b606061148e826118b7565b6114cd576040517f08c379a00000000000000000000000000000000000000000000000000000000081526004016114c490613e6e565b60405180910390fd5b60006006600084815260200190815260200160002080546114ed90614250565b80601f016020809104026020016040519081016040528092919081815260200182805461151990614250565b80156115665780601f1061153b57610100808354040283529160200191611566565b820191906000526020600020905b81548152906001019060200180831161154957829003601f168201915b5050505050905060006115776126b0565b905060008151141561158d5781925050506115d0565b6000825111156115c25780826040516020016115aa929190613b33565b604051602081830303815290604052925050506115d0565b6115cb846126c7565b925050505b919050565b60606000806000600f8581548110611616577f4e487b7100000000000000000000000000000000000000000000000000000000600052603260045260246000fd5b9060005260206000209060060201600301600f8681548110611661577f4e487b7100000000000000000000000000000000000000000000000000000000600052603260045260246000fd5b906000526020600020906006020160020154600f87815481106116ad577f4e487b7100000000000000000000000000000000000000000000000000000000600052603260045260246000fd5b9060005260206000209060060201600101546116c991906140d5565b6116d287610db6565b600f888154811061170c577f4e487b7100000000000000000000000000000000000000000000000000000000600052603260045260246000fd5b90600052602060002090600602016001015483805461172a90614250565b80601f016020809104026020016040519081016040528092919081815260200182805461175690614250565b80156117a35780601f10611778576101008083540402835291602001916117a3565b820191906000526020600020905b81548152906001019060200180831161178657829003601f168201915b5050505050935093509350935093509193509193565b6000600560008473ffffffffffffffffffffffffffffffffffffffff1673ffffffffffffffffffffffffffffffffffffffff16815260200190815260200160002060008373ffffffffffffffffffffffffffffffffffffffff1673ffffffffffffffffffffffffffffffffffffffff16815260200190815260200160002060009054906101000a900460ff16905092915050565b60007f01ffc9a7000000000000000000000000000000000000000000000000000000007bffffffffffffffffffffffffffffffffffffffffffffffffffffffff1916827bffffffffffffffffffffffffffffffffffffffffffffffffffffffff1916149050919050565b60008073ffffffffffffffffffffffffffffffffffffffff166002600084815260200190815260200160002060009054906101000a900473ffffffffffffffffffffffffffffffffffffffff1673ffffffffffffffffffffffffffffffffffffffff1614159050919050565b600033905090565b816004600083815260200190815260200160002060006101000a81548173ffffffffffffffffffffffffffffffffffffffff021916908373ffffffffffffffffffffffffffffffffffffffff160217905550808273ffffffffffffffffffffffffffffffffffffffff1661199e83610c4c565b73ffffffffffffffffffffffffffffffffffffffff167f8c5be1e5ebec7d5bd14f71427d1e84f3dd0314c0f7b2291e5b200ac8c7c3b92560405160405180910390a45050565b60006119ef826118b7565b611a2e576040517f08c379a0000000000000000000000000000000000000000000000000000000008152600401611a2590613dae565b60405180910390fd5b6000611a3983610c4c565b90508073ffffffffffffffffffffffffffffffffffffffff168473ffffffffffffffffffffffffffffffffffffffff161480611aa857508373ffffffffffffffffffffffffffffffffffffffff16611a9084610797565b73ffffffffffffffffffffffffffffffffffffffff16145b80611ab95750611ab881856117b9565b5b91505092915050565b8273ffffffffffffffffffffffffffffffffffffffff16611ae282610c4c565b73ffffffffffffffffffffffffffffffffffffffff1614611b38576040517f08c379a0000000000000000000000000000000000000000000000000000000008152600401611b2f90613eae565b60405180910390fd5b600073ffffffffffffffffffffffffffffffffffffffff168273ffffffffffffffffffffffffffffffffffffffff161415611ba8576040517f08c379a0000000000000000000000000000000000000000000000000000000008152600401611b9f90613d4e565b60405180910390fd5b611bb383838361276e565b611bbe60008261192b565b6001600360008573ffffffffffffffffffffffffffffffffffffffff1673ffffffffffffffffffffffffffffffffffffffff1681526020019081526020016000206000828254611c0e919061415c565b925050819055506001600360008473ffffffffffffffffffffffffffffffffffffffff1673ffffffffffffffffffffffffffffffffffffffff1681526020019081526020016000206000828254611c6591906140d5565b92505081905550816002600083815260200190815260200160002060006101000a81548173ffffffffffffffffffffffffffffffffffffffff021916908373ffffffffffffffffffffffffffffffffffffffff160217905550808273ffffffffffffffffffffffffffffffffffffffff168473ffffffffffffffffffffffffffffffffffffffff167fddf252ad1be2c89b69c2b068fc378daa952ba7f163c4a11628f55a4df523b3ef60405160405180910390a4505050565b60007f000000000000000000000000000000000000000000000000000000000000000073ffffffffffffffffffffffffffffffffffffffff16634000aea07f0000000000000000000000000000000000000000000000000000000000000000858786604051602001611d91929190613c32565b6040516020818303038152906040526040518463ffffffff1660e01b8152600401611dbe93929190613bbe565b602060405180830381600087803b158015611dd857600080fd5b505af1158015611dec573d6000803e3d6000fd5b505050506040513d601f19601f82011682018060405250810190611e1091906131b6565b506000611e32858430600760008a815260200190815260200160002054612773565b905060016007600087815260200190815260200160002054611e5491906140d5565b6007600087815260200190815260200160002081905550611e7585826127af565b9150509392505050565b6000806002600184611e9191906140d5565b611e9b919061412b565b90508291505b81811015611ed6578091506002818285611ebb919061412b565b611ec591906140d5565b611ecf919061412b565b9050611ea1565b50919050565b6000600f8054905090506000606483611ef591906142df565b9050600060646103e885611f0991906142df565b611f13919061412b565b9050600f6040518060c00160405280858152602001848152602001838152602001601060008981526020019081526020016000208054611f5290614250565b80601f0160208091040260200160405190810160405280929190818152602001828054611f7e90614250565b8015611fcb5780601f10611fa057610100808354040283529160200191611fcb565b820191906000526020600020905b815481529060010190602001808311611fae57829003601f168201915b505050505081526020016011600089815260200190815260200160002054815260200160156000898152602001908152602001600020805461200c90614250565b80601f016020809104026020016040519081016040528092919081815260200182805461203890614250565b80156120855780601f1061205a57610100808354040283529160200191612085565b820191906000526020600020905b81548152906001019060200180831161206857829003601f168201915b5050505050815250908060018154018082558091505060019003906000526020600020906006020160009091909190915060008201518160000155602082015181600101556040820151816002015560608201518160030190805190602001906120f0929190612df4565b506080820151816004015560a0820151816005019080519060200190612117929190612df4565b505050600d600081548092919061212d90614282565b91905055506013600086815260200190815260200160002060009054906101000a900473ffffffffffffffffffffffffffffffffffffffff16600e60006101000a81548173ffffffffffffffffffffffffffffffffffffffff021916908373ffffffffffffffffffffffffffffffffffffffff1602179055506001601760006013600089815260200190815260200160002060009054906101000a900473ffffffffffffffffffffffffffffffffffffffff1673ffffffffffffffffffffffffffffffffffffffff1673ffffffffffffffffffffffffffffffffffffffff1681526020019081526020016000205461222591906140d5565b601760006013600089815260200190815260200160002060009054906101000a900473ffffffffffffffffffffffffffffffffffffffff1673ffffffffffffffffffffffffffffffffffffffff1673ffffffffffffffffffffffffffffffffffffffff168152602001908152602001600020819055506040518060c001604052808481526020018381526020018281526020016010600088815260200190815260200160002080546122d690614250565b80601f016020809104026020016040519081016040528092919081815260200182805461230290614250565b801561234f5780601f106123245761010080835404028352916020019161234f565b820191906000526020600020905b81548152906001019060200180831161233257829003601f168201915b505050505081526020016011600088815260200190815260200160002054815260200160156000888152602001908152602001600020805461239090614250565b80601f01602080910402602001604051908101604052809291908181526020018280546123bc90614250565b80156124095780601f106123de57610100808354040283529160200191612409565b820191906000526020600020905b8154815290600101906020018083116123ec57829003601f168201915b5050505050815250601660006013600089815260200190815260200160002060009054906101000a900473ffffffffffffffffffffffffffffffffffffffff1673ffffffffffffffffffffffffffffffffffffffff1673ffffffffffffffffffffffffffffffffffffffff168152602001908152602001600020600060176000601360008b815260200190815260200160002060009054906101000a900473ffffffffffffffffffffffffffffffffffffffff1673ffffffffffffffffffffffffffffffffffffffff1673ffffffffffffffffffffffffffffffffffffffff1681526020019081526020016000205481526020019081526020016000206000820151816000015560208201518160010155604082015181600201556060820151816003019080519060200190612540929190612df4565b506080820151816004015560a0820151816005019080519060200190612567929190612df4565b509050506125a86012600087815260200190815260200160002060009054906101000a900473ffffffffffffffffffffffffffffffffffffffff16846127e2565b61264d836015600088815260200190815260200160002080546125ca90614250565b80601f01602080910402602001604051908101604052809291908181526020018280546125f690614250565b80156126435780601f1061261857610100808354040283529160200191612643565b820191906000526020600020905b81548152906001019060200180831161262657829003601f168201915b5050505050612800565b5050505050565b61265f848484611ac2565b61266b84848484612874565b6126aa576040517f08c379a00000000000000000000000000000000000000000000000000000000081526004016126a190613d0e565b60405180910390fd5b50505050565b606060405180602001604052806000815250905090565b60606126d2826118b7565b612711576040517f08c379a000000000000000000000000000000000000000000000000000000000815260040161270890613ece565b60405180910390fd5b600061271b6126b0565b9050600081511161273b5760405180602001604052806000815250612766565b8061274584612a0b565b604051602001612756929190613b33565b6040516020818303038152906040525b915050919050565b505050565b60008484848460405160200161278c9493929190613c5b565b6040516020818303038152906040528051906020012060001c9050949350505050565b600082826040516020016127c4929190613b07565b60405160208183030381529060405280519060200120905092915050565b6127fc828260405180602001604052806000815250612bb8565b5050565b612809826118b7565b612848576040517f08c379a000000000000000000000000000000000000000000000000000000000815260040161283f90613e2e565b60405180910390fd5b8060066000848152602001908152602001600020908051906020019061286f929190612df4565b505050565b60006128958473ffffffffffffffffffffffffffffffffffffffff16612c13565b156129fe578373ffffffffffffffffffffffffffffffffffffffff1663150b7a026128be611923565b8786866040518563ffffffff1660e01b81526004016128e09493929190613b72565b602060405180830381600087803b1580156128fa57600080fd5b505af192505050801561292b57506040513d601f19601f820116820180604052508101906129289190613244565b60015b6129ae573d806000811461295b576040519150601f19603f3d011682016040523d82523d6000602084013e612960565b606091505b506000815114156129a6576040517f08c379a000000000000000000000000000000000000000000000000000000000815260040161299d90613d0e565b60405180910390fd5b805181602001fd5b63150b7a0260e01b7bffffffffffffffffffffffffffffffffffffffffffffffffffffffff1916817bffffffffffffffffffffffffffffffffffffffffffffffffffffffff191614915050612a03565b600190505b949350505050565b60606000821415612a53576040518060400160405280600181526020017f30000000000000000000000000000000000000000000000000000000000000008152509050612bb3565b600082905060005b60008214612a85578080612a6e90614282565b915050600a82612a7e919061412b565b9150612a5b565b60008167ffffffffffffffff811115612ac7577f4e487b7100000000000000000000000000000000000000000000000000000000600052604160045260246000fd5b6040519080825280601f01601f191660200182016040528015612af95781602001600182028036833780820191505090505b5090505b60008514612bac57600182612b12919061415c565b9150600a85612b2191906142df565b6030612b2d91906140d5565b60f81b818381518110612b69577f4e487b7100000000000000000000000000000000000000000000000000000000600052603260045260246000fd5b60200101907effffffffffffffffffffffffffffffffffffffffffffffffffffffffffffff1916908160001a905350600a85612ba5919061412b565b9450612afd565b8093505050505b919050565b612bc28383612c26565b612bcf6000848484612874565b612c0e576040517f08c379a0000000000000000000000000000000000000000000000000000000008152600401612c0590613d0e565b60405180910390fd5b505050565b600080823b905060008111915050919050565b600073ffffffffffffffffffffffffffffffffffffffff168273ffffffffffffffffffffffffffffffffffffffff161415612c96576040517f08c379a0000000000000000000000000000000000000000000000000000000008152600401612c8d90613e4e565b60405180910390fd5b612c9f816118b7565b15612cdf576040517f08c379a0000000000000000000000000000000000000000000000000000000008152600401612cd690613d2e565b60405180910390fd5b612ceb6000838361276e565b6001600360008473ffffffffffffffffffffffffffffffffffffffff1673ffffffffffffffffffffffffffffffffffffffff1681526020019081526020016000206000828254612d3b91906140d5565b92505081905550816002600083815260200190815260200160002060006101000a81548173ffffffffffffffffffffffffffffffffffffffff021916908373ffffffffffffffffffffffffffffffffffffffff160217905550808273ffffffffffffffffffffffffffffffffffffffff16600073ffffffffffffffffffffffffffffffffffffffff167fddf252ad1be2c89b69c2b068fc378daa952ba7f163c4a11628f55a4df523b3ef60405160405180910390a45050565b828054612e0090614250565b90600052602060002090601f016020900481019282612e225760008555612e69565b82601f10612e3b57805160ff1916838001178555612e69565b82800160010185558215612e69579182015b82811115612e68578251825591602001919060010190612e4d565b5b509050612e769190612e7a565b5090565b5b80821115612e93576000816000905550600101612e7b565b5090565b6000612eaa612ea584614032565b614001565b905082815260208101848484011115612ec257600080fd5b612ecd84828561420e565b509392505050565b6000612ee8612ee384614062565b614001565b905082815260208101848484011115612f0057600080fd5b612f0b84828561420e565b509392505050565b600081359050612f22816143dd565b92915050565b600081359050612f37816143f4565b92915050565b600081519050612f4c816143f4565b92915050565b600081359050612f618161440b565b92915050565b600081359050612f7681614422565b92915050565b600081519050612f8b81614422565b92915050565b600082601f830112612fa257600080fd5b8135612fb2848260208601612e97565b91505092915050565b600082601f830112612fcc57600080fd5b8135612fdc848260208601612ed5565b91505092915050565b600081359050612ff481614439565b92915050565b60008151905061300981614439565b92915050565b60006020828403121561302157600080fd5b600061302f84828501612f13565b91505092915050565b6000806040838503121561304b57600080fd5b600061305985828601612f13565b925050602061306a85828601612f13565b9150509250929050565b60008060006060848603121561308957600080fd5b600061309786828701612f13565b93505060206130a886828701612f13565b92505060406130b986828701612fe5565b9150509250925092565b600080600080608085870312156130d957600080fd5b60006130e787828801612f13565b94505060206130f887828801612f13565b935050604061310987828801612fe5565b925050606085013567ffffffffffffffff81111561312657600080fd5b61313287828801612f91565b91505092959194509250565b6000806040838503121561315157600080fd5b600061315f85828601612f13565b925050602061317085828601612f28565b9150509250929050565b6000806040838503121561318d57600080fd5b600061319b85828601612f13565b92505060206131ac85828601612fe5565b9150509250929050565b6000602082840312156131c857600080fd5b60006131d684828501612f3d565b91505092915050565b600080604083850312156131f257600080fd5b600061320085828601612f52565b925050602061321185828601612fe5565b9150509250929050565b60006020828403121561322d57600080fd5b600061323b84828501612f67565b91505092915050565b60006020828403121561325657600080fd5b600061326484828501612f7c565b91505092915050565b60006020828403121561327f57600080fd5b600061328d84828501612fe5565b91505092915050565b6000602082840312156132a857600080fd5b60006132b684828501612ffa565b91505092915050565b600080600080600060a086880312156132d757600080fd5b60006132e588828901612fe5565b955050602086013567ffffffffffffffff81111561330257600080fd5b61330e88828901612fbb565b945050604061331f88828901612fe5565b935050606061333088828901612f13565b925050608086013567ffffffffffffffff81111561334d57600080fd5b61335988828901612fbb565b9150509295509295909350565b61336f81614190565b82525050565b61337e816141a2565b82525050565b61338d816141ae565b82525050565b6133a461339f826141ae565b6142cb565b82525050565b60006133b582614092565b6133bf81856140a8565b93506133cf81856020860161421d565b6133d8816143cc565b840191505092915050565b60006133ee8261409d565b6133f881856140b9565b935061340881856020860161421d565b613411816143cc565b840191505092915050565b60006134278261409d565b61343181856140ca565b935061344181856020860161421d565b80840191505092915050565b600061345a6032836140b9565b91507f4552433732313a207472616e7366657220746f206e6f6e20455243373231526560008301527f63656976657220696d706c656d656e74657200000000000000000000000000006020830152604082019050919050565b60006134c0601c836140b9565b91507f4552433732313a20746f6b656e20616c7265616479206d696e746564000000006000830152602082019050919050565b60006135006024836140b9565b91507f4552433732313a207472616e7366657220746f20746865207a65726f2061646460008301527f72657373000000000000000000000000000000000000000000000000000000006020830152604082019050919050565b60006135666019836140b9565b91507f4552433732313a20617070726f766520746f2063616c6c6572000000000000006000830152602082019050919050565b60006135a6602b836140b9565b91507f4e6f7420656e6f756768204c494e4b202d2066696c6c20636f6e74726163742060008301527f77697468206661756365740000000000000000000000000000000000000000006020830152604082019050919050565b600061360c602c836140b9565b91507f4552433732313a206f70657261746f7220717565727920666f72206e6f6e657860008301527f697374656e7420746f6b656e00000000000000000000000000000000000000006020830152604082019050919050565b60006136726038836140b9565b91507f4552433732313a20617070726f76652063616c6c6572206973206e6f74206f7760008301527f6e6572206e6f7220617070726f76656420666f7220616c6c00000000000000006020830152604082019050919050565b60006136d8602a836140b9565b91507f4552433732313a2062616c616e636520717565727920666f7220746865207a6560008301527f726f2061646472657373000000000000000000000000000000000000000000006020830152604082019050919050565b600061373e6029836140b9565b91507f4552433732313a206f776e657220717565727920666f72206e6f6e657869737460008301527f656e7420746f6b656e00000000000000000000000000000000000000000000006020830152604082019050919050565b60006137a4602e836140b9565b91507f45524337323155524953746f726167653a2055524920736574206f66206e6f6e60008301527f6578697374656e7420746f6b656e0000000000000000000000000000000000006020830152604082019050919050565b600061380a6020836140b9565b91507f4552433732313a206d696e7420746f20746865207a65726f20616464726573736000830152602082019050919050565b600061384a6031836140b9565b91507f45524337323155524953746f726167653a2055524920717565727920666f722060008301527f6e6f6e6578697374656e7420746f6b656e0000000000000000000000000000006020830152604082019050919050565b60006138b0602c836140b9565b91507f4552433732313a20617070726f76656420717565727920666f72206e6f6e657860008301527f697374656e7420746f6b656e00000000000000000000000000000000000000006020830152604082019050919050565b60006139166029836140b9565b91507f4552433732313a207472616e73666572206f6620746f6b656e2074686174206960008301527f73206e6f74206f776e00000000000000000000000000000000000000000000006020830152604082019050919050565b600061397c602f836140b9565b91507f4552433732314d657461646174613a2055524920717565727920666f72206e6f60008301527f6e6578697374656e7420746f6b656e00000000000000000000000000000000006020830152604082019050919050565b60006139e2601f836140b9565b91507f4f6e6c7920565246436f6f7264696e61746f722063616e2066756c66696c6c006000830152602082019050919050565b6000613a226021836140b9565b91507f4552433732313a20617070726f76616c20746f2063757272656e74206f776e6560008301527f72000000000000000000000000000000000000000000000000000000000000006020830152604082019050919050565b6000613a886031836140b9565b91507f4552433732313a207472616e736665722063616c6c6572206973206e6f74206f60008301527f776e6572206e6f7220617070726f7665640000000000000000000000000000006020830152604082019050919050565b613aea81614204565b82525050565b613b01613afc82614204565b6142d5565b82525050565b6000613b138285613393565b602082019150613b238284613af0565b6020820191508190509392505050565b6000613b3f828561341c565b9150613b4b828461341c565b91508190509392505050565b6000602082019050613b6c6000830184613366565b92915050565b6000608082019050613b876000830187613366565b613b946020830186613366565b613ba16040830185613ae1565b8181036060830152613bb381846133aa565b905095945050505050565b6000606082019050613bd36000830186613366565b613be06020830185613ae1565b8181036040830152613bf281846133aa565b9050949350505050565b6000602082019050613c116000830184613375565b92915050565b6000602082019050613c2c6000830184613384565b92915050565b6000604082019050613c476000830185613384565b613c546020830184613ae1565b9392505050565b6000608082019050613c706000830187613384565b613c7d6020830186613ae1565b613c8a6040830185613366565b613c976060830184613ae1565b95945050505050565b60006020820190508181036000830152613cba81846133e3565b905092915050565b60006080820190508181036000830152613cdc81876133e3565b9050613ceb6020830186613ae1565b613cf86040830185613ae1565b613d056060830184613ae1565b95945050505050565b60006020820190508181036000830152613d278161344d565b9050919050565b60006020820190508181036000830152613d47816134b3565b9050919050565b60006020820190508181036000830152613d67816134f3565b9050919050565b60006020820190508181036000830152613d8781613559565b9050919050565b60006020820190508181036000830152613da781613599565b9050919050565b60006020820190508181036000830152613dc7816135ff565b9050919050565b60006020820190508181036000830152613de781613665565b9050919050565b60006020820190508181036000830152613e07816136cb565b9050919050565b60006020820190508181036000830152613e2781613731565b9050919050565b60006020820190508181036000830152613e4781613797565b9050919050565b60006020820190508181036000830152613e67816137fd565b9050919050565b60006020820190508181036000830152613e878161383d565b9050919050565b60006020820190508181036000830152613ea7816138a3565b9050919050565b60006020820190508181036000830152613ec781613909565b9050919050565b60006020820190508181036000830152613ee78161396f565b9050919050565b60006020820190508181036000830152613f07816139d5565b9050919050565b60006020820190508181036000830152613f2781613a15565b9050919050565b60006020820190508181036000830152613f4781613a7b565b9050919050565b6000602082019050613f636000830184613ae1565b92915050565b6000604082019050613f7e6000830185613ae1565b613f8b6020830184613ae1565b9392505050565b600060c082019050613fa76000830189613ae1565b613fb46020830188613ae1565b613fc16040830187613ae1565b8181036060830152613fd381866133e3565b9050613fe26080830185613ae1565b81810360a0830152613ff481846133e3565b9050979650505050505050565b6000604051905081810181811067ffffffffffffffff821117156140285761402761439d565b5b8060405250919050565b600067ffffffffffffffff82111561404d5761404c61439d565b5b601f19601f8301169050602081019050919050565b600067ffffffffffffffff82111561407d5761407c61439d565b5b601f19601f8301169050602081019050919050565b600081519050919050565b600081519050919050565b600082825260208201905092915050565b600082825260208201905092915050565b600081905092915050565b60006140e082614204565b91506140eb83614204565b9250827fffffffffffffffffffffffffffffffffffffffffffffffffffffffffffffffff038211156141205761411f614310565b5b828201905092915050565b600061413682614204565b915061414183614204565b9250826141515761415061433f565b5b828204905092915050565b600061416782614204565b915061417283614204565b92508282101561418557614184614310565b5b828203905092915050565b600061419b826141e4565b9050919050565b60008115159050919050565b6000819050919050565b60007fffffffff0000000000000000000000000000000000000000000000000000000082169050919050565b600073ffffffffffffffffffffffffffffffffffffffff82169050919050565b6000819050919050565b82818337600083830152505050565b60005b8381101561423b578082015181840152602081019050614220565b8381111561424a576000848401525b50505050565b6000600282049050600182168061426857607f821691505b6020821081141561427c5761427b61436e565b5b50919050565b600061428d82614204565b91507fffffffffffffffffffffffffffffffffffffffffffffffffffffffffffffffff8214156142c0576142bf614310565b5b600182019050919050565b6000819050919050565b6000819050919050565b60006142ea82614204565b91506142f583614204565b9250826143055761430461433f565b5b828206905092915050565b7f4e487b7100000000000000000000000000000000000000000000000000000000600052601160045260246000fd5b7f4e487b7100000000000000000000000000000000000000000000000000000000600052601260045260246000fd5b7f4e487b7100000000000000000000000000000000000000000000000000000000600052602260045260246000fd5b7f4e487b7100000000000000000000000000000000000000000000000000000000600052604160045260246000fd5b6000601f19601f8301169050919050565b6143e681614190565b81146143f157600080fd5b50565b6143fd816141a2565b811461440857600080fd5b50565b614414816141ae565b811461441f57600080fd5b50565b61442b816141b8565b811461443657600080fd5b50565b61444281614204565b811461444d57600080fd5b5056fea26469706673582212201398749a9e29d15ebd3c141460e7ad39cc81fe29b263e1d6959b026c6af416ae64736f6c63430008000033",
  "immutableReferences": {
    "857": [
      {
        "length": 32,
        "start": 2497
      },
      {
        "length": 32,
        "start": 7458
      }
    ],
    "859": [
      {
        "length": 32,
        "start": 3769
      },
      {
        "length": 32,
        "start": 7518
      }
    ]
  },
  "source": "// SPDX-License-Identifier: MIT\npragma solidity ^0.8.0;\n\n// const RINKEBY_VRF_COORDINATOR = '0xb3dCcb4Cf7a26f6cf6B120Cf5A73875B7BBc655B'\n// const RINKEBY_LINKTOKEN = '0x01BE23585060835E02B77ef475b0Cc51aA1e0709'\n// const RINKEBY_KEYHASH = '0x2ed0feb3e7fd2022120aa84fab1945545a9f2ffc9076fd6156fa96eaff4c1311'\n\nimport \"@openzeppelin/contracts/token/ERC721/extensions/ERC721URIStorage.sol\";\nimport \"./link/VRFConsumerBase.sol\";\nimport \"@openzeppelin/contracts/utils/Strings.sol\";\nimport {SafeMath} from \"./utils/Math.sol\";\n\ncontract TrophyChar is ERC721URIStorage, VRFConsumerBase {\n    using SafeMath for uint256;\n    using Strings for string;\n    \n    bytes32 public keyHash;\n    address public VRFCoordinator;\n    uint256 internal fee;\n    uint256 public randomResult;\n    address public Linktoken;\n    uint256 public tokensCount;\n    address public add;\n\n    struct Trophy {\n        uint256 tokenId;\n        uint256 rarity;\n        uint256 worth;\n        string name;\n        uint256 levelPass;\n        string image;\n    }\n\n    Trophy[] public trophies;\n    // mappings will go here\n    mapping(bytes32 => string) requestToTrophyName;\n    mapping(bytes32 => uint256) requestToLevel;\n    mapping(bytes32 => address) requestToSender;\n    mapping(bytes32 => address) requestAddress;\n    mapping(bytes32 => uint256) requestToTokenId;\n    mapping(bytes32 => string) requestNftURI;\n    mapping(address => mapping(uint256 => Trophy)) public usersNft;\n    mapping(address => uint256) public usersNftCount;\n\n    constructor(\n        address _VRFCoordinator,\n        address _LinkToken,\n        bytes32 _keyHash\n    )\n        public\n        VRFConsumerBase(_VRFCoordinator, _LinkToken)\n        ERC721(\"TrophyChar\", \"TRP\")\n    {\n        VRFCoordinator = _VRFCoordinator;\n        keyHash = _keyHash;\n        Linktoken = _LinkToken;\n        fee = 0.1 * 10**18; // 0.1 LINK\n    }\n\n    function requestNewRandomTrophy(\n        uint256 userProvidedSeed,\n        string memory name,\n        uint256 levelPass,\n        address walletAddress,\n        string memory _tokenURI\n    ) public returns (bytes32) {\n        require(\n            LINK.balanceOf(address(this)) >= fee,\n            \"Not enough LINK - fill contract with faucet\"\n        );\n        bytes32 requestId = requestRandomness(keyHash, fee, userProvidedSeed);\n        requestToTrophyName[requestId] = name;\n        requestToLevel[requestId] = levelPass;\n        requestToSender[requestId] = msg.sender;\n        requestAddress[requestId] = walletAddress;\n        requestNftURI[requestId] = _tokenURI;\n\n        return requestId;\n    }\n\n    function fulfillRandomness(bytes32 requestId, uint256 randomNumber)\n        internal\n        override\n    {\n        //define the NFT\n        uint256 newId = trophies.length;\n        uint256 rarity = (randomNumber % 100);\n        uint256 worth = ((randomNumber % 1000) / 100);\n\n        trophies.push(\n            Trophy(\n                newId,\n                rarity,\n                worth,\n                requestToTrophyName[requestId],\n                requestToLevel[requestId],\n                requestNftURI[requestId]\n            )\n        );\n\n        tokensCount++;\n        add = requestAddress[requestId];\n        usersNftCount[requestAddress[requestId]] =\n            usersNftCount[requestAddress[requestId]] +\n            1;\n\n        usersNft[requestAddress[requestId]][\n            usersNftCount[requestAddress[requestId]]\n        ] = Trophy(\n            newId,\n            rarity,\n            worth,\n            requestToTrophyName[requestId],\n            requestToLevel[requestId],\n            requestNftURI[requestId]\n        );\n\n        //_safeMint(requestToSender[requestId], newId);\n        _safeMint(requestToSender[requestId], newId);\n        _setTokenURI(newId, requestNftURI[requestId]);\n    }\n\n    function getLevel(uint256 tokenId) public view returns (uint256) {\n        return sqrt(trophies[tokenId].rarity);\n    }\n\n    function getNumberOfTrophies() public view returns (uint256) {\n        return trophies.length;\n    }\n\n    function getTrophyOverView(uint256 tokenId)\n        public\n        view\n        returns (\n            string memory,\n            uint256,\n            uint256,\n            uint256\n        )\n    {\n        return (\n            trophies[tokenId].name,\n            trophies[tokenId].rarity + trophies[tokenId].worth,\n            getLevel(tokenId),\n            trophies[tokenId].rarity\n        );\n    }\n\n    function getTrophyStats(uint256 tokenId)\n        public\n        view\n        returns (uint256, uint256)\n    {\n        return (trophies[tokenId].rarity, trophies[tokenId].worth);\n    }\n\n    function sqrt(uint256 x) internal view returns (uint256 y) {\n        uint256 z = (x + 1) / 2;\n        y = x;\n        while (z < y) {\n            y = z;\n            z = (x / z + z) / 2;\n        }\n    }\n}\n",
  "sourcePath": "/home/develioper/Desktop/Blockchain/fil/RPG-Solidity-Game/blockchain/src/contracts/TrophyChar.sol",
  "compiler": {
    "name": "solc",
    "version": "0.8.0+commit.c7dfd78e.Emscripten.clang"
  },
  "schemaVersion": "3.3.4",
  "updatedAt": "2021-05-30T20:21:44.239Z",
  "networkType": "ethereum",
  "devdoc": {
    "kind": "dev",
    "methods": {
      "approve(address,uint256)": {
        "details": "See {IERC721-approve}."
      },
      "balanceOf(address)": {
        "details": "See {IERC721-balanceOf}."
      },
      "getApproved(uint256)": {
        "details": "See {IERC721-getApproved}."
      },
      "isApprovedForAll(address,address)": {
        "details": "See {IERC721-isApprovedForAll}."
      },
      "name()": {
        "details": "See {IERC721Metadata-name}."
      },
      "ownerOf(uint256)": {
        "details": "See {IERC721-ownerOf}."
      },
      "safeTransferFrom(address,address,uint256)": {
        "details": "See {IERC721-safeTransferFrom}."
      },
      "safeTransferFrom(address,address,uint256,bytes)": {
        "details": "See {IERC721-safeTransferFrom}."
      },
      "setApprovalForAll(address,bool)": {
        "details": "See {IERC721-setApprovalForAll}."
      },
      "supportsInterface(bytes4)": {
        "details": "See {IERC165-supportsInterface}."
      },
      "symbol()": {
        "details": "See {IERC721Metadata-symbol}."
      },
      "tokenURI(uint256)": {
        "details": "See {IERC721Metadata-tokenURI}."
      },
      "transferFrom(address,address,uint256)": {
        "details": "See {IERC721-transferFrom}."
      }
    },
    "version": 1
  },
  "userdoc": {
    "kind": "user",
    "methods": {},
    "version": 1
  }
}